:020000040800F2
:10000000C8ED0020DD010008112C0008132C0008A9
:100010001D2C0008212C0008252C000800000000E1
:100020000000000000000000000000004501000882
:10003000292C000800000000890100082B2C000872
:10004000F7010008F7010008F7010008F7010008B0
:10005000F7010008F7010008F7010008F7010008A0
:10006000F7010008F7010008F7010008F701000890
:10007000F7010008F7010008F7010008F701000880
:10008000A9560008F7010008F7010008F701000869
:10009000F7010008F7010008F7010008F701000860
:1000A000F7010008F7010008F7010008F701000850
:1000B000F7010008F7010008F7010008F701000840
:1000C000F7010008F7010008F7010008F701000830
:1000D000F7010008F7010008F7010008F701000820
:1000E000F7010008F7010008F7010008F701000810
:1000F000F7010008F7010008F7010008F701000800
:10010000F7010008CF4A0008F7010008F7010008CE
:10011000F7010008F7010008F7010008F7010008DF
:10012000F7010008F7010008F7010008F7010008CF
:10013000DFF80CD018F098F8004800477D2B000835
:10014000C8ED0020224B19680868B0E8F00F80F372
:100150000988BFF36F8F4FF0000080F311884EF0D5
:100160000D0E70470000000006480068006880F32C
:10017000088862B661B6BFF34F8FBFF36F8F00DFA1
:1001800000BF00BF08ED00E0EFF30980BFF36F8F01
:100190000F4B1A6820E9F00F106008B54FF05000BF
:1001A00080F31188BFF34F8FBFF36F8F09F077FF94
:1001B0004FF0000080F31188BDE808401968086816
:1001C000B0E8F00F80F30988BFF36F8F704700BF6E
:1001D00060000020EFF3058070470000064880476C
:1001E00006480047FEE7FEE7FEE7FEE7FEE7FEE71C
:1001F000FEE7FEE7FEE7FEE7DF0200083101000848
:100200000CB50020019000906C48006840F48030EC
:100210006A49086000BF6948006800F40030009037
:100220000198401C0190009818B90198B0F5A06F92
:10023000F1D16248006800F4003010B10120009054
:1002400001E0002000900098012843D15C4800683C
:1002500040F010005A4908600846006820F003008A
:1002600008600846006840F0020008605348406893
:10027000524948600846406848600846406840F473
:10028000806048600846406820F47C10486008465A
:10029000406840F4E81048600846006840F080700C
:1002A000086000BF4548006800F000700028F9D0E1
:1002B0004248406820F003004049486008464068D2
:1002C00040F00200486000BF3C48406800F00C006D
:1002D0000828F9D10CBD10B5FFF792FF10BD10B57D
:1002E0003648006840F0010034490860084640681C
:1002F000344908403149486008460068324908409E
:100300002E4908600846006820F4802008600846EE
:10031000406820F4FE0048604FF41F008860FFF73B
:10032000DAFF4FF000602949086010BD10B50021C8
:1003300000200022214B5B6803F00C0121B104294D
:1003400006D0082928D107E0214B224C236027E062
:100350001F4B204C236023E0184B5B6803F47010A4
:10036000164B5B6803F48032022303EB904022B902
:10037000194B4343174C23600DE0104B5B6803F4AB
:10038000003323B1144B4343124C236003E0104B62
:100390004343104C236003E00D4B0E4C236000BF21
:1003A00000BF064B5B68C3F303130C4CE15C094BC5
:1003B0001B68CB40074C236010BD000000100240BA
:1003C000002002400000FFF8FFFFF6FE08ED00E00D
:1003D00000127A000000002000093D000400002007
:1003E00031490143314A1160704770B50021002343
:1003F0000F22C47804B32D4C246804F4E064C4F5DF
:10040000E064210AC1F10403CA40447804FA03F10C
:100410008478144021430901254C0678A1550478BD
:1004200004F01F050124AC4005786D11AD0005F105
:10043000E025C5F8004109E0047804F01F05012417
:10044000AC401C4D0678761145F8264070BD1A4A1E
:100450000A400243154B1B1F1A60704739B1134AFB
:10046000121D12680243114B1B1D1A6006E00F4A51
:10047000121D126882430D4B1B1D1A607047042821
:1004800008D14FF0E021096941F004014FF0E0226A
:10049000116107E04FF0E021096921F004014FF0FC
:1004A000E0221161704700000000FA050CED00E049
:1004B00000E400E080E100E080FFFF1F01684FF6EC
:1004C000FE72114001600021016041608160C160E5
:1004D0008D49884208D18C490839496841F00F019B
:1004E000894A083A51608AE087491431884208D124
:1004F00085490839496841F0F001834A083A51605A
:100500007DE081492831884208D17F49083949680E
:1005100041F470617C4A083A516070E07A493C319C
:10052000884208D178490839496841F47041764ACF
:10053000083A516063E074495031884208D17249E9
:100540000839496841F470216F4A083A516056E011
:100550006D496431884208D16B490839496841F4D2
:100560007001694A083A516049E067497831884228
:1005700008D165490839496841F07061624A083A12
:1005800051603CE06149884206D1011F096841F091
:100590000F01021F116032E05C491431884208D11A
:1005A0005A49091F096841F0F001584A121F1160A9
:1005B00025E056492831884208D15449091F096865
:1005C00041F47061514A121F116018E04F493C31EB
:1005D000884208D14D49091F096841F470414B4ACE
:1005E000121F11600BE049495031884207D1474939
:1005F000091F096841F47021444A121F11607047B5
:1006000010B50022026847F6F0739A430C6A8B68B3
:1006100023430C6923434C6923438C692343CC69EE
:1006200023434C6A23438C6A23431A430260CB68FA
:1006300043600B6883604B68C36010BD002101609C
:1006400041608160C160016141618161C16101629C
:1006500041628162704721B1026842F0010202608A
:1006600004E002684FF6FE731A40026070471AB148
:1006700003680B43036002E003688B430360704729
:10068000416070470146486880B2704701460020CB
:10069000002201F080531BB11C4B083B1A6802E09A
:1006A000194B083B1A6802EA01030BB1012000E074
:1006B0000020704700F0805119B11449091F0860EB
:1006C00002E01149083948607047014600200022C5
:1006D00001F080531BB10D4B083B1A6802E00A4B36
:1006E000083B1A6802EA01030BB1012000E0002078
:1006F000704700F0805119B10449091F086002E0F9
:100700000149083948607047080002400804024067
:1007100030B943F2DB028100A1F1C0410A6005E07B
:1007200043F2D2028100A1F1C0410A606FF0704231
:10073000411C8900A1F1C0410A608100A1F1C041C2
:10074000C1F80421704710280AD118214FF0204227
:100750001166402151664FF0FC319166D16610E080
:100760001821F74A116040214FF02042C2F884104E
:100770004FF0FC31F24A083211604FF02042C2F8CB
:100780008C1070471820EE492031086000200906BF
:10079000C1F8A4004FF0FC30E94928310860091D78
:1007A0000860091D08607047D0E901121143C26852
:1007B0001143026911434269114382691143C269BD
:1007C0001143026A1143426A1143826A1143C26AA9
:1007D0001143026B114302689200A2F1C042116002
:1007E000816808290BD101688900A1F1C04109681D
:1007F00041F0400201688900A1F1C0410A60416BEB
:100800000968426B526841EA0211426B926841EA00
:100810000221426B928941EA0241426B128A41EA0B
:100820000251426B127D41EA0261426B92691143AF
:100830000268521C9200A2F1C0421160C16AB1F577
:10084000804F1BD1816B0968826B526841EA0211AB
:10085000826B926841EA0221826B128A41EA02515C
:10086000826B127D41EA0261826B926911430268D8
:100870009200A2F1C042C2F8041107E06FF070428A
:1008800001688900A1F1C041C1F80421704730B569
:10089000002100220023446844F0080485682C43AA
:1008A000C5682C4305692C43456944EA452485699C
:1008B00044EA4531C4692468C5696D6844EA052481
:1008C000C5692D8944EA0544C5692D7B44EA056262
:1008D000046A2468056A6D6844EA0524056A2D895E
:1008E00044EA0544056A2D7B44EA05630468102C3C
:1008F00005D14FF020442166A266E36608E0904CE3
:1009000021604FF02044C4F888208D4C0C342360C3
:1009100030BD016841F01001426841EA422182681D
:1009200041EA4231864A20321160C1680968C268D2
:10093000526841EA0221C268128941EA0241C26852
:10094000127B41EA02617E4A28321160016909681E
:100950000269526841EA02210269128941EA0241B0
:100960000269127B41EA0261754A2C3211604169C9
:1009700009684269526841EA02214269128941EAE2
:1009800002414269127B41EA02614FF02042C2F803
:10099000B010704700210160022141600021816098
:1009A000C160016141618161C16101624FF48051A7
:1009B0004162490081620021C16201630F21426BE3
:1009C0001160426B5160FF21426B91600F21426BBD
:1009D000D160426B1161426B51610021426B9161A8
:1009E0000F21826B1160826B5160FF21826B9160DD
:1009F0000F21826BD160826B1161826B516100218A
:100A0000826B91617047102101600021416081601B
:100A1000C160016141618161FC21C2691160C269EB
:100A20005160C2699160C269D160026A1160026A54
:100A30005160026A9160026AD160704700210160D2
:100A400041608160FC21C2681160C2685160C26867
:100A50009160C268D16002691160026951600269E7
:100A600091600269D16042691160426951604269D6
:100A700091604269D160704751B18200A2F1C042D9
:100A8000126842F001038200A2F1C042136009E043
:100A90008200A2F1C04212682A4B1A408300A3F1DF
:100AA000C0431A60704799B1102808D14FF0204216
:100AB000126E42F004024FF020431A661DE0204AF5
:100AC000126842F004024FF02043C3F8802014E083
:100AD000102809D14FF02042126E1A4BDB1E1A402B
:100AE0004FF020431A6608E0154A1268154BDB1ECA
:100AF0001A404FF02043C3F88020704748B1104996
:100B00002031096841F004014FF02042C2F8A010E2
:100B100009E00B49203109680A4AD21E11404FF002
:100B20002042C2F8A0107047B9B110280CD14FF084
:100B30002042126E42F040024FF020431A661FE03E
:100B4000800000A0FEFF0F00724A126842F04002CF
:100B50004FF02043C3F8802012E0102808D14FF056
:100B60002042126E6C4B1A404FF020431A6607E089
:100B7000684A1268684B1A404FF02043C3F880203F
:100B8000704701460020102903D14FF02042506FDA
:100B900002E0604A14321068704710B5F2B11028B4
:100BA00007D14FF020435B6E0B434FF02044636648
:100BB00032E0B0F5807F08D1564B1B1D1B680B43FC
:100BC0004FF02044C4F8843026E0524B24331B6895
:100BD0000B434FF02044C4F8A4301DE0102807D187
:100BE0004FF020435B6E8B434FF02044636613E06D
:100BF000B0F5807F08D1474B1B1D1B688B434FF01E
:100C00002044C4F8843007E0424B24331B688B43F4
:100C10004FF02044C4F8A43010BD10B502460020A7
:100C20000023102A03D14FF02044636E09E0B2F58F
:100C3000807F03D1374C241D236802E0354C2434D7
:100C4000236803EA01040CB1012000E0002010BD7C
:100C5000102807D14FF02042526E8A434FF02043B4
:100C60005A6613E0B0F5807F08D12A4A121D126837
:100C70008A434FF02043C3F8842007E0254A2432FA
:100C800012688A434FF02043C3F8A420704770B520
:100C900002460020002300240025102A03D14FF033
:100CA0002046736E09E0B2F5807F03D1194E361DE0
:100CB000336802E0174E2436336803EA010403EA7E
:100CC000D10514B10DB1012000E0002070BD102845
:100CD00008D14FF02042526E22EAD1024FF0204359
:100CE0005A6615E0B0F5807F09D10A4A121D1268D4
:100CF00022EAD1024FF02043C3F8842008E0054ADD
:100D00002432126822EAD1024FF02043C3F8A42013
:100D100070470000800000A0BFFF0F0010B5044620
:100D2000CC48844208D10121042000F02DFB002191
:100D3000042000F029FB46E0C748844208D1012185
:100D4000082000F021FB0021082000F01DFB3AE004
:100D5000C248844208D10121102000F015FB002177
:100D6000102000F011FB2EE0BD48844208D1012183
:100D7000202000F009FB0021202000F005FB22E0EC
:100D8000B848844208D10121402000F0FDFA00213A
:100D9000402000F0F9FA16E0B348844208D101215E
:100DA000802000F0F1FA0021802000F0EDFA0AE046
:100DB000AE48844207D10121801500F0E5FA0021F8
:100DC000A01500F0E1FA10BD10B50121084600F0B1
:100DD000DBFA0021012000F0D7FA10BD2DE9F04127
:100DE000024600250026002000230024002791F859
:100DF00003C00CF00F0591F803C00CF0100CBCF10F
:100E0000000F03D091F802C04CEA050591F800C02C
:100E1000BCF1000F31D0146800202BE04FF0010C22
:100E20000CFA00F3B1F800C00CEA03069E4220D190
:100E300083004FF00F0C0CFA03F7BC4305FA03FCD8
:100E40004CEA040491F803C0BCF1280F06D14FF01E
:100E5000010C0CFA00FCC2F814C00AE091F803C0BF
:100E6000BCF1480F05D14FF0010C0CFA00FCC2F8A0
:100E700010C0401C0828D1D31460B1F800C0BCF1E8
:100E8000FF0F34DD546800202EE000F1080C4FF015
:100E9000010808FA0CF3B1F800C00CEA03069E4200
:100EA00021D183004FF00F0C0CFA03F7BC4305FA75
:100EB00003FC4CEA040491F803C0BCF1280F05D1EF
:100EC00000F1080C08FA0CF8C2F8148091F803C07D
:100ED000BCF1480F07D100F1080C4FF0010808FAE7
:100EE0000CF8C2F81080401C0828CED35460BDE82E
:100EF000F0814FF6FF710180022181700421C170E1
:100F000070470246002093680B400BB1012000E0BF
:100F1000002070470146886880B270470246002072
:100F2000D3680B400BB1012000E000207047014660
:100F3000C86880B2704701617047416170470AB16B
:100F4000016100E041617047C16070474FF4803239
:100F50000A438261816182618269826970470246C7
:100F60000020434B18684FF68073184040EA021087
:100F700008433F4B186070473E49C8617047F0B561
:100F80000A46002300240021002500F00046B6F1A7
:100F9000004F02D1364EF16901E0354E7168C0F361
:100FA000034583B200F44016B6F5401F08D121F086
:100FB00070612F4E766826F070662D4F7E6012E0CD
:100FC00000F48016B6F5801F06D1032606FA05F454
:100FD000A14341F0706106E0460D360103FA06F6C2
:100FE000B14341F0706122B1460D360103FA06F6B5
:100FF000314300F00046B6F1004F02D11C4EF161C2
:1010000001E01B4E7160F0BD30B500228B071C0F54
:101010000F2303FA04F2164B08338C1053F82430D4
:101020009343134C08348D1044F8253023468C101C
:1010300053F824308C07240F00FA04F423430C4C9B
:1010400008348D1044F8253030BD0A49DC31086081
:101050007047000000080140000C014000100140F2
:101060000014014000180140001C01400020014014
:101070000000014000002042DF48006840F001000D
:10108000DD49086008464068DC490840DA494860A4
:1010900008460068DA490840D749086008460068F1
:1010A00020F4802008600846406820F4FE00486074
:1010B0004FF41F0088607047CF49096821F48031E0
:1010C000CD4A11601146096821F480211160B0F504
:1010D000803F03D0B0F5802F0ED106E0C6490968E5
:1010E00041F48031C44A116007E0C349096841F402
:1010F000A021C14A116000E000BF00BF704710B5D9
:1011000001460022002300204A11012A02D1BA4CD4
:10111000236806E0022A02D1B74C236A01E0B64CEC
:10112000636A01F01F02012494401C400CB10120AD
:1011300000E0002010BD38B50020009000240025FC
:1011400000BF3120FFF7DBFF05460098401C0090F0
:101150000098B0F5A06F01D0002DF2D03120FFF73C
:10116000CEFF08B1012400E00024204638BD01462E
:101170000020A14A106820F0F80040EAC100106089
:101180007047A04908607047024600209A4B586893
:1011900020F47C1042EA01031843974B58607047D3
:1011A00098490866704701460020934A506820F02D
:1011B00003000843506070478F48406800F00C00FF
:1011C0007047014600208C4A506820F0F000084328
:1011D0005060704701460020874A506820F4E06064
:1011E00008435060704701460020834A506820F44D
:1011F000605040EAC1005060704729B17E4A527A7F
:1012000002437D4B5A7204E07B4A527A82437A4B06
:101210005A7270477B49D8310860704701460020F8
:10122000754A506820F440400843506070470021E0
:10123000714A20321170704A82F82010012802D0C1
:1012400004280AD104E001216B4A2032117005E024
:101250000521694A2032117000E000BF00BF7047CD
:101260006949086070476449096A0143624A11622A
:101270007047654944390860704730B50021002245
:10128000002400235C4D6D6805F00C0121B1042998
:1012900005D0082923D105E05C4D056022E05B4DB7
:1012A00005601FE0544D6D6805F47012524D6D6875
:1012B00005F48034022505EB92421CB9544D554388
:1012C00005600BE04C4D6D6805F400351DB1504DC7
:1012D0005543056002E04D4D5543056002E04B4D1E
:1012E000056000BF00BF444D6D6805F0F0010909BD
:1012F000484D6B5C0568DD4045603F4D6D6805F409
:10130000E061090A434D6B5C4568DD4085603A4DFC
:101310006D6805F46051C90A3E4D6B5C4568DD405F
:10132000C560354D6D6805F44041890B3A4D6B5CE5
:10133000C568B5FBF3F5056130BD29B12E4A526988
:1013400002432D4B5A6104E02B4A526982432A4BD7
:101350005A61704729B1284A92690243264B9A6123
:1013600004E0254A92698243234B9A61704729B170
:10137000214AD2690243204BDA6104E01E4AD26955
:1013800082431D4BDA61704729B11B4AD268024380
:10139000194BDA6004E0184AD2688243164BDA60CF
:1013A000704729B1144A12690243134B1A6104E0D1
:1013B000114A12698243104B1A6170471249403931
:1013C000086070470F49C86470470B49C87170477F
:1013D0000948406A40F080700749486270470146FA
:1013E0000020054A92680A400AB1012000E000206E
:1013F0007047014988727047001002400000FFF8F2
:10140000FFFFF6FE000042428004424200127A00D2
:1014100000093D00140000202400002000206F4936
:10142000086048608860C86048628862C8626C482A
:1014300088630020C86370470021684A516847F6F6
:10144000FF629143027D83681A4343681A43C3686D
:101450001A4303681A4303691A4311435F4A5160F0
:10146000704700210175016041608160C1600161C8
:1014700070475C49086070475849096821F00301CA
:10148000564A11601146096801431160704753487C
:10149000006800F00300704729B1504AD26B024344
:1014A0004E4BDA6304E04D4AD26B82434B4BDA6316
:1014B00070474D49086070470021484B02689A60A8
:1014C0001A46D1686FF30A01D0E901231A43C368B1
:1014D0001A4303691A431143404AD16070470021FF
:1014E000016041608160C160016170473B480069F3
:1014F000C0B2704708B5014600200090374814304C
:10150000084400900098006808BD0021334B026831
:101510005A6242689A621A46D16A21F0F701D0E90C
:1015200002231A4303691A4343691A4311432B4A9E
:10153000D16270474FF0FF3101600021416081604E
:10154000C1600161416170472448006B70472348C6
:1015500080300068704721498031086070471F481B
:10156000806C704720491431086070471E4918315B
:10157000086070471C491C31086070471A492031C7
:10158000086070471949086070471849091D0860CC
:10159000704701218143154A083211607047134991
:1015A0000C3108607047014600200C4A526B0A401B
:1015B0000AB1012000E000207047084988637047A5
:1015C00001460020054A526B0A400AB1012000E0A2
:1015D0000020704701498863704700000080014087
:1015E000FF07C000A00030428C053042AC01304201
:1015F00010B50446BE48844208D101218014FFF78B
:10160000C3FE0021A014FFF7BFFE16E0B9488442D4
:1016100008D101210014FFF7C4FE00212014FFF7B8
:10162000C0FE0AE0B448844207D10121C013FFF78D
:10163000B8FE0021E013FFF7B4FE10BD10B5002284
:10164000028802F441520B884C8823438C88234340
:10165000CC8823430C8923434C8923438C8923431F
:10166000CC8923431A430280838B4FF2FF742340BB
:1016700083830B8A038210BD2DE9F04F85B00546A8
:101680000C464FF0000902274FF000084FF0010B05
:101690000026B246A88B4FF240010840A8830220E2
:1016A0002884B5F81C90A068022801D100BF38E05A
:1016B000A08810B94FF0010B01E04FF0020B8D48EC
:1016C000854200D100E000BF6846FFF7D6FDDDF897
:1016D00000A0E088B0F5007F0AD14FEA1A2000EBA5
:1016E00080004000A168B0FBF1F0401D86B20BE025
:1016F0004FEA4B10BAFBF0F000EB80004000A1680D
:10170000B0FBF1F0401D86B20A20B6FBF0F606F001
:101710000108A6EB0800C0F34F074FF6FF7000EA80
:101720000828022F01DBFF2F02DD02274FF00008FF
:10173000E08840EA080038432884A088A18908434B
:10174000618808432188084340F4006040EA0909A1
:10175000A5F81C9005B0BDE8F08F00210180418004
:101760008180C180018141818181C1810721018204
:1017700070470021018041808180C1800221816009
:1017800000218181704721B1028842F0400202802D
:1017900004E002884FF6BF731A400280704721B1FF
:1017A000828B42F48062828304E0828B4FF6FF33A7
:1017B0001A408283704730B5002400230C110125A4
:1017C000A540ABB21AB185881D43858002E08588AB
:1017D0009D43858030BD1AB183880B43838002E02E
:1017E00083888B4383807047818170470146888955
:1017F00070474FF6FF62914204D0028842F4807233
:10180000028004E002884FF6FF631A4002807047AE
:1018100021B1828842F00402828004E082884FF67F
:10182000FB731A408280704702884FF2FF731A40A0
:10183000028002880A4302807047018841F4805187
:101840000180704721B1028842F40052028004E016
:1018500002884DF6FF731A4002807047024600204E
:10186000012901D0108B00E0908A70470146088A58
:101870007047B1F5804F04D1028842F48042028063
:1018800004E002884BF6FF731A400280704702465C
:10189000002013890B400BB1012000E000207047AD
:1018A000CA4302817047F0B502460020002400239D
:1018B000002501F00F070126BE40B4B20B1101262E
:1018C0009E40B3B2968806EA03051689264016B1F3
:1018D0000DB1012000E00020F0BD10B5002201F0A4
:1018E0000F040123A3409AB2D343038110BD00002B
:1018F0000030014000380040003C004010B5044674
:10190000FE48844208D10121C014FFF73DFD0021AB
:10191000E014FFF739FDC4E0B4F1804F08D1012194
:101920000846FFF73EFD00210120FFF73AFDB8E031
:10193000F348844208D101210220FFF732FD002143
:101940000220FFF72EFDACE0EE48844208D10121D1
:101950000420FFF726FD00210420FFF722FDA0E070
:10196000E948844208D101210820FFF71AFD00212F
:101970000820FFF716FD94E0E448844208D10121D5
:101980001020FFF70EFD00211020FFF70AFD88E070
:10199000DF48844208D101212020FFF702FD002109
:1019A0002020FFF7FEFC7CE0DA48844208D10121C8
:1019B0004014FFF7E9FC00216014FFF7E5FC70E03C
:1019C000D548844209D10121C804FFF7DDFC00217C
:1019D0004FF40020FFF7D8FC63E0D048844209D1DF
:1019E00001210805FFF7D0FC00214FF48010FFF71C
:1019F000CBFC56E0CA48844209D101214805FFF7D3
:101A0000C3FC00214FF40010FFF7BEFC49E0C548BD
:101A1000844208D101214020FFF7C3FC002140206F
:101A2000FFF7BFFC3DE0C048844208D1012180207F
:101A3000FFF7B7FC00218020FFF7B3FC31E0BB4883
:101A4000844208D101218015FFF7ABFC0021A015CD
:101A5000FFF7A7FC25E0B648844209D1012108041C
:101A6000FFF792FC00214FF48030FFF78DFC18E067
:101A7000B048844209D101214804FFF785FC0021C8
:101A80004FF40030FFF780FC0BE0AB48844208D1F4
:101A900001218804FFF778FC00214FF48020FFF734
:101AA00073FC10BD00220288944B98420ED0994BD3
:101AB00098420BD0B0F1804F08D0914B984205D09E
:101AC000904B984202D0904B984204D14FF68F73BE
:101AD0001A404B881A438D4B984207D08C4B984242
:101AE00004D04FF6FF431A40CB881A4302808B88FC
:101AF00083850B880385814B98420BD0854B984298
:101B000008D08B4B984205D08A4B984202D08A4B22
:101B1000984201D10B7A038601238382704770B506
:101B2000002400220023058C4FF6FE763540058404
:101B3000028C8388048B4FF68F752C40B51E2C4089
:101B40000D882C43751E2A400D892A434D882A434F
:101B50006A4DA8420BD06F4DA84208D0744DA842E0
:101B600005D0744DA84202D0734DA84213D14FF650
:101B7000F7752A404D892A434FF6FB752A408D8818
:101B80002A434FF6FF652B404FF6FF552B408D89BA
:101B90002B43CD892B4383800483CD8885860284A3
:101BA00070BD70B5002400220023058C4FF6EF763F
:101BB00035400584028C8388048B48F6FF752C40E1
:101BC0004FF6FF452C400D884FF6FF7606EA0525B7
:101BD0002C434FF6DF752A400D8906EA05152A4386
:101BE0004D8806EA05152A43444DA84202D0494DC6
:101BF000A8421DD14FF67F752A404D894FF6FF76DA
:101C000006EA05152A434FF6BF752A408D8806EA75
:101C100005152A434FF6FF352B404FF2FF752B4039
:101C20008D8906EA85052B43CD8906EA85052B4378
:101C300083800483CD880587028470BD70B500243D
:101C400000220023058C4FF6FF6635400584028C88
:101C50008388848B4FF68F752C404FF6FC752C4093
:101C60000D882C434FF6FF552A400D894FF6FF761D
:101C700006EA05252A434D8806EA05252A431F4D15
:101C8000A84202D0234DA8421DD14FF2FF752A4031
:101C90004D894FF6FF7606EA05252A434FF6FF35B4
:101CA0002A408D8806EA05252A434EF6FF752B400B
:101CB0004DF6FF752B408D8906EA05152B43CD891E
:101CC00006EA05152B4383808483CD8885870284AB
:101CD00070BD70B5002200230024058C4EF6FF76FF
:101CE00035400584038C8488828B48F6FF752A4032
:101CF0004FF6FF452A400D8820E00000002C0140EF
:101D00000004004000080040000C004000100040AB
:101D10000014004000340140004C014000500140DC
:101D20000054014000180040001C0040002000400A
:101D30000040014000440140004801404FF6FF765A
:101D400006EA05252A434DF6FF752B400D8906EA64
:101D500005352B434D8806EA05352B43FA4DA8423D
:101D600002D0FA4DA84208D14BF6FF752C408D8960
:101D70004FF6FF7606EA85152C4384808283CD8852
:101D8000A0F84050038470BD828B4FF2FF331A409D
:101D90008283828B4FF6FF7303EA01231A43828307
:101DA0007047F0B50C461546002200210026078C2E
:101DB0004EF6FF7C07EA0C070784828B018C4FF6F6
:101DC000FF7707EA043640F6FF473A404FF6FF77C1
:101DD00007EA05273A434FF6FF7707EA03373A4306
:101DE000D94FB8420ED0D94FB8420BD0B0F1804F86
:101DF00008D0D74FB84205D0D64FB84202D0D64F00
:101E0000B84206D14DF6FF77394046F48057394342
:101E100005E047F6FF57394044F480573943828341
:101E20000184F0BD828B4FF6F3731A408283828B5C
:101E30000A4382837047F0B50C4615460022002104
:101E40000026078C4FF6FF6C07EA0C070784828B8D
:101E5000018C4FF6FF7707EA04264FF60C773A40DD
:101E60004FF6FF7707EA03172F433A43B64FB842BE
:101E70000ED0B64FB8420BD0B0F1804F08D0B44F5F
:101E8000B84205D0B34FB84202D0B34FB84206D1E2
:101E90004FF6FF57394046F48077394305E04FF25B
:101EA000FF57394044F48077394382830184F0BD81
:101EB000028B4FF2FF331A400283028B4FF6FF73FF
:101EC00003EA01231A4302837047F0B50C46154616
:101ED000002200210026078C4FF6EF7C07EA0C0752
:101EE0000784028B018C4FF6FF7707EA041640F651
:101EF000FF473A404FF6FF7707EA03373A434FF67A
:101F0000FF7707EA05273A438F4FB8420ED08F4F2D
:101F1000B8420BD0B0F1804F08D08D4FB84205D0F9
:101F20008C4FB84202D08C4FB84206D14FF6DF77C3
:101F3000394046F01007394305E04FF65F773940E6
:101F400044F01007394302830184F0BD028B4FF641
:101F5000F3731A400283028B0A4302837047F0B581
:101F60000C46154600220021068C4FF6FE773E40B7
:101F70000684028B018C4FF60C7632407E1C06EAFA
:101F800003162E433243704EB0420ED06F4EB04215
:101F90000BD0B0F1804F08D06D4EB04205D06D4EE1
:101FA000B04202D06C4EB04206D14FF6FD763140C1
:101FB00044F00106314305E04FF6F576314044F038
:101FC0000106314302830184F0BD70B505460C461D
:101FD0005D4885420ED05D4885420BD0B5F1804FFB
:101FE00008D05B48854205D05A48854202D05A48FD
:101FF000854200D100E000BF208850B92389A28823
:1020000061882846FFF7ABFFE1882846FFF79EFF6F
:1020100025E0208804280AD12389A28861882846DF
:10202000FFF753FFE1882846FFF742FF17E02088BB
:1020300008280AD12389A28861882846FFF7FBFE79
:10204000E1882846FFF7EEFE09E02389A28861882F
:102050002846FFF7A6FEE1882846FFF795FE70BDEB
:102060002DE9F04105460C4600260127608808B995
:10207000022600E00026A088012801D1022700E006
:1020800001272088A0B92389A28861882846FFF704
:1020900066FFE1882846FFF759FF23893A46314613
:1020A0002846FFF712FFE1882846FFF701FF13E0FB
:1020B0002389A28861882846FFF707FFE188284620
:1020C000FFF7F6FE23893A4631462846FFF747FFD9
:1020D000E1882846FFF73AFFBDE8F0810A884B887F
:1020E0001A438B881A43CB881A430B891A434B89AE
:1020F0001A438B891A43A0F8442070474FF6FF71AA
:10210000818000210180C1804180017270470021DF
:10211000018041808180C180018141818181C181B3
:102120007047002101804180012181800021C18010
:10213000018170470021018041808180C18001813F
:102140004181818170470000002C01400034014032
:102150000004004000080040000C004021B102884B
:1021600042F00102028004E002884FF6FE731A403A
:102170000280704731B1B0F8442042F40042A0F828
:10218000442005E0B0F84420C2F30E02A0F8442039
:1021900070471AB183890B43838102E083898B43A3
:1021A000838170478182704741EA0203A0F848307A
:1021B00070471AB183890B43838102E083898B4383
:1021C0008381704701894FF6F87211400181704791
:1021D0000A46002101894FF68F731940114301818E
:1021E000704730B504460D4629462046FFF7F0FFFC
:1021F000208940F00700208130BD2DE9F0410446E0
:102200000D4616461F46602D06D13B46012231463B
:102210002046FFF75AFE05E03B46012231462046A4
:10222000FFF79DFE29462046FFF7D2FF208940F0A8
:1022300007002081BDE8F08130B50C4600210189FE
:10224000C9B24FF6FF7505EA032515432543294317
:10225000018130BD2DE9F04105460E4617469846EE
:10226000002443463A4631462846FFF7E5FF2C89CD
:102270004FF6F870044044F007044FF68F700440A6
:1022800044F070042C81BDE8F081F0B504460D46A1
:1022900016461F463B46324629462046FFF7CCFFEE
:1022A000208940F480402081F0BD01858282704702
:1022B0000A46002101884FF68F73194011430180AF
:1022C0007047F0B50C4615461E460021002200233B
:1022D0000189028B038C4FF6F877394021434FF682
:1022E000FC473A4040F201173A434FF6DD773B4056
:1022F0004FF6FF7707EA06172F433B43018102831E
:102300000384F0BD0A460021018B4FF68F731940FC
:102310001143018370470A460021018B48F6FF7381
:1023200019404FF6FF7303EA0223194301837047F4
:102330000A460021818B4FF68F7319401143818328
:1023400070470A460021818B48F6FF7319404FF60B
:10235000FF7303EA022319438183704721B1028886
:1023600042F08002028004E002884FF67F731A4038
:102370000280704721B1828842F00402828004E02A
:1023800082884FF6FB731A408280704721B18288A1
:1023900042F00802828004E082884FF6F7731A4008
:1023A0008280704721B1828842F00102828004E07D
:1023B00082884FF6FE731A40828070470A460021D9
:1023C000018B4FF6F77319401143018370470A469A
:1023D0000021018B4FF2FF7319404FF6FF7303EAA0
:1023E00002231943018370470A460021818B4FF66F
:1023F000F77319401143818370470A460021818B8E
:102400004FF2FF7319404FF6FF7303EA022319439B
:10241000818370470A460021018B4FF6FB731940F8
:102420001143018370470A460021018B4FF6FF33A9
:1024300019404FF6FF7303EA0223194301837047E3
:102440000A460021818B4FF6FB73194011438183AB
:1024500070470A460021818B4FF6FF3319404FF633
:10246000FF7303EA02231943818370470A46002160
:10247000018B4FF67F7319401143018370470A4661
:102480000021018BC1F30E014FF6FF7303EA022313
:102490001943018370470A460021818B4FF67F73F1
:1024A00019401143818370470A460021818BC1F393
:1024B0000E014FF6FF7303EA02231943818370472D
:1024C0000A460021018C4FF6FD7319401143018427
:1024D00070470A460021018C4FF6F77319401143EB
:1024E000018470470A460021018C4FF6DF731940C2
:1024F0004FF6FF7303EA02131943018470470A463B
:102500000021018C4FF67F7319404FF6FF7303EAE9
:1025100002131943018470470A460021018C4FF6CB
:10252000FF5319404FF6FF7303EA02231943018456
:1025300070470A460021018C4FF2FF7319404FF695
:10254000FF7303EA02231943018470470A460021FE
:10255000018C4DF6FF7319404FF6FF7303EA023307
:1025600019430184704730B5002301248C40A3B285
:10257000048C9C430484048C02FA01F5ADB22C4314
:10258000048430BD30B5002304248C40A3B2048CF5
:102590009C430484048C02FA01F5ADB22C430484FC
:1025A00030BD70B5034600200024184618300125C0
:1025B0008D40ACB21D8CA5431D8409B1082909D1F9
:1025C00000EB6100056825F070050560056815439E
:1025D00005600EE00D1FC5F34E052844056825F47F
:1025E000E045056005684FF6FF7606EA02263543AA
:1025F000056070BD21B1028842F00202028004E051
:1026000002884FF6FD731A400280704721B102889C
:1026100042F00402028004E002884FF6FB731A4085
:102620000280704721B1828842F08002828004E0FB
:1026300082884FF67F731A408280704702884FF677
:10264000F7731A40028002880A430280704782882A
:102650004FF68F731A40828082880A4382807047C7
:1026600002894FF6F8731A40028102890A430281F7
:10267000704702894FF67F731A40028102890A432C
:1026800002817047818470478185704781867047D9
:102690000187704781877047A0F840107047028813
:1026A0004FF6FF431A40028002880A4302807047B7
:1026B0000146888E70470146088F70470146888F13
:1026C00070470146B1F8400070470146888C70475A
:1026D0000146088D704702460020138A0B400BB15B
:1026E000012000E000207047CA430282704730B5E5
:1026F0000246002000230024158A05EA010395897B
:1027000005EA010413B10CB1012000E0002030BD46
:10271000CA4302827047000010B50446FB48844259
:1027200009D101218803FEF72FFE00214FF48040DC
:10273000FEF72AFE32E0F648844209D1012148041E
:10274000FEF72FFE00214FF40030FEF72AFE25E0B1
:10275000F048844209D101218804FEF722FE0021BD
:102760004FF48020FEF71DFE18E0EB48844209D1AB
:102770000121C804FEF715FE00214FF40020FEF7EA
:1027800010FE0BE0E548844208D101210805FEF760
:1027900008FE00214FF48010FEF703FE10BD2DE966
:1027A000F04786B005460E460024A24600BFA1466B
:1027B0000027B08900B100BF2F462C8A4CF6FF706D
:1027C0000440F08804432C82AC894EF6F310044098
:1027D000B08831890843718908430443AC81AC8ACD
:1027E0004FF6FF400440B0890443AC8201A8FEF7D5
:1027F00044FDC648874202D1DDF810A001E0DDF8B3
:102800000CA0A88900F4004040B10AEBCA0000EB1C
:102810000A1031684900B0FBF1F807E00AEBCA0082
:1028200000EB0A1031688900B0FBF1F86420B8FBB6
:10283000F0F004012009642101FB1089A88900F44B
:10284000004040B1322000EBC900B0FBF1F000F0D5
:102850000700044308E0322000EB09106421B0FBBC
:10286000F1F000F00F0004432C8106B0BDE8F087C2
:102870004FF41651016000218180C18001810C213B
:10288000418100218181704710B502460020108AE5
:102890004FF2FF0318400B884C8823438C88234356
:1028A000CC8823431843108210BD00210180418051
:1028B0008180C180704721B1828942F400528281B7
:1028C00004E082894DF6FF731A4082817047F0B5AB
:1028D0000346002400260025002040F66A17B9426E
:1028E00000D100BF1846C1F3421401F01F060127B2
:1028F00007FA06F5012C01D10C3004E0022C01D1BD
:10290000103000E014301AB107682F43076002E06E
:102910000768AF430760F0BD1AB1838A0B43838217
:1029200002E0838A8B4383827047028A4FF6F073FA
:102930001A400282028A0A430282704782894FF259
:10294000FF731A40828182890A438281704721B1D4
:10295000828942F00202828104E082894FF6FD738F
:102960001A4082817047028A4FF6DF731A40028252
:10297000028A0A430282704721B1028A42F48042ED
:10298000028204E0028A4BF6FF731A40028270470B
:10299000C1F308028280704701468888C0F30800AE
:1029A0007047818941F0010181817047028BD2B269
:1029B0000283028B42EA012202837047028B02F4F7
:1029C0007F420283028B0A430283704721B1828ACD
:1029D00042F02002828204E0828A4FF6DF731A40BE
:1029E0008282704721B1828A42F01002828204E022
:1029F000828A4FF6EF731A408282704721B1828A31
:102A000042F00802828204E0828A4FF6F7731A408D
:102A10008282704721B1828942F40042828103E0C0
:102A20008289C2F30E028281704721B1828A42F408
:102A30000062828204E0828A4FF2FF731A4082822F
:102A40007047828A4FF6FB731A408282828A0A4359
:102A50008282704721B1828A42F00202828204E0BF
:102A6000828A4FF6FD731A40828270470246002028
:102A7000B1F5007F00D100BF13880B400BB10120DE
:102A800000E00020704701F40072B2F5007F00D131
:102A900000BFCA430280704770B50246002400237D
:102AA0000025002040F66A16B14200D100BFC1F3F4
:102AB000421501F01F03012606FA03F3012D02D18E
:102AC0009689334006E0022D02D1168A334001E098
:102AD000968A33400C12012606FA04F41688344014
:102AE00013B10CB1012000E0002070BD10B5002230
:102AF000002340F66A14A14200D100BF0A1201244B
:102B00009440A3B2DC43048010BD000000380140B3
:102B10000044004000480040004C0040005000408D
:102B200023A01FF059FB0AF00EFF14E020202649D5
:102B3000086026A01FF050FB4FF4FA7007F086F9EA
:102B400020202149091F086027A01FF045FB4FF4F2
:102B5000FA7007F07BF9E9E710B54FF44070FDF724
:102B60003FFC00F0E3FB00F06FF802F0C3FC02F062
:102B700017FD02F042FD00F009FC10BD1CB5012458
:102B8000FFF7EAFF00200A2103466202CDE90010A8
:102B90001DA11E4806F0D8FE0446012C02D107F004
:102BA00000FC02E04FF0FF301CBD00BFFEE700005C
:102BB000D2B0BBF0656D58475549D1DDCABEC0FDE6
:102BC000B3CC0A0A00000000140C01405465737471
:102BD0005F5461736B2052756E6E696E672C4C4545
:102BE00044315F4F4E0D0A00546573745F54617336
:102BF0006B2052756E6E696E672C4C4544315F4F89
:102C000046460D0A0000000067756900212B000888
:102C100070470AA01FF0E0FA00BFFEE700BFFEE722
:102C200000BFFEE700BFFEE7704710B507F060FD8C
:102C3000012801D008F068FA10BD000048617264F4
:102C40004661756C740A000000B585B0012104204E
:102C5000FEF780FB01218803FEF77CFB4FF4007038
:102C6000ADF8100018208DF8130003208DF8120025
:102C700004A94F48FEF7B2F84FF48060ADF8100099
:102C800004208DF8130004A94948FEF7A7F84FF473
:102C9000E13000900020ADF80400ADF80600ADF87A
:102CA0000800ADF80C000C20ADF80A006946414858
:102CB000FFF775FD01213F48FFF7FDFD05B000BDA1
:102CC00070B504460D4629462046FFF761FE00BF59
:102CD00080212046FFF7CAFE0028F9D070BD2DE9FB
:102CE000F04107460D461646002405E0295D3846AA
:102CF000FFF7E6FF601CC4B2B442F7DB00BF40211F
:102D00003846FFF7B3FE0028F9D0BDE8F08170B572
:102D100006460C46002500BF615D3046FFF7D0FF38
:102D20006D1C605D0028F7D100BF40213046FFF7E1
:102D30009DFE0028F9D070BD2DE9F04105460C46F6
:102D4000260AE7B231462846FFF722FE00BF80215F
:102D50002846FFF78BFE0028F9D039462846FFF7B2
:102D600017FE00BF80212846FFF780FE0028F9D01B
:102D7000BDE8F08170B504460D46E1B20D48FFF79D
:102D800007FE00BF80210B48FFF770FE0028F9D036
:102D9000204670BD10B5044600BF20210548FFF74E
:102DA00065FE0028F9D00348FFF7F6FD10BD0000CE
:102DB000000801400038014010B5F7A01FF00CFAE0
:102DC000002010BD10B504464FF48050FC49086047
:102DD00009E0FB490868411EF94A116018B9FFF77C
:102DE000EBFFC0B210BD0221F648FEF750FD0028EF
:102DF000EFD02146F348FEF7F7FC4FF48050F0493E
:102E0000086009E0EE490868411EED4A116018B9F2
:102E1000FFF7D2FFC0B2E5E70121EA48FEF737FD30
:102E20000028EFD0E748FEF7E1FCC0B2DAE72DE971
:102E3000F04100240025002600271021E248FEF77B
:102E40007CF89F20FFF7BEFFFF20FFF7BBFF054682
:102E5000FF20FFF7B7FF0646FF20FFF7B3FF074647
:102E60001021D948FEF767F8280440EA062040EA16
:102E700007042046BDE8F08100B587B000BF00BF61
:102E800001210803FEF766FA01210420FEF762FA29
:102E90001020ADF8040003208DF8060010208DF8F6
:102EA000070001A9C848FDF799FF01210420FEF79A
:102EB00051FA2020ADF8040018208DF8070001A970
:102EC000C148FDF78BFF01210420FEF743FA4020A3
:102ED000ADF8040001A9BC48FDF780FF01210420E2
:102EE000FEF738FA8020ADF8040001A9B648FDF7D6
:102EF00075FF1021B448FEF71EF80020ADF8080059
:102F00004FF48270ADF80A000020ADF80C000220EA
:102F1000ADF80E000120ADF810004002ADF812002F
:102F20000020ADF81400ADF816000720ADF8180029
:102F300002A9A448FEF782FB0121A248FEF723FC68
:102F4000FFF775FFA149884202D1012007B000BDFB
:102F50000020FBE710B5002410219B48FDF7EDFF92
:102F60000520FFF72FFF4FF480509549086000BF00
:102F7000FF20FFF727FF044691490868411E904A49
:102F8000116010B9FFF718FF10BD04F00100002810
:102F9000EED110218C48FDF7CEFF00BFF4E710B54D
:102FA00010218948FDF7C9FF0620FFF70BFF10210C
:102FB0008548FDF7C0FF10BD10B50446FFF7EFFFD1
:102FC000FFF7C8FF10218048FDF7B7FF2020FFF76B
:102FD000F9FEC4F30740FFF7F5FEC4F30720FFF73F
:102FE000F1FEE0B2FFF7EEFE10217748FDF7A3FFF8
:102FF000FFF7B0FF10BD10B5FFF7D1FF10217248E9
:10300000FDF79BFFC720FFF7DDFE10216E48FDF79F
:1030100092FFFFF79FFF10BD70B505460C461646A0
:10302000FFF7BDFF10216848FDF787FF0220FFF77B
:10303000C9FEC4F30740FFF7C5FEC4F30720FFF73E
:10304000C1FEE0B2FFF7BEFEB6F5807F01DD4FF4B2
:10305000807603E02878FFF7B5FE6D1C301EA6F1E0
:1030600001018EB2F6D110215748FDF764FFFFF73A
:1030700071FF70BD2DE9F05F07460E4614464FF014
:103080000008C146C2460025AB4606F0FF0ACAF159
:103090000000C5B22046E11704EB1161C1F3072817
:1030A000E11704EB11610912A4EB012101F0FF0902
:1030B000BAF1000F20D1B8F1000F05D122463146F8
:1030C0003846FFF7A9FF64E009E04FF4807231460B
:1030D0003846FFF7A1FF06F5807607F58077B8F14F
:1030E0000000A8F1010101F0FF08EED14A46314687
:1030F0003846FFF791FF4CE0B8F1000F18D1A94511
:1031000010DDA9EB050000F0FF0B2A4631463846DA
:10311000FFF782FF2E442F445A4631463846FFF7C8
:103120007BFF36E0224631463846FFF775FF30E038
:10313000601B84B22046E11704EB1161C1F307283C
:10314000E11704EB11610912A4EB012101F0FF0961
:103150002A4631463846FFF75FFF2E442F4409E0E8
:103160004FF4807231463846FFF756FF06F58076F9
:1031700007F58077B8F10000A8F1010101F0FF0820
:10318000EED1B9F1000F04D04A4631463846FFF778
:1031900043FF0120BDE8F09F3C3C2D464C41534885
:1031A0002D4552524F522D3E3E20535049205469D6
:1031B0006D656F7574206572726F72210A00000070
:1031C0002800002000300140000801401740EF00B7
:1031D00070B505460C46164610215148FDF7ADFE68
:1031E0000320FFF7EFFDC4F30740FFF7EBFDC4F347
:1031F0000720FFF7E7FDE0B2FFF7E4FD04E0FF2062
:10320000FFF7E0FD28706D1C301EA6F10106F6D117
:1032100010214348FDF78FFE70BD10B5002410212A
:103220003F48FDF78AFEAB20FFF7CCFDFF20FFF7FC
:10323000C9FDFF20FFF7C6FDFF20FFF7C3FDFF20FC
:10324000FFF7C0FD044610213548FDF774FE204607
:1032500010BD10B5044610213148FDF76EFE032065
:10326000FFF7B0FDC4F30740FFF7ACFDC4F3072040
:10327000FFF7A8FDE0B2FFF7A5FD10BD10B5FF20D8
:10328000FFF7A0FD10BD10B504464FF4805025494E
:10329000086008E023490868411E224A116010B9FD
:1032A000FFF78AFD10BD02211F48FEF7F0FA002843
:1032B000F0D021461C48FEF797FA4FF48050194988
:1032C000086008E017490868411E164A116010B9E5
:1032D000FFF772FDE6E701211348FEF7D8FA002850
:1032E000F0D01148FEF782FADCE710B510210C4847
:1032F000FDF723FEB920FFF765FD10210848FDF713
:103300001AFE10BD10B510210548FDF716FEAB20C2
:10331000FFF758FD10210248FDF70DFE10BD00001B
:1033200000080140280000200030014008B50121BC
:103330000820FEF70FF82020ADF8000010208DF8CF
:10334000030003208DF8020069460F48FDF746FD93
:103350000120ADF8000069460B48FDF73FFD022053
:10336000ADF8000069460848FDF738FD2021064801
:10337000FDF7E1FD01210448FDF7DDFD02210248D2
:10338000FDF7D9FD08BD0000000C014008B5012182
:103390001420FDF7DFFF0120ADF8000004208DF8B8
:1033A000030069461148FDF719FD4FF40050ADF8D0
:1033B000000004208DF8030069460D48FDF70EFD5E
:1033C00008BD70B504460D4629462046FDF799FD17
:1033D000012808D100BF29462046FDF792FD0128AB
:1033E000F9D0012070BD0020FCE70000000801407A
:1033F0000010014008B50020FEF73BF80020FEF762
:103400003BF8FEF70BF800214FF48060FDF795FFC5
:103410004FF4F850ADF8000004208DF80300694621
:10342000FC48FDF7DBFC0420ADF800006946FA48D3
:10343000FDF7D4FC08BD08B54FF44070FCF7D0FF91
:1034400031208DF8000000208DF801008DF8020079
:1034500001208DF803006846FCF7C7FF08BD10B5D2
:10346000EE48FDF713F910BD30B58BB005460C469C
:10347000EB48FDF71FF90021EA48FDF7ECF8EA48B0
:103480000090019500200290A00803900020049075
:103490008020059080000690800007900020089012
:1034A0004FF40050099000200A906946DD48FDF76E
:1034B000A7F80121DB48FDF7CEF80BB030BD30B5E1
:1034C0008BB005460C46D648FDF7F4F80021D548E8
:1034D000FDF7C1F8D4480090019510200290A00893
:1034E00003900020049080200590800006908000CA
:1034F0000790002008904FF40050099000200A9097
:103500006946C848FDF77CF80121C648FDF7A3F8D5
:103510000BB030BD08B501213020FDF71BFF4FF483
:10352000F850ADF8000003208DF8020018208DF847
:1035300003006946B748FDF751FC0420ADF80000D0
:103540006946B548FDF74AFC01218802FDF7F5FE02
:1035500001210220FDF7F1FE08BD014600BFB2487F
:103560008038406B00F045000028F8D040F2FF5052
:10357000AD4A803A90631046406908221040C0B2BC
:1035800070472DE9FC4107460D4600260024002027
:10359000009001900820A549086010204860402054
:1035A00088600020C8604FF4806008610846FDF71D
:1035B00083FF1020FFF7D1FF044614B12046BDE879
:1035C000FC819B48008800049849086037204860C7
:1035D000402088600020C8604FF480600861084681
:1035E000FDF76AFF3720FFF7B8FF04460CB120460D
:1035F000E5E74FF0FF308F49086008204860302031
:1036000088600220C86000200861012048610846E7
:10361000FDF77BFF0020854908603320486040208B
:1036200088600020C8604FF4806008610846FDF79C
:1036300043FF3320FFF791FF04460CB12046BEE75D
:103640000CE04FF40010FDF7AEFF38B1FDF77FFF3F
:103650004DF82600761C012E00D907E0724880380C
:10366000406B40F22A6108400028EAD000BF0820E1
:10367000FDF799FF28B10820FDF79FFF042420469D
:103680009DE70220FDF78FFF28B10220FDF795FF8F
:103690000224204693E72020FDF785FF28B1202053
:1036A000FDF78BFF0624204689E74FF40070FDF7F5
:1036B0007AFF30B14FF40070FDF77FFF07242046FA
:1036C0007DE740F2FF50FDF778FF00980006009973
:1036D00001F47F4140EA0120009901F47F0140EAB2
:1036E0001120009940EA1160686001980006019974
:1036F00001F47F4140EA0120019901F47F0140EA91
:103700001120019940EA11602860204657E77CB5F6
:1037100005460024002000900190FDF7EBFE00F02C
:10372000007010B10E2420467CBD4149098888B242
:103730006946FFF726FF04460CB12046F4E7012D49
:1037400036D1019800F4802000282ED03848008817
:103750000004364908603720486040208860002017
:10376000C860A80208610846FDF7A6FE3720FFF7EB
:10377000F4FE04460CB12046D6E702202B4908602F
:1037800006204860402088600020C8604FF48060B8
:1037900008610846FDF790FE0620FFF7DEFE0446AE
:1037A0000CB12046C0E72046BEE725242046BBE7F3
:1037B000019800F48030F8B31D48008800041B49CC
:1037C000086037204860402088600020C8604FF4BF
:1037D000806008610846FDF76FFE3720FFF7BDFEE9
:1037E00004460CB120469FE70020104908600620DF
:1037F0004860402088600020C8604FF48060086105
:103800000846FDF759FE0620FFF7A7FE0446A4B1BF
:10381000204689E7001001400014014000200010FC
:1038200000F000104404024080800140A80A0020FB
:1038300030000020BC0A002001E0204674E7252467
:10384000204671E770B504460025FA480068032851
:1038500002D12725284670BDF648006838B1F548E2
:103860000068012803D0F348006802282ED1B4F57F
:10387000805F02D127252846EDE7B4F5006F14D10B
:103880000120FFF744FF054605BB0420EA490875FF
:1038900000200860486088604FF40060C860002025
:1038A00008610846FDF7C8FD10E00020FFF72FFF74
:1038B00005465DB90420E0490875002008604860AD
:1038C0008860C86008610846FDF7B6FD2846C2E773
:1038D00070B504460025D94804600720D7494860E0
:1038E000402088600020C8604FF48060086108466E
:1038F000FDF7E2FD0720FFF730FE0546284670BDC4
:10390000F0B5014600200022CA4B1B7881F85630E2
:10391000CB4B1B88A1F85430CA4B1B681A0E930975
:103920000B70C2F383034B7002F003038B70C54B23
:103930001B68C3F30742CA70C24B1B88C3F307223C
:103940000A71C04B1A784A715B681A0E1301CB805A
:10395000BC4B5B68C3F30742CB8843EA1213CB80AE
:1039600002F00F030B72B74B9B88C3F30722D309F6
:103970004B72C2F380138B72C2F34013CB72C2F34B
:1039800000130B7300234B73AA4B1B681BB1A94B8D
:103990001B68012B4FD193071B0D0B61A94B1A79A3
:1039A0000B6943EA82030B61A64B9B681A0E0B69F5
:1039B00043EA92130B61C2F3C2030B7502F00703D3
:1039C0004B75A04B9B68C3F3074253098B75C2F339
:1039D0008203CB7593075B0F0B769A4B1B89C3F35E
:1039E00007220B7E43EAD2130B760B695B1C002483
:1039F000C1E912340B7ED1E912649B1C012505FA42
:103A000003F3DF17A6FB035C04FB03C306FB0733CA
:103A1000C1E912530C7A0123A3400B650027D1E9B9
:103A200012560B6DA5FB034C06FB03C305FB0733C6
:103A3000C1E912432DE07F4B1B68022B29D1814B3A
:103A40001A7993069B0A0B617E4B9B681A0E0B69D1
:103A500043EA02230B617B4B9B68C3F307420B696C
:103A600013430B61774B1B89C3F307220B695B1C64
:103A70004FF40074A3FB04344FF480660025A3FBCD
:103A8000067C04FB06C403FB0543C1E912737310F3
:103A90000B65C2F3801301F8193F93065B0E4B7060
:103AA000684B1A7A4B7843EAD2134B7002F07F03CB
:103AB0008B70644BDB681A0ED309CB70C2F34113D1
:103AC0000B71C2F382034B7193071B0F8B715D4B1C
:103AD000DB68C3F307428B7943EA92138B71C2F31D
:103AE0004013CB7100230B7202F001034B72554B54
:103AF0009B89C3F30722D3098B72C2F38013CB7265
:103B0000C2F340130B73C2F300134B73C2F3810370
:103B10008B7302F00303CB734A4B1A7B53080B746D
:103B200001234B74484B1B681A0ECA741939464B53
:103B30001B68C3F307421402CC85434B1B88C3F3B5
:103B40000722CB8D1343CB853F4B1A7814060C63A9
:103B50005B681A0E0B6B43EA02440C633A4B5B68DA
:103B6000C3F307420B6B43EA02240C63364B9B887A
:103B7000C3F307220B6B13430B63334B1A793423C4
:103B80005A54314B9B681A0E35235A542E4B9B685E
:103B9000C3F3074214068C632B4B1B89C3F3072224
:103BA0008B6B43EA02448C63274B1A7A8B6B43EA94
:103BB00002248C63244BDB681A0E8B6B13438B63DC
:103BC000214BDB68C3F307423C235B5C43EA1214DE
:103BD0003C235C5413071C0DCC871B4B9B89C3F300
:103BE0000722CB8F1343CB87174B1A7B54084023F4
:103BF0005C54012441235C54F0BD70B5002513488A
:103C0000446B01E01148446B04F045000028F9D0F2
:103C100004F0040028B103250420FDF7CEFC28465B
:103C200070BD04F0010098B101250120FDF7C5FC2D
:103C30002846F5E72C000020900A0020A80A002062
:103C400030000020080A0020180A002000800140EF
:103C500040F2FF50FDF7B1FC2846E1E72DE9F041C5
:103C600006460F464FF00008FA48456B01E0F94858
:103C7000456B05F045000028F9D005F0040038B187
:103C80004FF003080420FDF798FC4046BDE8F081A2
:103C900005F0010030B14FF001080120FDF78DFC67
:103CA0004046F3E7FDF722FCB04203D04FF0100886
:103CB0004046EBE740F2FF50FDF77FFC0020FDF7A8
:103CC00019FC044604F4604018B9200C38804046C2
:103CD000DCE704F4005008B11320D7E704F4804077
:103CE00008B11020D2E704F4004008B10F20CDE75E
:103CF0004046CBE738B5002401200090FDF7C7FB14
:103D000010B92524204638BDD3480068042828D09F
:103D10000020D249086002204860C020886000204E
:103D2000C8604FF4806008610846FDF7C5FBFFF7E7
:103D300064FF04460CB12046E5E70020FDF7DAFBFE
:103D4000C74908600420FDF7D5FBC5494860082035
:103D5000FDF7D0FBC24988600C20FDF7CBFBC049C2
:103D6000C860BD48006858B1BB480068012807D04A
:103D7000B9480068062803D0B7480068022816D161
:103D80000020B64908600320486040208860002079
:103D9000C8604FF4806008610846FDF78DFB6946F6
:103DA0000320FFF75BFF04460CB12046ABE7AA48AF
:103DB000006804282ED0BDF80000AA490860BDF8AC
:103DC00000000004A549086009204860C020886000
:103DD0000020C8604FF4806008610846FDF76CFB66
:103DE000FFF70BFF04460CB120468CE70020FDF7DF
:103DF00081FB9D4908600420FDF77CFB9A494860DF
:103E00000820FDF777FB984988600C20FDF772FBCE
:103E10009549C8600024204675E770B500258D4897
:103E2000446B01E08B48446B04F045000028F9D056
:103E300004F0040028B103250420FDF7BEFB28464A
:103E400070BD40F2FF50FDF7B8FB2846F8E770B5AB
:103E500000264FF480357F48446B02E06D1E7D489C
:103E6000446B04F0450008B9002DF7D115B104F0FA
:103E7000040028B103260420FDF79FFB304670BDE7
:103E800004F0400028B100264020FDF796FB3046A4
:103E9000F5E73046F3E770B500254FF4803400E0D5
:103EA000641E24B18020FDF77EFB0028F8D014B9F1
:103EB0000325284670BD40F2FF50FDF77EFB2846E3
:103EC000F8E72DE9F0410024002600250027A04650
:103ED000B220664908750020086048608860C860A4
:103EE00008610846FDF7A8FA0320FDF7C5FA01208E
:103EF000FDF7BFFA00205949086048608860C86033
:103F00004FF4806008610846FDF7D6FAFFF7C3FF5B
:103F1000044614B12046BDE8F0814FF4D5704F49F6
:103F2000086008204860402088600020C8604FF486
:103F3000806008610846FDF7BFFAFFF788FF044676
:103F40002CB90120444908604FF0804812E000205D
:103F50004249086037204860402088600020C860DF
:103F60004FF4806008610846FDF7A6FA3720FFF796
:103F7000F4FA0446002039490860372048604020A0
:103F800088600020C8604FF4806008610846FDF733
:103F900093FA3720FFF7E1FA0446002C4AD136E0C5
:103FA00000202E49086037204860402088600020AB
:103FB000C8604FF4806008610846FDF77DFA37203D
:103FC000FFF7CBFA04460CB12046A4E7284848EA9C
:103FD00000002249086029204860402088600020B5
:103FE000C8604FF4806008610846FDF765FAFFF786
:103FF00014FF04460CB120468DE70020FDF77AFA45
:104000000646012080EAD67080F001076D1C1FB9BA
:104010004FF6FF708542C3D34FF6FF70854202D33F
:104020001B24204677E706F08040061E02D00220BF
:104030000949086020466EE710B50024FFF7FBF938
:10404000FFF768FAFDF7EAF9FFF73BFF04468CB18A
:10405000204610BD008001402C000020A80A00204E
:10406000180A002030000020080A0020900A0020D2
:1040700000001080FFF73EFE04460CB12046E8E742
:104080000420FD4908750020086048608860C86009
:1040900008610846FDF7D0F91CB9F848FFF730FC75
:1040A000044634B9F549B1F854100804FFF710FC80
:1040B000044624B94FF40060FFF7C4FB04462046D1
:1040C000C7E770B504460025ED4800880004ED49B7
:1040D000886040F24D40C8600D20FFF73EFA05466B
:1040E0000DB1284670BDE748406920602846F9E7D1
:1040F00008B5002000906846FFF7E3FF08B1FF20F5
:1041000008BD0098C0F34320FAE710B50424FFF778
:10411000EFFF0446042C01D1002010BDFF2C01D17B
:104120000220FAE70120F8E710B500240020FDF78F
:10413000A3F9204610BD70B50446002500260020D6
:10414000FDF7D8F900F0007010B10E25284670BDBB
:104150004020CD4908601020486040208860002041
:10416000C8604FF4806008610846FDF7A5F910208B
:10417000FFF7F3F905460DB12846E8E7C048008887
:104180000004C14908603720486040208860002052
:10419000C8604FF4806008610846FDF78DF937204C
:1041A000FFF7DBF905460DB12846D0E74FF0FF30A9
:1041B000B649086040204860602088600220C860DE
:1041C00000200861012048610846FDF79EF90020A3
:1041D000AD4908600D204860402088600020C8601C
:1041E0004FF4806008610846FDF766F90D20FFF77F
:1041F000B4F905460DB12846A9E70EE04FF400409A
:10420000FDF7D1F948B1002604E0FDF7A0F944F824
:104210002600761C082EF8D320349A48406B40F2D2
:104220002A6108400028E9D00820FDF7BCF928B130
:104230000820FDF7C2F90425284688E70220FDF78B
:10424000B2F928B10220FDF7B8F9022528467EE729
:104250002020FDF7A8F928B12020FDF7AEF90625AA
:10426000284674E74FF40070FDF79DF930B14FF424
:104270000070FDF7A2F90725284668E703E0FDF77F
:1042800066F92060241D4FF40010FDF78CF900281A
:10429000F5D140F2FF50FDF790F9284657E770B589
:1042A0000446002600257A48FFF745FF06460EB172
:1042B000304670BD764800788509257074480078CE
:1042C000C0F3401565707248857828026080704898
:1042D000C5786088284360806D480579280660604D
:1042E0006B484579606840EA0540606068488579B8
:1042F000606840EA052060606548C57960682843C9
:1043000060606348057A2572457A6572807A05098E
:10431000A5725F48C57A2802A0815D48057BA08907
:104320002843A0815A48407B8508A5735848407BA4
:1043300000F00305E5733046BBE72DE9F041804608
:1043400014461D46069E0027002052490870524917
:104350000860524908604B49C86251480068022809
:1043600008D10602020200232046294613F0DDF898
:1043700004460D46444806601020434948604020EA
:1043800088600020C8604FF4806008610846FDF72F
:1043900093F81020FFF7E1F8074617B13846BDE85B
:1043A000F0814FF0FF3039490860084646609020A0
:1043B00088600220C860002008610120486108462A
:1043C000FDF7A3F83048046011202F4948604020D1
:1043D00088600020C8604FF4806008610846FDF7DF
:1043E0006BF81120FFF7B9F807460FB13846D6E74A
:1043F00001210802FDF750F80120FDF75AF8314677
:104400004046FFF731F83846C9E72DE9F0478146C5
:1044100014461D46DDE90868002700201D49087084
:104420001D49086001201D49086000201549C86227
:104430001B480068022808D1060202020023204619
:10444000294613F072F804460D460F480660102006
:104450000D494860402088600020C8604FF48060AB
:1044600008610846FDF728F81020FFF776F80746A0
:10447000C7B13846BDE8F087900A0020380A00200E
:104480003000002000800140A80A0020BC0A002063
:10449000280A0020380000203C00002034000020C2
:1044A0002C0000204FF0FF30F949086008FB06F0AF
:1044B0004860902088600220C860002008610120C8
:1044C00048610846FDF721F8F24804601220F149DE
:1044D0004860402088600020C8604FF48060086118
:1044E0000846FCF7E9FF1220FFF737F8074617B137
:1044F0003846BDE8F08701210802FCF7CDFF012016
:10450000FCF7D7FF08FB06F14846FEF7ADFF38463B
:10451000EFE710B5002400BFFEF7A1FF30B9DE4879
:10452000006818B9DD4800780028F5D0DB4800782D
:1045300010B1DA48007810BD2046FCE72DE9F041C3
:10454000804614461D46069E00270020D349087069
:10455000D1490860D2490860D249C862D24800688F
:10456000022808D10602020200232046294612F042
:10457000DCFF04460D46C74806601020C549486068
:10458000402088600020C8604FF4806008610846C1
:10459000FCF792FF1020FEF7E0FF074617B1384600
:1045A000BDE8F081BB4804601820BA49486040204B
:1045B00088600020C8604FF4806008610846FCF7FE
:1045C0007BFF1820FEF7C9FF07460FB13846E7E723
:1045D0004FF0FF30AE490860084646609020886082
:1045E0000020C8600861012048610846FCF78DFF83
:1045F00001210802FCF750FF31464046FEF75FFFFD
:104600000120FCF756FF3846CAE72DE9F8438146FA
:1046100015461E46DDE908780024002000909F49D9
:1046200008709D49086001209D49086000209D494F
:10463000C8629D480068022808D1070202020023D0
:104640002846314612F071FF05460E469148076034
:10465000102090494860402088600020C8604FF4D6
:10466000806008610846FCF727FF1020FEF775FF01
:10467000044614B12046BDE8F8838C480088000445
:104680008449086037204860402088600020C86066
:104690004FF4806008610846FCF70EFF3720FEF7F4
:1046A0005CFF04460CB12046E5E77A48C0F800807C
:1046B000172078494860402088600020C8604FF487
:1046C000806008610846FCF7F7FE1720FEF745FFFB
:1046D00004460CB12046CEE76E48056019206D49AE
:1046E0004860402088600020C8604FF48060086106
:1046F0000846FCF7E1FE1920FEF72FFF04460CB137
:104700002046B8E74FF0FF306149086008FB07F02A
:104710004860902088600020C860086101204861DE
:104720000846FCF7F2FE01210802FCF7B5FE012065
:10473000FCF7BFFE08FB07F14846FEF7C0FE204627
:1047400099E710B5002400BFFEF789FE30B9524842
:10475000006818B9514800780028F5D04F48007813
:1047600010B14E48007810BD40F2FF50FCF725FF15
:104770002046F8E74B48406B00F4405008B1012058
:1047800070470020FCE710B50024002045498860F0
:1047900040F24C40C8600C20FEF7DFFE0446204685
:1047A00010BD7CB5044600250020019000903F48D4
:1047B00000880004374908600D2048604020886068
:1047C0000020C8604FF4806008610846FCF774FE62
:1047D0003448406B009002E03248406B00900098F3
:1047E00000F045000028F7D0009800F0040028B140
:1047F00003250420FCF7E1FE28467CBD009800F06C
:10480000010028B101250120FCF7D7FE2846F4E776
:10481000FCF76CFE009000980D2802D01025284669
:10482000EBE740F2FF50FCF7C8FE0020FCF762FE09
:1048300001900198C0F3432020701D490198084061
:1048400008B92846D9E7019800F0004008B11C20BB
:10485000D3E7019800F0804008B10920CDE7019826
:1048600000F0005008B10A20C7E7019800F080501E
:1048700008B10B20C1E7019800F0006008B10C20DE
:10488000BBE7019800F08060A0B10D20B5E7000003
:10489000BC0A0020A80A00203C00002038000020AC
:1048A00034000020008001402C0000203000002057
:1048B00008E0FFFD019800F0807008B10E209CE731
:1048C000019800F4000008B10F2096E7019800F469
:1048D000800008B1102090E7019800F4001008B1A2
:1048E00011208AE7019800F4801008B1122084E7B3
:1048F000019800F4002008B113207EE7019800F42D
:10490000802008B1142078E7019800F4003008B145
:10491000152072E7019800F4803008B116206CE78A
:10492000019800F4004008B1172066E7019800F4F0
:10493000804008B1182060E7019800F4005008B1E9
:1049400019205AE7019800F0080008B11A2054E72E
:10495000284652E72DE9FC4105460E460024002773
:104960000020019000905C484068202101EA10502E
:1049700018B925242046BDE8FC8158484068C0B2DB
:10498000801C5749B1FBF0F001900020FCF7B2FD0C
:1049900000F0007010B10E242046ECE7514800688A
:1049A000022801D16D0A760A4E48006838B14D4898
:1049B0000068012803D04B48006802282BD14A48E0
:1049C0000560202048494860402088600020C86079
:1049D0004FF4806008610846FCF76EFD2020FEF76A
:1049E000BCFD04460CB12046C5E73F4806602120C7
:1049F0003D494860402088600020C8604FF48060D6
:104A000008610846FCF758FD2120FEF7A6FD044684
:104A10000CB12046AFE700203349086026204860EB
:104A2000402088600020C8604FF48060086108461C
:104A3000FCF742FD2620FEF790FD04460CB120460F
:104A400099E7002700E07F1C01988742FBD3684666
:104A5000FFF7A7FE044603E06846FFF7A2FE044600
:104A60003CB99DF800000728F6D09DF80000062804
:104A7000F2D020467FE710B51C48006801280BD112
:104A800000201649886040F24C40C8600C20FEF7B8
:104A900064FD1749087002E00020154908704FF4C2
:104AA0008070FCF797FD00214FF48070FCF7F4FC58
:104AB0000120104908600E48007810BD0146002012
:104AC00002E04910421CD0B20129FAD1704710B55A
:104AD000FFF7D1FF10BD0000080A00200080014050
:104AE000C0D401002C000020A80A002034000020BF
:104AF000380000203C00002008B508E06421009147
:104B000002E00099491E009100990029F9DC011E7C
:104B1000A0F10100F2D108BD30B52A244FF0D845EC
:104B20002C800412FA4D2C802C46208014122C80EC
:104B30002C4622802B244FF0D8452C800C12F44DAB
:104B40002C802C4621801C122C802C4623802C2467
:104B50004FF0D8452C8030BD38B52A244FF0D845C9
:104B60002C800412EA4D2C802C46208014122C80BC
:104B70002C4622802B244FF0D8452C800C12E44D7B
:104B80002C802C4621801C122C802C4623802E2425
:104B90004FF0D8452C80DE4C2488009400240094EB
:104BA00004E0BDF80040641CA4B20094BDF80040CD
:104BB000022CF6DB38BD10B5C308DB028C0843EAD3
:104BC000441343EAD203D24C238010BDD04801885D
:104BD00002880812C008C002C1F3850340EA4310EE
:104BE000131240EAD300704730B5C94D2B882C888A
:104BF0001D1205700B702512157030BD10B50446DE
:104C000034B1012C0CD0022C12D0032C20D117E08F
:104C1000362000F0D7FA682000F0D8FA012010BD45
:104C2000362000F0CFFA282000F0D0FA0120F6E775
:104C3000362000F0C7FA882000F0C8FA0120EEE71D
:104C4000362000F0BFFAE82000F0C0FA0120E6E7C5
:104C50000020E4E710B53220FFF74EFF10BD10B57D
:104C6000FFF7F8FFCF2000F0ADFA002000F0AEFA19
:104C7000812000F0ABFA302000F0A8FAFFF7EAFF3D
:104C8000ED2000F09FFA642000F0A0FA032000F06D
:104C90009DFA122000F09AFA812000F097FAFFF7AF
:104CA000D9FFE82000F08EFA852000F08FFA10205E
:104CB00000F08CFA782000F089FAFFF7CBFFCB20C8
:104CC00000F080FA392000F081FA2C2000F07EFA02
:104CD000002000F07BFA342000F078FA022000F087
:104CE00075FAFFF7B7FFF72000F06CFA202000F00C
:104CF0006DFAFFF7AFFFEA2000F064FA002000F041
:104D000065FA002000F062FAFFF7A4FFB12000F07E
:104D100059FA002000F05AFA1B2000F057FAFFF76A
:104D200099FFB62000F04EFA0A2000F04FFAA220B8
:104D300000F04CFAFFF78EFFC02000F043FA252068
:104D400000F044FAFFF786FFC12000F03BFA102084
:104D500000F03CFAC52000F035FA452000F036FAA4
:104D6000452000F033FAC72000F02CFAA22000F012
:104D70002DFAF22000F026FA002000F027FA262073
:104D800000F020FA012000F021FAFFF763FFE02095
:104D900000F018FA0F2000F019FA262000F016FA99
:104DA000242000F013FA0B2000F010FA0E2000F07F
:104DB0000DFA092000F00AFA542000F007FAA820A2
:104DC00000F004FA462000F001FA0C2000F0FEF991
:104DD000172000F0FBF9092000F0F8F90F2000F08F
:104DE000F5F9072000F0F2F9002000F0EFF9E120DA
:104DF00000F0E8F9002000F0E9F9192000F0E6F9E8
:104E00001B2000F0E3F9042000F0E0F9102000F08E
:104E1000DDF9072000F0DAF92A2000F0D7F9472061
:104E200000F0D4F9392000F0D1F9032000F0CEF9D8
:104E3000062000F0CBF9062000F0C8F9302000F081
:104E4000C5F9382000F0C2F90F2000F0BFF9FFF7D4
:104E500001FF362000F0B6F9C82000F0B7F9FFF7DF
:104E6000F9FE2A2000F0AEF9002000F0AFF9002092
:104E700000F0ACF9002000F0A9F9EF2000F0A6F94D
:104E8000FFF7E8FE2B2000F09DF9002000F09EF9CE
:104E9000002000F09BF9012000F098F93F2000F07D
:104EA00095F9FFF7D7FE3A2000F08CF9552000F075
:104EB0008DF9112000F086F9FFF7CCFE292000F0D3
:104EC00081F910BDF0B504460D4616461F463B4617
:104ED000324629462046FFF71FFEF0BDF0B50446D6
:104EE0000D4616461F463B46324629462046FFF7EA
:104EF00033FEF0BD01F00702082A1DD2DFE802F000
:104F00001C040A0D1013161921F007012DE00000F2
:104F1000FEFFFF6F21F0070124E021F007011EE0F2
:104F200021F0070118E021F0070112E021F007014C
:104F30000CE021F0070106E000BF00BF17E00839D0
:104F4000A44A108000BFA34A108000BFA14A10806D
:104F500000BFA04A108000BF9E4A108000BF9D4A3B
:104F6000108000BF9B4A108000BF9A4A1080002921
:104F7000E5DC704701F00702082A1AD2DFE802F0E8
:104F80001904070A0D10131621F0070138E021F06B
:104F9000070130E021F0070128E021F0070120E0BF
:104FA00021F0070118E021F0070110E021F00701CE
:104FB00008E000BF00BF27E0083930F8022B854B1E
:104FC0001A8000BF30F8022B824B1A8000BF30F8E5
:104FD000022B804B1A8000BF30F8022B7D4B1A80C9
:104FE00000BF30F8022B7B4B1A8000BF30F8022B39
:104FF000784B1A8000BF30F8022B764B1A8000BF26
:1050000030F8022B734B1A800029D5DC70477149A8
:105010000880704770B504460D461646324629464C
:105020002046FFF7C8FD70BD00B5FFF7CFFD00BDFE
:1050300070B504460D461646324629462046FFF70F
:10504000D3FD70BD2DE9F04706460F4614461D46B8
:10505000DDF820807819401E83B23019401E82B2DC
:1050600039463046FFF758FD04FB05F949464046EE
:10507000FFF740FFBDE8F0872DE9F04F04460D46ED
:1050800016461F46DDF824A04FF00008C14600BFB9
:1050900026E04FF00008D34600BF1BE005EB070CED
:1050A000ACF1010C1FFA8CF304EB060CACF1010C13
:1050B0001FFA8CF205EB090C1FFA8CF104EB080CBB
:1050C0001FFA8CF0FFF748FDFFF780FD2BF8020B6D
:1050D00008F10108B045E1DB0A98824409F10109B1
:1050E000B945D6DBBDE8F08F2DE9F05F81460C466F
:1050F00015461E46DDE90A8AA019401E83B209EB57
:105100000500401E82B221464846FFF705FDB5EB7B
:105110006A0F0DD0A01986B207E0474629463846E7
:10512000FFF728FFD044601C84B2B442F5DB06E0F0
:10513000474605FB06FB59463846FFF71BFFBDE80F
:10514000F09F08B510208DF8030003208DF80200B1
:105150004020ADF8000069461F48FBF73FFE4FF4C2
:105160000060ADF8000069461B48FBF737FE4FF4BE
:1051700000611948FBF7DFFE322007F0E5FC4FF431
:1051800000611548FBF7D9FE322007F0DDFC4FF433
:1051900000611148FBF7CFFE322007F0D5FCFFF786
:1051A0005EFD0020FFF72AFD08BD10B5044624B1BE
:1051B00040210948FBF7C1FE03E040210648FBF708
:1051C000BAFE10BD4FF0D8410880704701490880F1
:1051D00070470000FEFFFF6F0020014008B501206E
:1051E0008DF8020010208DF803008001ADF800005A
:1051F0006946BC48FBF7F2FD10208DF803008020C3
:10520000ADF800006946B848FBF7E8FD10208DF8BE
:105210000300C001ADF800006946B248FBF7DEFDAF
:1052200048208DF803004020ADF800006946AD48E5
:10523000FBF7D4FD48208DF803004FF40070ADF863
:1052400000006946A748FBF7C9FD012008BD08B565
:1052500008E00021009102E00099491C00910099AA
:105260000229F9DB011EA0F10100F2DC08BD9D4816
:105270000830006800F4007008B901207047002071
:10528000FCE770B50446802097494861002522E07C
:1052900004F0800028B14FF400609249103108609A
:1052A00004E04FF400608F49143108606006040E7A
:1052B0000120FFF7CCFF80208B4948610120FFF7D8
:1052C000C6FF8020884908610120FFF7C0FF8020C9
:1052D000854948616D1C082DDADB70BDF0B50D46BF
:1052E00014466A1C13E050F82230511E05E050F8B5
:1052F00021704E1C40F82670491E002903DB50F82F
:1053000021609E42F3DC4E1C40F82630521CA24223
:10531000E9DDF0BD70B50646002500248020724905
:10532000486100016F491431086040100860304640
:10533000FFF7A7FF0620FFF78AFF80206A49486130
:105340000120FFF784FF8020674908610120FFF7F3
:105350007EFF80206449486100BF16E04FF6FF7071
:1053600000EA44048020604948610120FFF76FFF94
:1053700080205D4908615B480830006800F040000B
:1053800008B144F00104681CC5B2102DE6DB2411FD
:105390004FF48060534910310860204670BD2DE9FC
:1053A000F04107468846002407E09020FFF7B2FF4F
:1053B0004E4941F82400601C84B20C2CF5DB0B2212
:1053C00000214A48FFF78AFF06242146641C47480B
:1053D00030F8210085B2454830F82400284485B2D1
:1053E0006D10002407E0D020FFF794FF3F4941F8FB
:1053F0002400601C84B20C2CF5DB0B2200213B48FE
:10540000FFF76CFF06242146641C384830F8210061
:1054100086B2364830F82400304486B276103D809B
:10542000A8F800600120BDE8F08110B500203049E7
:105430000860FFF7D3FE012010BD10B5FFF717FF7E
:1054400018B101202A49086010BD002028490860D1
:1054500000BFF9E71CB504462548006801280BD1B8
:10546000694601A8FFF79BFFBDF804002060BDF866
:105470000000606001201CBD0020FCE710B5044660
:105480002046FFF7E7FF38B12246F0214FF4A07025
:1054900007F0E1FB012010BD0120FCE710B5044638
:1054A0001020A080E080202020811020608120201A
:1054B000A081E0811020208220206082142200211F
:1054C0002046FDF785FE012010BD10B504460020E2
:1054D0002080FDF771FD142200212046FDF7CAFD52
:1054E000012010BD001C014000200140D40A002012
:1054F0004000002008B501210802FBF71EFF012132
:105500004FF4F070FBF726FF4CF20370ADF800008B
:1055100018208DF8030003208DF8020069465E48CC
:10552000FBF75CFC4FF68070ADF8000069465B4805
:10553000FBF754FC4FF23F00ADF8000069465848B5
:10554000FBF74CFC3F20ADF8000069465548FBF7DF
:1055500045FC4FF46050ADF8000069464E48FBF73B
:105560003DFC3020ADF8000069464B48FBF736FCA7
:105570004FF48060ADF8000069464A48FBF72EFC06
:105580004FF48050ADF8000069464648FBF726FC12
:105590000320ADF8000069464048FBF71FFC08BD3A
:1055A00000B597B0022001900020029002200390E5
:1055B0000020049005900690079004200890002099
:1055C00009900A9010200B9000200C900D900E90E6
:1055D0000F9010904FF48050119000201290139073
:1055E000149001A81590169008A8FBF7DDF801218A
:1055F0000420FBF741FA17B000BD00B59FB00420AE
:10560000ADF8040018208DF8070003208DF806007F
:1056100001A92248FBF7E2FB0120099000200A9033
:1056200001200B9000200C900D900E904FF08050B8
:105630000F9001200290002003900220049000208F
:105640000590069007904FF080500890062010902B
:105650000020119008201290102013900020149028
:1056600015901690179018904FF4805019900020C4
:105670001A904FF480401B9000201C9002A81D90AF
:1056800009A81E9010A8FBF78FF801210620FBF750
:10569000F3F91FB000BD00000014014000180140E4
:1056A000001C01400020014010B500BF5021EFF365
:1056B000118081F31188BFF34F8FBFF36F8F00BF4D
:1056C00004464FF40010FBF700F870B14FF40010DF
:1056D000FAF7F0FF4FF40010FBF70BF800207B49BE
:1056E00008607B48006807F003FA00BF84F3118864
:1056F00000BF10BD10B58CB004467648046001218F
:10570000002007F0CFF97249086001210846FBF735
:1057100014FE0020029001941020039000200490B9
:10572000059006904FF4807007908000089000204C
:1057300009904FF440500A904FF480400B9001A91B
:105740006548FAF75DFF012202216348FAF78FFFEF
:105750004FF40010FAF7AEFF4FF40010FAF7C9FF4C
:1057600010208DF8000005208DF8010000208DF834
:10577000020001208DF803006846FAF736FE0CB0EF
:1057800010BD00BF514800680128FBD070472DE9CB
:10579000F04106460D4614461F464F486C38856753
:1057A000466744E04FF6F070844223DD4A486C3887
:1057B000C06E20F0010048496C39C8664FF6F070A1
:1057C0000867241A01204149086043486C38C06EBC
:1057D00040F0010040496C39C8664FF47A713C488A
:1057E000006807F067F917B33C4805443A486C383D
:1057F00085671CE038486C38C06E20F001003649DF
:105800006C39C86608460467002401202F490860E7
:1058100031486C38C06E40F001002F496C39C866C1
:105820004FF47A712A48006807F044F901E0002C2F
:10583000B8DC00BF28486C38C06E20F00100264953
:105840006C39C866BDE8F08170B505460C46B4F504
:10585000C87F01DA002070BDFFF793FF2048058064
:105860001D486C38C06E20F080001B496C39C8663A
:105870000846C06E20F04000C86600232246184942
:1058800014480068FFF783FF0120E4E770B5054680
:105890000C46B4F5C87F01DA002070BDFFF771FF38
:1058A0000D486C38C06E20F040000B496C39C8665A
:1058B0000846C06E40F08000C86601232246294693
:1058C00004480068FFF763FF0120E6E74800002076
:1058D000440000204C0000206C000240E0FF01006A
:1058E000500000200146012011B1012904D102E03D
:1058F00020F0010002E001E0012000BF00BF70477E
:1059000070B50446012514B1012C09D107E0FEF75A
:1059100093FB10B925F0010500E0012502E001E04C
:10592000012500BF00BF284670BD2DE9F04FADF541
:10593000017D81460C4615461E464FF0040B4FF084
:10594000000AB9F1000F03D0B9F1010F42D140E0D4
:1059500004F00300E8B1002711E02A466D1C012382
:1059600001A90020FFF7E1FF074607B10BE04FF464
:10597000007201A9204611F009FE04F50074301EE2
:10598000A6F10106E9D100BF38460DF5017DBDE85D
:10599000F08F4FF40070A5FB00713A460B46CDE93D
:1059A00000062046FEF731FD8246BAF1000F07D10E
:1059B000FEF7AFFD824600BFFEF7A7FB0028FBD134
:1059C000BAF1000F02D04FF0040B01E04FF0000BD2
:1059D00003E002E04FF0040B00BF00BF5846D4E7DD
:1059E0002DE9F04FADF5017D81460C4616461D466A
:1059F0004FF0040B4FF0000A25B904200DF5017D8E
:105A0000BDE8F08FB9F1000F03D0B9F1010F3FD11C
:105A10003DE004F00300D0B1002711E04FF4007224
:105A2000214601A811F0B2FD3246761C012301A9DE
:105A30000020FFF7D5FF074607B105E004F5007425
:105A4000281EA5F10105E9D100BF3846D6E74FF47D
:105A50000070A6FB00713A460B46CDE900052046D2
:105A6000FEF7D3FD8246BAF1000F07D1FEF769FEBB
:105A7000824600BFFEF749FB0028FBD1BAF1000FB8
:105A800002D04FF0040B01E04FF0000B03E002E006
:105A90004FF0040B00BF00BF5846AFE72DE9F047B9
:105AA00005460E4614464FF0040915B1012D21D1CB
:105AB0001FE0CEB1012E0BD0022E02D0032E14D146
:105AC00003E04FF4007020800FE0012020600CE024
:105AD0000D48D0F850C062460023D0E91271384614
