:020000040800F2
:10000000B8F30020DD010008552600085726000837
:100010005F26000861260008632600080000000033
:100020000000000000000000000000004501000882
:100030006526000800000000890100086726000806
:10004000F7010008F7010008F7010008F7010008B0
:10005000F7010008F7010008F7010008F7010008A0
:10006000F701000889420108F7010008F7010008BC
:10007000F7010008F7010008F7010008F701000880
:10008000FD4C0008F7010008F7010008F70100081F
:10009000F7010008F7010008F7010008F701000860
:1000A000F7010008F7010008F7010008F701000850
:1000B000F7010008F7010008F7010008F701000840
:1000C000F7010008F7010008F7010008F701000830
:1000D000F7010008F7010008F7010008F701000820
:1000E000F7010008F7010008F7010008F701000810
:1000F000F7010008F7010008F7010008F701000800
:10010000F7010008BB430008F7010008F7010008E9
:10011000F7010008F7010008F7010008F7010008DF
:10012000F7010008F7010008F7010008BD430008C7
:10013000DFF80CD017F052FD00480047C925000831
:10014000B8F30020224B19680868B0E8F00F80F37C
:100150000988BFF36F8F4FF0000080F311884EF0D5
:100160000D0E70470000000006480068006880F32C
:10017000088862B661B6BFF34F8FBFF36F8F00DFA1
:1001800000BF00BF08ED00E0EFF30980BFF36F8F01
:100190000F4B1A6820E9F00F106008B54FF05000BF
:1001A00080F31188BFF34F8FBFF36F8F08F032FADF
:1001B0004FF0000080F31188BDE808401968086816
:1001C000B0E8F00F80F30988BFF36F8F704700BF6E
:1001D00068000020EFF30580704700000648804764
:1001E00006480047FEE7FEE7FEE7FEE7FEE7FEE71C
:1001F000FEE7FEE7FEE7FEE7A9020008310100087E
:100200000CB50022019200925248016841F48031FD
:1002100001604FF4A063016801F40031009101997D
:10022000491C0191009911B901999942F3D10168D2
:10023000890302D50121009100E000920099012973
:1002400030D145490A6842F010020A600A6822F07B
:1002500003020A600A6842F002020A6041684160D3
:1002600041684160416841F480614160416821F426
:100270007C114160416841F4E8114160016841F03E
:100280008071016001688901FCD5416821F003019A
:100290004160416841F0020141604168C1F3810160
:1002A0000229FAD10CBDABE710B52A48016841F02C
:1002B000010101604168294A114041600168284AF2
:1002C00011400160016821F480210160416821F43E
:1002D000FE0141604FF41F018160FFF7E4FF2149F7
:1002E0004FF00060086010BD10B51A4A506800F069
:1002F0000C011D4B1D4800290ED004290ED00829E1
:100300000ED003605168194AC1F30311121D515CEC
:100310000268CA40026010BD0360F3E70360F1E7C2
:10032000516801F47011536803F48033022404EB24
:10033000914133B153689B0307D50D4B594301607D
:10034000E0E70B4B59430160DCE7074B5943016081
:10035000D8E7000000100240002002400000FFF833
:10036000FFFFF6FE08ED00E000127A00000000201A
:1003700000093D002A4908432A490860704770B5C2
:100380000F23C27801260178002A1ED0254A126860
:1003900002F4E062C2F5E062120AC2F10404D34042
:1003A0004578A54082781A402A43120101F1E021E4
:1003B00081F80024007800F01F018E404009800081
:1003C00000F1E020C0F8006170BD01F01F00864020
:1003D0004809800000F1E020C0F8806170BD124A39
:1003E000114001430F48001F016070470D4A121D64
:1003F000002903D0116801431160704711688143DF
:10040000116070474FF0E021042804D0086920F003
:10041000040008617047086940F0040008617047F3
:100420000000FA050CED00E080FFFF1F01684FF6A9
:10043000FE72114001600021016041608160C16075
:100440007249724A0839904204D1486840F00F005E
:10045000486070476D4A1432904204D1486840F0B9
:10046000F00048607047694A2832904204D14868D9
:1004700040F4706048607047644A3C32904204D156
:10048000486840F4704048607047604A503290427B
:1004900004D1486840F47020486070475B4A643279
:1004A000904204D1486840F4700048607047574A51
:1004B0007832904204D1486840F0706048607047DC
:1004C000534A111F904204D1086840F00F000860A1
:1004D00070474F4A1432904204D1086840F0F0004F
:1004E000086070474A4A2832904204D1086840F4B4
:1004F000706008607047464A3C32904204D10868F8
:1005000040F4704008607047414A50329042FAD13E
:10051000086840F470200860704730B5026847F6FC
:10052000F0739A430C6A8B682343D1E904452C434A
:1005300023438C692343CC6923434C6A23438C6A4D
:10054000234313430360CA6842600A6882604968B3
:10055000C16030BD0021016041608160C160016106
:1005600041618161C161016241628162704700291C
:1005700004D0016841F001010160704701684FF645
:10058000FE72114001607047002A03D002680A43DE
:100590000260704702688A4302607047416070479A
:1005A000406880B2704702460020D10003D5184948
:1005B0000839096802E0154908390968114200D074
:1005C00001207047C10003D51149091F0860704719
:1005D0000E4908394860704702460020D10003D513
:1005E0000B490839096802E00849083909681142CD
:1005F00000D001207047C10003D50549091F0860DC
:1006000070470249083948607047000008000240FE
:1006100008040240384900200860091D0860091DCF
:100620000860091D08603449344814310860704777
:1006300030B5314A83790168002B2AD013688B4387
:100640001360111D0B680468A3430B60017911440A
:100650000B68046823430B60274C08342168036847
:1006600099432160231D19680568A94319604179E0
:10067000102905D011440A68006802430A6030BDA1
:1006800021680268114321601968006801431960FC
:1006900030BD0079104402688A43026030BD0021F9
:1006A000016001710C224271817170471249103151
:1006B0000A6802430A607047014600200E4A14325D
:1006C00012680A4200D0012070470B4914310860BB
:1006D000704701460020084A12680A40064B14334E
:1006E0001B680B4202D0002A00D00120704702494B
:1006F000143108607047000000040140FFFF0F0044
:100700008100A1F1C04100280CD043F2D2020A605E
:10071000401C8000A0F1C0406FF070420260C1F840
:10072000042170474FF0204343F2DB021A60EFE7E9
:1007300010B5182440234FF020414FF0FC32102810
:1007400005D041F8804F4B608A60CA6010BD0C66CE
:100750004B668A66CA6610BDF74818210160002101
:1007600041604FF0FC318160C1600161704710B59C
:10077000D0E901121143D0E903231A43114342691E
:10078000114382691143C2691143026A1143426AEB
:100790001143826A1143C26A1143026B114302681A
:1007A0009200A2F1C04211608168082907D1016856
:1007B0008900A1F1C0410A6842F040020A60416B21
:1007C000D1E9002342EA03128B688C891B0243EAB9
:1007D00004431A430B8A42EA03520B7D896942EAB9
:1007E00003620A430168491C8900A1F1C0410A6003
:1007F000C16AB1F5804F08D000686FF07041800089
:10080000A0F1C040C0F8041110BD816BD1E90023F4
:1008100042EA03128B680C8A1B0243EA04531A4310
:100820000B7D896942EA036200680A438000A0F1F7
:10083000C040C0F8042110BD30B5D0E90112114309
:10084000D0E903231A431143426941EA42218269F4
:1008500041EA423141F00804C169D1E9002342EA8A
:1008600003220B89097B1B0443EA01610A43016AE5
:10087000D1E9003543EA05230D89097B2D0445EABA
:1008800001610B4301684FF02040102904D040F86B
:10089000804F8260C36030BD04668266C36630BD2F
:1008A00010B5D0E9001241EA42218268102343EAE0
:1008B00042321143A04A1160C168D1E9003443EAD1
:1008C00004230C89097B240444EA01610B439360EF
:1008D0000169D1E9003443EA04230C89097B24042B
:1008E00044EA01610B43D3604069D0E9001341EA57
:1008F00003210389007B1B0443EA0060014311616B
:1009000010BD10B500210160022242608160C1600B
:10091000016141618161C1610162D20242625200A2
:100920008262C1620163436B0F221A60436B5A609B
:10093000446BFF23A360446BE260446B2261446B11
:100940006261446BA161846B2260846B6260846B22
:10095000A360836BDA60836B1A61836B5A61806B6F
:10096000816110BD10210160002141608160C16082
:10097000016141618161C269FC211160C2695160FC
:10098000C2699160C269D160026A1160026A5160F5
:10099000026A9160006AC160704700210160416095
:1009A0008160C268FC211160C2685160C2689160B8
:1009B000C268D16002691160026951600269916088
:1009C0000269D16042691160426951604269916077
:1009D0004069C16070478000A0F1C040002904D088
:1009E000016841F00101016070470168534A1140FC
:1009F000016070474FF0204200290CD0102805D02C
:100A000052F8800F40F0040010607047106E40F004
:100A10000400106670474949C91E102804D052F8D6
:100A2000800F084010607047106E084010667047D5
:100A30004FF02041002805D051F8A00F40F00400ED
:100A40000860704751F8A00F3C4AD21E1040086061
:100A500070474FF0204200290CD0102805D052F8E2
:100A6000800F40F0400010607047106E40F0400072
:100A70001066704731493F39102804D052F8800F72
:100A8000084010607047106E0840106670474FF0C5
:100A90002041102802D0D1F894007047486F704769
:100AA00010B54FF480744FF02043002A11D0102865
:100AB00006D0A04208D153F8840F0843186010BD37
:100AC000586E0843586610BD53F8A40F08431860C9
:100AD00010BD102806D0A04208D153F8840F8843D7
:100AE000186010BD586E8843586610BD53F8A40FA7
:100AF0008843186010BD034600204FF02042102BA1
:100B000008D0B3F5807F07D0D2F8A4200A4200D0E5
:100B100001207047526EF9E7D2F88420F6E74FF0D3
:100B2000204210280CD0B0F5807F0DD052F8A40FD1
:100B30008843106070470000A00000A0FEFF0F0077
:100B4000506E88435066F5E752F8840F8843106072
:100B5000F0E7034600204FF02042102B0ED0B3F5F3
:100B6000807F0DD0D2F8A42002EA010302EAD1016D
:100B7000002BDFD00029DDD00120DBE7526EF3E748
:100B8000D2F88420F0E74FF02042102808D0B0F5CA
:100B9000807F0AD052F8A40F20EAD1001060C9E784
:100BA000506E20EAD1005066C4E752F8840F20EA64
:100BB000D1001060BEE7000010B59C49884209D101
:100BC0000121042000F07DFA0021BDE8104004203E
:100BD00000F077BA9649884209D10121082000F037
:100BE00070FA0021BDE81040082000F06ABA91496F
:100BF000884209D10121102000F063FA0021BDE8EC
:100C00001040102000F05DBA8B49884209D10121C3
:100C1000202000F056FA0021BDE81040202000F00E
:100C200050BA8649884209D10121402000F049FA92
:100C30000021BDE81040402000F043BA80498842BE
:100C400009D10121802000F03CFA0021BDE81040CC
:100C5000802000F036BA7B4988420AD184150121F0
:100C6000204600F02EFA2046BDE81040002100F09A
:100C700028BA10BD10B50121084600F022FA002163
:100C8000BDE81040012000F01CBA2DE9F04100221F
:100C9000CC7804F00F03E40601D58C7823430C785C
:100CA0004FF00F0714F0FF0F4FF0010C1CD0056838
:100CB0000CFA02F40E882640A64211D1960007FADB
:100CC00006F825EA080503FA06F848EA0505CE788D
:100CD000282E02D0482E02D002E0446100E00461D8
:100CE000521C082AE4D305600A88FF2A1ED94568E9
:100CF000002202F108060CFA06F40E882640A642ED
:100D000010D1960007FA06F825EA080503FA06F856
:100D100048EA0505CE78282E00D14461CE78482EC9
:100D200000D10461521C082AE3D34560BDE8F0817C
:100D30004FF6FF710180022181700421C17070475C
:100D40000246002092680A4200D001207047806865
:100D500080B2704702460020D2680A4200D00120CB
:100D60007047C06880B27047016170474161704749
:100D7000002A01D00161704741617047C16070472E
:100D800041F480328261816182618169806970474A
:100D900010B52D4B1A684FF68074224042EA0010BD
:100DA0000843186010BD2949C8617047F0B5264C4A
:100DB000002801DAE36900E06368C0F30346420DEE
:100DC000120185B2C0F301579540032F07D0C2022C
:100DD0000CD50322B240934343F0706209E023F044
:100DE0007062636823F07063636002E0AB4343F0BA
:100DF000706201B12A43002801DAE261F0BD62604D
:100E0000F0BD10B58A07120F0F23934021F00304A1
:100E10000D4921448C689C438C608B68904003434F
:100E20008B6010BD0949DC31086070470008014043
:100E3000000C014000100140001401400018014066
:100E4000001C014000200140000001400000204241
:100E5000B448016841F0010101604168B24A1140A3
:100E600041600168B14A11400160016821F48021AC
:100E70000160416821F4FE0141604FF41F0181606F
:100E80007047A8490A6822F480320A600A6822F48E
:100E900080220A60B0F5803F07D0B0F5802F03D1E3
:100EA000086840F4A02008607047086840F480306B
:100EB000086070470346002059099A4A01290AD060
:100EC00002290AD0516A03F01F02012393400B420A
:100ED00000D0012070471168F5E7116AF3E718B5F3
:100EE000002000904FF4A0643120FFF7E3FF009949
:100EF000491C00910099A14201D00028F4D0312072
:100F0000FFF7D8FF08B1012018BD002018BD854AA1
:100F1000116821F0F80141EAC0001060704784496F
:100F2000086070477F4B5A6822F47C1208431043D4
:100F3000586070477E49086670477A4A516821F0C8
:100F400003010143516070477648406800F00C008F
:100F50007047744A516821F0F001014351607047B5
:100F6000704A516821F4E0610143516070476D4A55
:100F7000516821F4605141EAC00050607047694AED
:100F8000002903D0517A014351727047517A81434D
:100F9000517270476649D83108607047614A51689C
:100FA00021F440410143516070475E4900222031E5
:100FB0000A7001F82029012805D0042802D1052053
:100FC00081F820007047012081F8200070475949BE
:100FD0000860704753490A6A02430A6270475549DC
:100FE00044390860704710B54E4A516801F00C0151
:100FF000514B002927D0042927D0082927D0036086
:10100000516801F0F00109094C4B5C5C0168E1405A
:101010004160546804F4E064240A1C5D21FA04F47D
:101020008460546804F46054E40A1B5DD940C160D4
:10103000526802F44042920B404B1B1F9A5CB1FB7A
:10104000F2F1016110BD0360DAE70360D8E751688F
:1010500001F47011536803F48033022404EB9141CE
:1010600033B153689B0307D5354B59430160C7E73C
:10107000334B59430160C3E72F4B59430160BFE72E
:10108000284A002903D051690143516170475169D1
:10109000814351617047234A002903D0916901437C
:1010A0009161704791698143916170471D4A0029A0
:1010B00003D0D1690143D1617047D1698143D161C6
:1010C0007047184A002903D0D1680143D1607047A6
:1010D000D1688143D1607047124A002903D0116959
:1010E00001431161704711698143116170471149D2
:1010F0004039086070470E49C86470470949C87193
:1011000070470848416A41F080714162704701466A
:101110000020044A92680A4200D001207047014929
:1011200088727047001002400000FFF8FFFFF6FED3
:10113000000042428004424200127A00180000205F
:1011400000093D0066480021016041608160C16086
:1011500041628162C162634A8263C163704730B594
:101160005F4B596847F6FF629143027D8468C5680A
:10117000224344682C43224304680069224302430B
:101180000A435A6030BD00210175016041608160F1
:10119000C1600161704754490860704750490A684E
:1011A00022F003020A600A6802430A6070474C4852
:1011B000006800F003007047494A002903D0D16B52
:1011C0000143D1637047D16B8143D1637047474975
:1011D0000860704710B5424902688A60CA686FF3B8
:1011E0000A02D0E901342343D0E9034004432343F6
:1011F0001343CB6010BD0021016041608160C1607C
:101200000161704736480069C0B2704708B534497B
:101210001431084400900098006808BD10B53049AA
:1012200002684A6242688A62CA6A22F0F702D0E91A
:1012300002342343D0E90440044323431343CB62E5
:1012400010BD4FF0FF310160002141608160C1603D
:101250000161416170472248006B7047204880302F
:10126000006870471E498031086070471C48806CD8
:1012700070471E491431086070471C4918310860D6
:1012800070471A491C3108607047184920310860BE
:1012900070471749086070471549091D0860704775
:1012A00001218143124808300160704710490C3118
:1012B0000860704701460020094A526B0A4200D07C
:1012C0000120704706498863704701460020044AA0
:1012D000526B0A4200D00120704701498863704771
:1012E00000800140FF07C000A00030428C05304262
:1012F000AC01304210B5A94988420AD184140121B9
:101300002046FFF7DEFE2046BDE810400021FFF733
:10131000D8BEA34988420AD1041401212046FFF710
:10132000DBFE2046BDE810400021FFF7D5BE9D49F9
:1013300088420AD1C41301212046FFF7CDFE204682
:10134000BDE810400021FFF7C7BE10BD30B50288D0
:1013500002F441530A884C88CD8822438C882C4360
:1013600022430C8922434C8922438C892243CC8915
:1013700022431A430280828B22F400628283098A0C
:10138000018230BDF0B585B005460C460220002133
:101390000126AA8B4FF240031A40AA8302222A8414
:1013A000AF8BA268022A21D0A08800B1022668462D
:1013B000FFF719FE0098E188B1F5007F2CD071018C
:1013C000B0FBF1F000EB8000A1684000B0FBF1F051
:1013D000401D80B20A21B0FBF1F000F00101401A7B
:1013E000C0F34F004FF6FF7202EA0121821EFE2A6F
:1013F00001D302200021E288084302432A84208886
:101400006188A2890843A18811430843384340F406
:101410000060A88305B0F0BD000A00EB8000A16861
:101420004000B0FBF1F0401D80B2D3E70021018005
:1014300041808180C180018141818181C1810721F9
:10144000018270470021018041808180C180022299
:10145000826081817047002904D0018841F04001F9
:1014600001807047018821F0400101807047002908
:1014700004D0818B41F4806181837047818B21F49A
:10148000806181837047090901238B4099B2002A4A
:1014900003D082880A438280704782888A43828090
:1014A0007047002A03D082880A438280704782886E
:1014B0008A43828070478181704780897047A1F597
:1014C0007E42FF3A04D0018841F480710180704768
:1014D000018821F4807101807047002904D081883F
:1014E00041F0040181807047818821F004018180EE
:1014F0007047028822F40062028002880A43028058
:101500007047018841F4805101807047002904D060
:10151000018841F4005101807047018821F4005195
:1015200001807047012901D0008B7047808A704785
:10153000008A7047B1F5804F04D0018821F48041C2
:1015400001807047018841F4804101807047024664
:10155000002012890A4200D001207047C94301814E
:10156000704730B50246002001F00F03012505FA4F
:1015700003F4A3B2090905FA01F4A4B29188214049
:1015800012891A4202D0002900D0012030BD01F09A
:101590000F0201219140C943018170470030014091
:1015A00000380040003C004010B5FE4988420AD196
:1015B000C41401212046FFF784FD2046BDE81040F9
:1015C0000021FFF77EBDB0F1804F0CD0F649884274
:1015D00013D101210220FFF77FFD0021BDE810405B
:1015E0000220FFF779BD01210846FFF775FD0021B4
:1015F000BDE810400120FFF76FBDEC49884209D1DA
:1016000001210420FFF768FD0021BDE810400420FF
:10161000FFF762BDE649884209D101210820FFF7A2
:101620005BFD0021BDE810400820FFF755BDE149F2
:10163000884209D101211020FFF74EFD0021BDE8AD
:1016400010401020FFF748BDDB49884209D1012135
:101650002020FFF741FD0021BDE810402020FFF7CA
:101660003BBDD64988420AD1441401212046FFF7E8
:1016700028FD2046BDE810400021FFF722BDD049DB
:1016800088420AD10121CC042046FFF71AFD2046EA
:10169000BDE810400021FFF714BDCA4988420AD1B5
:1016A00001210C052046FFF70CFD2046BDE8104047
:1016B0000021FFF706BDC44988420AD101214C052B
:1016C0002046FFF7FEFC2046BDE810400021FFF752
:1016D000F8BCBE49884209D101214020FFF7FCFC3B
:1016E0000021BDE810404020FFF7F6BCB849884211
:1016F00009D101218020FFF7EFFC0021BDE8104057
:101700008020FFF7E9BCB34988420AD18415012142
:101710002046FFF7E1FC2046BDE810400021FFF71E
:10172000DBBCAD4988420AD101210C042046FFF7F9
:10173000C8FC2046BDE810400021FFF7C2BCA74905
:1017400088420AD101214C042046FFF7BAFC20460A
:10175000BDE810400021FFF7B4BCA14988420AD17E
:1017600001218C042046FFF7ACFC2046BDE8104068
:101770000021FFF7A6BC10BD30B50288894C8F4D03
:10178000A0420DD0A8420BD0B0F1804F08D0864BBC
:10179000984205D0854B984202D0854B984203D1A0
:1017A00022F070034A881A43824B984206D0824B3B
:1017B000984203D022F44073CA881A4302808A8870
:1017C00082850A880285A0420AD0A84208D0824AAF
:1017D000904205D0814A904202D0814A904201D184
:1017E000097A01860121818230BD30B5028C22F058
:1017F00001020284028C8388048B24F0700424F09C
:1018000003050C882C4322F002020D8915434A88F7
:101810002A43644DA8420BD0684DA84208D06E4DB3
:10182000A84205D06D4DA84202D06D4DA8420FD1FF
:1018300022F008054A892A4322F004058A882A43AF
:1018400023F4807323F400738D891D43CB892B43CC
:1018500083800483C9888186028430BD70B5028C80
:1018600022F010020284028C8388048B24F4E0446A
:1018700024F440760D884FF6FF7404EA05253543BD
:1018800022F020020E8904EA061616434A8804EA6A
:1018900002123243434EB04202D0484EB04217D1FA
:1018A00022F080024E8904EA0616164326F040060E
:1018B0008A8804EA0212324323F4806323F400632B
:1018C0008E8904EA86061E43CB8904EA83033343E8
:1018D00083800583C9880187028470BD70B5028C3E
:1018E00022F480720284028C8388848B24F070043A
:1018F00024F003040D88254322F400720E894FF66C
:10190000FF7404EA062616434A8804EA0222324398
:10191000244EB04202D0294EB04217D122F40066C4
:101920004A8904EA0222324322F480668A8804EA61
:101930000222324323F4805323F400538E8904EAB5
:1019400006161E43CB8904EA031333438380858341
:10195000C9888187028470BD70B5028C22F48052E0
:101960000284058C8288838B23F4E04323F4407641
:101970000C884FF6FF7303EA0424344325F4005522
:101980000E8903EA06362E434D8803EA05353543B2
:10199000044EB04202D0094EB04226D122F4804615
:1019A0008A891FE0002C014000040040000800402C
:1019B000000C0040001000400014004000340140C2
:1019C000004C01400050014000540140001800400C
:1019D000001C004000200040004001400044014045
:1019E0000048014003EA8212324382808483C9881E
:1019F000A0F84010058470BD828B22F4406282837F
:101A0000828B4FF6FF7303EA01210A4382837047FA
:101A1000F0B5048C24F480540484868B048C4FF637
:101A2000FF7505EA013726F4734605EA02223243C0
:101A300005EA03331343F74A90420ED0F64A904228
:101A40000BD0B0F1804F08D0F44A904205D0F44A50
:101A5000904202D0F34A904205D124F40051394318
:101A600041F4805104E024F402420A4342F48051DC
:101A700083830184F0BD828B22F00C028283828BEF
:101A80000A4382837047F0B5048C24F48074048484
:101A9000858B048C4FF6FF7707EA012625F0F305C6
:101AA00007EA031313432B43DA4A90420ED0DA4A73
:101AB00090420BD0B0F1804F08D0D84A904205D068
:101AC000D74A904202D0D74A904205D124F40071FF
:101AD000314341F4807104E024F420620A4342F46B
:101AE000807183830184F0BD028B22F44062028303
:101AF000028B4FF6FF7303EA01210A43028370470A
:101B0000F0B5048C24F010040484068B048C4FF68A
:101B1000FF7505EA011726F4734605EA03333343DC
:101B200005EA02221A43BB4B98420ED0BA4B9842A8
:101B30000BD0B0F1804F08D0B84B984205D0B84BCD
:101B4000984202D0B74B984205D124F02001394386
:101B500041F0100104E024F0A0030B4343F0100116
:101B600002830184F0BD028B22F00C020283028BFF
:101B70000A430283704770B5048C24F00104048486
:101B8000058B048C25F0F3054FF6FF7606EA031368
:101B900013432B439F4A90420ED09F4A90420BD052
:101BA000B0F1804F08D09D4A904205D09C4A9042A7
:101BB00002D09C4A904205D124F002020A4342F02E
:101BC000010104E024F00A020A4342F00101038308
:101BD000018470BD70B505460C468E48854209D01B
:101BE0008D48854206D0B5F1804F03D08B488542A1
:101BF00000D08B4820886188A288238958B10428A6
:101C000011D0082817D02846FFF702FFE1882846A0
:101C1000BDE87040F0E62846FFF7ADFFE1882846B2
:101C2000BDE870409FE72846FFF76AFFE188284635
:101C3000BDE8704058E72846FFF725FFE1882846B1
:101C4000BDE8704017E72DE9F04107460C46002536
:101C500001266188002900D10225A288012A00D12D
:101C600002262088238988B13846FFF749FFE1889A
:101C70003846FFF739FF2389324629463846FFF7B1
:101C80007AFFE1883846BDE8F0416CE73846FFF757
:101C900072FFE1883846FFF766FF238932462946FE
:101CA0003846FFF72DFFE1883846BDE8F0411BE7D5
:101CB00010B50A884B88CC881A438B8823431A4373
:101CC0000B891A434B8989891A430A43A0F8442097
:101CD00010BD4FF6FF71818000210180C1804180DD
:101CE000017270470021018041808180C1800181A3
:101CF00041818181C18170470021018041800122A1
:101D00008280C180018170470021018041808180F3
:101D1000C1800181418181817047002904D00188FF
:101D200041F0010101807047018821F0010101802B
:101D30007047002905D030F8441F41F4004101806C
:101D4000704730F8441FC1F30E0101807047002A2C
:101D500003D082890A438281704782898A438281C3
:101D60007047818270471143A0F848107047002ADD
:101D700003D082890A438281704782898A438281A3
:101D80007047018921F0070101817047028922F023
:101D900070020A430281704700B503461846FFF7F8
:101DA000F5FF188940F00700188100BD70B50D4699
:101DB00004461146602D0CD001222046FFF7DBFEC1
:101DC00029462046FFF7E2FF208940F007002081E6
:101DD00070BD01222046FFF793FEF1E730B504897C
:101DE000E4B24FF6FF7505EA032313430B43234385
:101DF000038130BD10B504462046FFF7EFFF208970
:101E000020F0070040F0070020F0700040F0700064
:101E1000208110BD002C014000340140000400402E
:101E200000080040000C004010B504462046FFF7B3
:101E3000D5FF208940F480402081EAE70185828235
:101E40007047028822F070020A430280704770B522
:101E50000589048B068C25F007050D434FF6FC41E0
:101E60000C4040F201110C4326F022064FF6FF71A0
:101E700001EA03111143314305810483018470BDDC
:101E8000028B22F070020A4302837047028B22F415
:101E9000E0424FF6FF7303EA0121114301837047CB
:101EA000828B22F070020A4382837047828B22F475
:101EB000E0424FF6FF7303EA01211143818370472B
:101EC000002904D0018841F0800101807047018819
:101ED00021F0800101807047002904D0818841F001
:101EE000040181807047818821F00401818070475E
:101EF000002904D0818841F00801818070478188E1
:101F000021F0080181807047002904D0818841F0C8
:101F1000010181807047818821F001018180704733
:101F2000028B22F008020A4302837047028B22F4DC
:101F300000624FF6FF7303EA0121114301837047EA
:101F4000828B22F008020A4382837047828B22F43C
:101F500000624FF6FF7303EA01211143818370474A
:101F6000028B22F004020A4302837047028B22F4A0
:101F700080624FF6FF7303EA01211143018370472A
:101F8000828B22F004020A4382837047828B22F400
:101F900080624FF6FF7303EA01211143818370478A
:101FA000028B22F080020A4302837047028BC2F345
:101FB0000E024FF6FF7303EA0121114301837047BC
:101FC000828B22F080020A4382837047828BC2F3A5
:101FD0000E024FF6FF7303EA01211143818370471C
:101FE000028C22F002020A4302847047028C22F023
:101FF00008020A4302847047028C22F020024FF646
:10200000FF7303EA0111114301847047028C22F02F
:1020100080024FF6FF7303EA0111114301847047F8
:10202000028C22F400724FF6FF7303EA0121114380
:1020300001847047028C22F400624FF6FF7303EABA
:102040000121114301847047028C22F400524FF6A3
:10205000FF7303EA013111430184704710B5012376
:102060008B40048C9C430484038C8A401343038478
:10207000CFE610B504238B40048C9C430484038C6E
:102080008A4013430384C4E630B500F118030124E9
:102090008C40058CA5430584002911D008290FD058
:1020A000091FC1F34E001844016821F4E0410160AA
:1020B00001684FF6FF7303EA02221143016030BD4D
:1020C00003EB5100016821F07001016001681143C8
:1020D000016030BD002904D0018841F00201018077
:1020E0007047018821F0020101807047002904D067
:1020F000018841F0040101807047018821F004014A
:1021000001807047002904D0818841F080018180DE
:102110007047818821F0800181807047028822F019
:102120000802028002880A4302807047828822F0F7
:102130007002828082880A4382807047028922F07E
:102140000702028102890A4302817047028922F054
:102150008002028102890A430281704781847047AC
:1021600081857047818670470187704781877047F6
:10217000A0F840107047028822F440720280028862
:102180000A4302807047808E7047008F7047808FAF
:102190007047B0F840007047808C7047008D7047E2
:1021A00002460020128A0A4200D001207047C9432B
:1021B0000182704702460020138A0B4092890A4030
:1021C000002B02D0002A00D001207047C9430182B1
:1021D0007047000010B5E14988420AD101218C0303
:1021E0002046FEF76EFF2046BDE810400021FEF7B6
:1021F00068BFDB4988420AD101214C042046FEF722
:102200006BFF2046BDE810400021FEF765BFD549B1
:1022100088420AD101218C042046FEF75DFF20464A
:10222000BDE810400021FEF757BFCF4988420AD1D0
:102230000121CC042046FEF74FFF2046BDE81040A8
:102240000021FEF749BFC94988420AD101210C0586
:102250002046FEF741FF2046BDE810400021FEF772
:102260003BBF10BD30B585B004460D46208A4CF604
:10227000FF710840E98801432182A0894EF6F311DD
:102280000840A9882A8911436A8902431143A18120
:10229000A08A4FF6FF410840A9890143A182684600
:1022A000FEF7A1FEAD48844201D1039800E00298F8
:1022B000A189090408D500EBC00101EB00102968D1
:1022C0004900B0FBF1F007E000EBC00101EB0010AA
:1022D00029688900B0FBF1F06422B0FBF2F109013A
:1022E0000B096FF018056B4300EB8300A3891D04F5
:1022F0004FF0320307D503EBC000B0FBF2F000F063
:102300000700084306E003EB0010B0FBF2F000F01A
:102310000F000843208105B030BD4FF41651016015
:1023200000218180C18001810C224281818170471E
:1023300010B5038A4FF2FF0213400A884C882243EB
:102340008C88C9880C4322431A43028210BD0021A5
:10235000018041808180C1807047002904D081893B
:1023600041F4005181817047818921F400518181BC
:10237000704710B540F66A13C1F3421301F01F0411
:102380000121A140012B07D0022B07D014303AB114
:1023900002680A43026010BD0C30F8E71030F6E71F
:1023A00002688A43026010BD002A03D0828A0A4371
:1023B00082827047828A8A4382827047028A22F030
:1023C0000F020282028A0A4302827047828922F443
:1023D0000062828182890A4382817047002904D089
:1023E000818941F0020181817047818921F00201D8
:1023F00081817047028A22F020020282028A0A4307
:1024000002827047002904D0018A41F48041018290
:102410007047018A21F4804101827047C1F30801AD
:10242000818070478088C0F308007047818941F03F
:10243000010181817047028BD2B20283028B42EA92
:10244000012101837047028B02F47F420283028BD9
:102450000A4302837047002904D0818A41F0200199
:1024600081827047818A21F0200181827047002992
:1024700004D0818A41F0100181827047818A21F065
:10248000100181827047002904D0818A41F008013F
:1024900081827047818A21F008018182704700297A
:1024A00004D0818941F40041818170478189C1F361
:1024B0000E0181817047002904D0818A41F40061B6
:1024C00081827047818A21F4006181827047828A0B
:1024D00022F004028282828A0A43828270470029A3
:1024E00004D0818A41F0020181827047818A21F003
:1024F0000201818270470246002012880A4200D001
:10250000012070478A05C9430180704770B50024D7
:1025100040F66A12C1F3421301F01F05012606FAC4
:1025200005F2012B0CD0022B0DD0838A1340090A2F
:102530008E40008830400BB100B10124204670BDB0
:1025400083891340F3E7038A1340F0E740F66A12E9
:102550000A0A01219140C9430180704700380140B7
:102560000044004000480040004C00400050004043
:1025700020A01FF06DFB09F004FA244D20244FF435
:10258000FA772E1F2C6022A01FF062FB384605F060
:102590006DFF346025A01FF05BFB384605F066FF39
:1025A000F0E710B54FF44070FDF7E4FE00F094FB47
:1025B00000F06AF802F0DCFA02F030FB02F055FBA2
:1025C000BDE8104000F0B8BB1CB5FFF7EAFF0020E3
:1025D0000A21CDE9001003464FF400721BA11C48EC
:1025E00005F052FD012802D04FF0FF301CBD06F06F
:1025F0005FF9FEE7D2B0BBF0656D58475549D1DDB4
:10260000CABEC0FDB3CC0A0A00000000140C014091
:10261000546573745F5461736B2052756E6E696E8E
:10262000672C4C4544315F4F4E0D0A00546573745E
:102630005F5461736B2052756E6E696E672C4C45EA
:1026400044315F4F46460D0A00000000677569007F
:1026500071250008704709A01FF0FAFAFEE7FEE7AF
:10266000FEE7FEE7704710B506F07FFA012803D0B9
:10267000BDE8104006F09BBE10BD000048617264CA
:102680004661756C740A000010B586B00121042003
:10269000FEF701FD01218803FEF7FDFC4FF40070F9
:1026A000ADF8140018208DF8170003208DF81600DF
:1026B000494C05A92046FEF7E8FA2115ADF814109B
:1026C00004218DF8171005A92046FEF7DEFA4FF415
:1026D000E13001900020ADF80800ADF80A00ADF837
:1026E0000C00ADF810000C20ADF80E003B4C01A919
:1026F0002046FFF7B7FD01212046FFF72EFE06B06A
:1027000010BD10B504462046FFF788FE8021204604
:10271000FFF7F1FE0028F9D010BD2DE9F041074682
:102720000D461646002405E0295D3846FFF7E9FF0F
:10273000641CE4B2B442F7D340213846FFF7DBFE15
:102740000028F9D0BDE8F08170B506460D4600249A
:102750003046295DFFF7D5FF641C285D0028F7D1BE
:1027600040213046FFF7C7FE0028F9D070BD70B594
:102770000546080ACCB201462846FFF74FFE8021E5
:102780002846FFF7B8FE0028F9D021462846FFF773
:1027900045FE80212846FFF7AEFE0028F9D070BD27
:1027A00070B504460D4DE1B22846FFF737FE802193
:1027B0002846FFF7A0FE0028F9D0204670BD10B5CE
:1027C000064C20212046FFF796FE0028F9D020462F
:1027D000BDE81040FFF726BE000801400038014068
:1027E00010B5F9A01FF034FA002010BD2DE9F0411A
:1027F0000746FF4C4FF480552560FE4E08E02068E8
:10280000411E216004D2FFF7EBFFC0B2BDE8F081AA
:1028100002213046FEF79BFE0028F0D039463046B4
:10282000FEF749FE256007E021684A1E226003D2B8
:10283000FFF7D6FFC0B2E9E701213046FEF787FE79
:102840000028F1D03046FEF738FEC0B2DEE72DE9B1
:10285000F041E94F10213846FEF788FA9F20FFF734
:10286000C5FFFF20FFF7C2FF0446FF20FFF7BEFFB2
:102870000546FF20FFF7BAFF064610213846FEF74F
:1028800073FA200440EA05203043BFE710B586B054
:1028900001210803FEF7FFFB01210420FEF7FBFBEB
:1028A0001020ADF8000003218DF802108DF8030010
:1028B000D14C69462046FEF7E8F901210420FEF7D5
:1028C000EAFB2021ADF8001018218DF803106946AD
:1028D0002046FEF7DAF901210420FEF7DCFB402157
:1028E000ADF8001069462046FEF7CFF9012104201B
:1028F000FEF7D1FB8021ADF8001069462046FEF7B7
:10290000C4F910212046FEF72FFA0020ADF804008C
:102910004FF48271ADF80610ADF808000221ADF851
:102920000A100121ADF80C104902ADF80E10ADF8F7
:102930001000ADF812000720ADF81400AD4C01A94D
:102940002046FEF703FD01212046FEF784FDFFF738
:102950007EFFAA49884202D1012006B010BD0020A6
:10296000FBE770B5A44D10212846FEF7FFF90520BE
:10297000FFF73CFF9E4CA8142060FF20FFF736FFB6
:1029800021684A1E226002D2BDE8704028E7C007D5
:10299000F3D12846BDE870401021FEF7E5B910B527
:1029A000954C10212046FEF7E1F90620FFF71EFFA7
:1029B0002046BDE810401021FEF7D6B970B5044698
:1029C000FFF7EDFFFFF7CDFF8B4D10212846FEF7F7
:1029D000CDF92020FFF70AFFC4F30740FFF706FFF9
:1029E000C4F30720FFF702FFE0B2FFF7FFFE10215C
:1029F0002846FEF7B9F9BDE87040B2E710B5FFF719
:102A0000CEFF7D4C10212046FEF7B0F9C720FFF71E
:102A1000EDFE10212046FEF7A7F9BDE81040A0E723
:102A20002DE9F04105460F461446FFF7B8FF724EF8
:102A300010213046FEF79AF90220FFF7D7FEC7F3C0
:102A40000740FFF7D3FEC7F30720FFF7CFFEF8B22A
:102A5000FFF7CCFEB015844205D9044603E0287880
:102A6000FFF7C4FE6D1C641EA4B2F8D210213046DC
:102A7000FEF77AF9BDE8F04173E72DE9F047064625
:102A80000D46E8B24142CFB2140A02F0FF094FF4FA
:102A90008078002812D0E8B24042C0B205EB000AAC
:102AA00024B3D01B80B2040A00F0FF093A4629463D
:102AB0003046FFF7B5FF55463E4435E06CB9294630
:102AC0003046FFF7ADFF3AE0424629463046FFF771
:102AD000A7FF05F5807506F58076641EE4B2F3D293
:102AE0004A4629463046FFF79BFF28E0B9450DD9F5
:102AF000A9EB0700C4B23A4629463046FFF790FFDB
:102B00005146F0192246FFF78BFF18E02946304660
:102B1000FFF786FF13E0424629463046FFF780FF65
:102B200005F5807506F58076641EE4B2F3D2B9F13E
:102B3000000F04D04A4629463046FFF771FF0120B6
:102B4000BDE8F0872DE9F04104460F4615462A4EB0
:102B500010213046FEF70AF90320FFF747FEC7F3BE
:102B60000740FFF743FEC7F30720FFF73FFEF8B229
:102B7000FFF73CFE04E0FF20FFF738FE04F8010BEE
:102B80006D1E681CF7D13046BDE8F0411021FEF7FC
:102B9000EBB870B5184C10212046FEF7E7F8AB20D3
:102BA000FFF724FEFF20FFF721FEFF20FFF71EFEA8
:102BB000FF20FFF71BFEFF20FFF718FE0546102140
:102BC0002046FEF7D1F81BE03C3C2D464C415348D3
:102BD0002D4552524F522D3E3E20535049205469AC
:102BE0006D656F7574206572726F72210A00000046
:102BF0002800002000300140000801401740EF008D
:102C0000284670BD10B5044610213048FEF7AEF8D6
:102C10000320FFF7EBFDC4F30740FFF7E7FDC4F324
:102C20000720FFF7E3FDE0B2BDE81040DEE5FF203E
:102C3000DCE52DE9F0410746254C4FF48055256031
:102C4000244E06E02068411E216002D2BDE8F0411A
:102C5000C6E502213046FEF77AFC0028F2D039465C
:102C60003046FEF728FC256006E021684A1E2260F7
:102C700002D2BDE8F041B3E501213046FEF767FC22
:102C80000028F2D03046BDE8F041FEF716BC10B582
:102C90000E4C10212046FEF769F8B920FFF7A6FD7B
:102CA0002046BDE810401021FEF75EB810B5074C75
:102CB00010212046FEF75AF8AB20FFF797FD20467B
:102CC000BDE810401021FEF74FB800000008014099
:102CD000280000200030014038B501210820FEF70F
:102CE000DAF92020ADF8000010208DF80300032051
:102CF0008DF802000F4C69462046FDF7C6FF012102
:102D0000ADF8001069462046FDF7BFFF0221ADF87F
:102D1000001069462046FDF7B8FF20212046FEF747
:102D200023F801212046FEF71FF802212046FEF776
:102D30001BF838BD000C014038B501211420FEF706
:102D4000AAF90120ADF8000004248DF8034069467B
:102D50000F48FDF79AFFE002ADF800008DF8034040
:102D600069460C48FDF791FF38BD70B504460D4625
:102D700029462046FDF7E4FF012801D0002070BD60
:102D800029462046FDF7DCFF0128F9D0012070BD5F
:102D9000000801400010014038B531208DF80000D6
:102DA00000248DF801408DF8024001208DF80300C9
:102DB0006846FDF7E4FA3B208DF800008DF80140ED
:102DC0006846FDF7DCFA38BD38B50020FEF7E3F9B8
:102DD0000020FEF7E3F9FEF7B5F900214FF480601B
:102DE000FEF74EF94FF4F850ADF8000004248DF8CA
:102DF00003406946FE48FDF748FFADF800406946CC
:102E0000FC48FDF742FF38BD08B50121B020FEF7B0
:102E100042F94FF4F850ADF8000003208DF802009D
:102E200018208DF803006946F148FDF72EFF0420B5
:102E3000ADF800006946EF48FDF727FF4FF400604A
:102E4000ADF8000048208DF803006946EA48FDF718
:102E50001CFF01218802FEF713F901210220FEF771
:102E60000FF908BD70B58CB004460D46E348FDF778
:102E7000A9FBE34E00213046FDF779FBE1480190C4
:102E8000029410200390A80804900020059080214F
:102E900006918900079189000891099089000A919B
:102EA0000B9001A93046FDF738FB01220221304684
:102EB000FDF76AFB01213046FDF759FB0CB070BDF0
:102EC00070B58CB005460C46CC48FDF77BFBCC4E6C
:102ED00000213046FDF74BFBCA48019002950020C7
:102EE0000390A10804910590802106918900079123
:102EF00089000891099089000A910B9001A9304638
:102F0000FDF70BFB012202213046FDF73DFB0121BD
:102F10003046FDF72CFBD1E7BB48FDF744BB53E738
:102F200070B505460024B7498039486B00E0486B0E
:102F300010F0450FFBD0410705D503240420FEF710
:102F4000C1F9204670BDC00705D001240120FEF75D
:102F5000B9F9204670BDFEF755F9A84201D01020FE
:102F600070BD40F2FF50FEF7ADF90020FEF74EF9BC
:102F7000A649084201D1204670BD002801DA1C2074
:102F800070BD410001D5092070BD810001D50A2026
:102F900070BDC10001D50B2070BD010101D50C2011
:102FA00070BD410101D50D2070BDC10101D50E20BC
:102FB00070BD010201D50F2070BD410201D5102066
:102FC00070BD810201D5112070BDC10201D5122052
:102FD00070BD010301D5132070BD410301D514203C
:102FE00070BD810301D5152070BDC10301D5162028
:102FF00070BD010401D5172070BD410401D5182012
:1030000070BD810401D5192070BD000701D51A20BB
:1030100070BD204670BD2DE9FC470E4600240027F8
:10302000009701977A4D4FF0080AC5F800A01020CC
:1030300068604FF04009C5F80890EF604FF4806871
:10304000C5F810802846FEF7C5F81020FFF768FF86
:10305000002833D16F480089000428603720686059
:10306000C5F80890EF60C5F810802846FEF7B2F862
:103070003720FFF755FF002820D105F114004AF64C
:10308000FF710160C0F804A0302181600221C1609D
:10309000076101214161FEF7C1F82F6033206860AC
:1030A000C5F80890EF60C5F810802846FEF792F842
:1030B0003320FFF735FF0546280001D0BDE8FC8727
:1030C000DFF840814FF4001A6F46A8F1800840F203
:1030D0002A6908E05046FEF7EDF820B1FEF7BEF889
:1030E00047F82400641CD8F8340010EA090FF1D026
:1030F0000820FEF7DFF820B10820FEF7E3F80420EF
:10310000DCE70220FEF7D6F820B10220FEF7DAF85D
:103110000220D3E72020FEF7CDF820B12020FEF7D3
:10312000D1F80620CAE74FF400742046FEF7C2F833
:1031300020B12046FEF7C6F80720BFE740F2FF5057
:10314000FEF7C0F800980099000601F47F4140EABC
:103150000120009901F47F0140EA1120009940EA22
:103160001160706001980199000601F47F4140EA06
:103170000120019901F47F0140EA1120019940EA00
:1031800011603060284699E72DE9FC470646002487
:10319000009401940020FEF739F8800101D50E203B
:1031A0008CE71C4D6946288980B2FFF734FF002860
:1031B00084D13720164F4FF0060A4FF040094FF4E4
:1031C0008068012E37D00199C9035AD5298909048D
:1031D00039607860C7F80890FC60C7F810803846FE
:1031E000FDF7F8FF3720FFF79BFE0028D8D113E04A
:1031F0000010014000140140001C014000F00010CC
:1032000044040240808001400020001008E0FFFDDF
:10321000D00C00202C0000203C60C7F804A0C7F8A8
:103220000890FC60C7F810803846FDF7D3FF0620F1
:10323000FFF776FE42E70199490320D52989090461
:1032400039607860C7F80890FC60C7F81080F848CB
:10325000FDF7C0FF3720FFF763FE0028A0D1022052
:103260003860C7F804A0C7F80890FC60C7F8108061
:10327000EF48FDF7AFFF0620FFF752FE1EE72520BF
:103280001CE725201AE72DE9F04101460024E94812
:103290004068032805D038B1012805D0022803D0A2
:1032A00034E02720BDE8F081B1F5805F0FD0E04D1C
:1032B0004FF400670026183D4FF00508B94214D1BD
:1032C0000120FFF761FF0446200002D01EE0272006
:1032D000E8E785F814802E606E60AE60EF602E61C6
:1032E000D3481838FDF73BFF10E00020FFF74CFFF4
:1032F000044620000AD185F814802E606E60AE600E
:10330000EE602E61CA481838FDF729FF2046C9E74C
:1033100010B5C74908600720486040208860002039
:10332000C8604FF4806008610846FDF753FFBDE8B0
:1033300010400720F4E52DE9F043BE494F6880F8BE
:1033400056700989A0F85410DFF8E4C2ACF1A00C63
:10335000DCF800100A0E93090370C2F38303437074
:1033600002F0030282700A0CC2700A0A02714171F3
:10337000DCF80420110E0901C180C2F30741C388A3
:1033800043EA1113C38001F00F010172C2F3072158
:10339000CB094372C1F380138372C1F34013C3722C
:1033A000C1F3001303730023437364460126D4F86A
:1033B0000880002F4FEA1864C8F30745C8F30729AF
:1033C00004D0012F02D0022F3AD04CE08907090D1A
:1033D0000161D1B2026942EA81010161016941EAF8
:1033E00094110161C4F3C201017504F00701417534
:1033F00069098175C5F38201C175A907490F017675
:103400004946027E42EAD11202760269521C047ECB
:10341000A41C06FA04F9A2FB094703FB09774FEA4B
:10342000E97502FB0575027A06FA02F70765A4FB47
:10343000072905FB079504FB0354C0E9122412E099
:103440009106890A0161016941EA0421016101696A
:103450002943016149460269521CD204C0E9122382
:103460004FF4007202651C30C1F3801200F8032C87
:103470008906490E00F8021C08F0FF0110F8022C22
:1034800042EAD11200F8022C01F07F0100F8011C81
:10349000DCF80C20110ECC090470C1F34114447007
:1034A000C1F3820484708907090FC170C2F3074118
:1034B000C47844EA9114C470C1F340140471437198
:1034C00001F001018171C2F30721CC09C471C1F37C
:1034D00080140472C1F340144472C1F30014847266
:1034E000C1F38104C47201F003010173D1B2490830
:1034F000417386734E4A903A11680C0E04740C0C9A
:1035000024024482C1F30724458A254345820906E3
:10351000416151680C0E456945EA04444461C1F3B8
:103520000744456945EA04244461C1F30724456919
:1035300025434561017691680C0E44760C0C2406F7
:10354000C461C1F30724C56945EA0444C461C9B232
:10355000C46944EA0121C161D1680A0EC4691443F7
:10356000C461C1F3074290F8204044EA121480F885
:1035700020401207120D4284C1F30722448C1443E9
:103580004484C9B2490880F8241080F825601846A0
:10359000BDE8F08310B50024274A516B00E0516B61
:1035A00011F0450FFBD0480705D503240420FDF793
:1035B00089FE204610BDC80705D001240120FDF773
:1035C00081FE204610BD40F2FF50FDF77BFE2046F5
:1035D00010BD70B506460C460025174A506B00E03A
:1035E000506B10F0450FFBD0410705D50324042094
:1035F000FDF768FE204670BDC00705D001240120FC
:10360000FDF760FE204670BDFDF7FCFDB04201D025
:10361000102070BD40F2FF50FDF754FE0020FDF772
:10362000F5FD10F4604F09D081040BD5132070BD57
:10363000D00C00202C00002000800140000C2080D5
:103640002846F4E7410401D51020F0E7000401D535
:103650000F20ECE72846EAE72DE9F84F0024012087
:103660000090FDF7A4FDE0B1DFF8E4830026F94DFA
:10367000D8F804004FF0C0094FF4806704282AD01E
:103680002E6002206860C5F80890EE602F61284621
:10369000FDF7A0FDFFF77EFF0446200003D0BDE844
:1036A000F88F2520FBE70020FDF7B0FDDFF8A4A38D
:1036B000AAF1900ACAF800000420FDF7A7FDCAF895
:1036C00004000820FDF7A2FDCAF808000C20FDF751
:1036D0009DFDCAF80C00D8F8040028B1012803D0D9
:1036E000062801D0022811D12E60032068604020F6
:1036F000A860EE602F61D748FDF76CFD6946032096
:10370000FFF767FF0446200000D0C8E7D8F80400A0
:10371000042826D0BDF80000C8F80800000428607E
:1037200009206860C5F80890EE602F61C948FDF770
:1037300051FDFFF72FFF0446200000D0AFE7002027
:10374000FDF764FDC34DA03D28600420FDF75EFD3C
:1037500068600820FDF75AFDA8600C20FDF756FDB3
:10376000E86020469BE710B50024BB4A516B00E09F
:10377000516B11F0450FFBD0480705D503240420F9
:10378000FDF7A0FD204610BD40F2FF50FDF79AFD69
:10379000204610BD10B500204FF48031AE4B5A6B5F
:1037A00001E0491E5A6B12F0450F01D10029F8D1F2
:1037B00009B1510705D503240420FDF783FD2046F8
:1037C00010BD5106FCD500244020FDF77BFD2046AE
:1037D00010BD70B500254FF4803400E0641E24B1A4
:1037E0008020FDF767FD0028F8D02CB140F2FF5093
:1037F000FDF768FD28461AE7032018E72DE9F84F82
:1038000000270097BB460024A24600259148B2211C
:1038100018380175076047608760C7600761FDF76A
:103820009EFC0320FDF7BAFC0120FDF7B4FC894E95
:1038300037607760B760F7604FF48069C6F8109022
:103840003046FDF7C7FCFFF7C4FF00909DF800006D
:1038500010B19DF8000022E74FF4D57030600820C9
:1038600070604FF04008C6F80880F760C6F8109006
:103870007848FDF7AFFCFFF78DFF00909DF8000042
:1038800008B3376037207060C6F80880F760C6F864
:1038900010907048FDF79EFC3720FFF741FB009029
:1038A000376037207060C6F80880F760C6F810905F
:1038B0006848FDF78FFC3720FFF732FB00909DF83A
:1038C000000080B34DE06248012141608D07E7E7C9
:1038D000376037207060C6F80880F760C6F810902F
:1038E0005C48FDF777FC3720FFF71AFB00909DF846
:1038F000000010B19DF80000D1E658482843306020
:1039000029207060C6F80880F760C6F8109051480A
:10391000FDF760FCFFF727FF00909DF8000018B14D
:103920009DF80000BBE606E00020FDF76FFC834633
:103930004FEADB7A641CBAF1000F03D14FF6FF7037
:103940008442C5D34FF6FF70844204D31B200090FD
:103950009DF80000A3E61BF0804F02D03C480221F6
:1039600041609DF800009AE638B500240094FFF706
:103970004BFAFDF7E7FBFFF741FF00909DF80000D1
:1039800010B19DF8000038BDFFF766FE00909DF86D
:10399000000010B19DF8000038BD2E4805211838F0
:1039A0000175046044608460C4600461FDF7D7FB66
:1039B000FFF7F2F927487038FFF7BDFC00909DF83B
:1039C000000038B923487038B0F854000004FFF7FD
:1039D0009FFC00909DF8000020B94FF40060FFF7B5
:1039E00052FC00909DF8000038BD70B50546002DD2
:1039F00016D0174800890104164801600D21416066
:103A0000402181600021C1604FF480610161FDF7B8
:103A1000E1FB0D20FFF784FA04461CB1204606E6C0
:103A2000262004E60020FDF7F1FB28602046FEE595
:103A300008B5012000909DF8000008BD08B50020E1
:103A40000090FFF7F5FF01280AD0FF2008BD000015
:103A50002C000020D00C00200080014000001080CD
:103A60006846FFF7C2FF08B1FF20EFE70098C0F3F8
:103A70004320EBE710B5FFF7E1FF042803D0FF2850
:103A800003D0012010BD002010BD022010BD10B5D4
:103A900000240020FDF782FB204610BD2DE9F047F1
:103AA00005460020FDF7B2FB800102D50E20BDE8DF
:103AB000F087FF4C4027276010206060A7604FF020
:103AC0000008C4F80C804FF48069C4F810902046B8
:103AD000FDF780FB1020FFF723FA0028E7D1F54817
:103AE00000890004206037206060A760C4F80C8063
:103AF000C4F810902046FDF76DFB3720FFF710FA51
:103B00000028D4D104F114004AF6FF76066047601D
:103B1000602181600221C160C0F8108001214161F3
:103B2000FDF77CFBC4F800800D206060A760C4F83E
:103B30000C80C4F810902046FDF74CFB0D20FFF7D9
:103B4000EFF90746380000D0B1E74FF4004ADFF83C
:103B5000688340F22A690CE05046FDF7ABFB40B1A8
:103B60000024FDF77BFB45F82400641C082CF8D3E7
:103B70002035D8F8340010EA090FEDD00820FDF701
:103B800099FB20B10820FDF79DFB04208FE7022060
:103B9000FDF790FB20B10220FDF794FB022086E7A1
:103BA0002020FDF787FB20B12020FDF78BFB0620AE
:103BB0007DE74FF400742046FDF77CFB20B12046E2
:103BC000FDF780FB072072E74FF4001403E0FDF7D8
:103BD00045FB01C5761E2046FDF76CFB08B1002EA3
:103BE000F5D140F2FF50FDF76DFB38465FE710B5A9
:103BF0000446AF488038FFF751FF0146080000D067
:103C000010BDAB4880380278920922700278C2F366
:103C100040126270827812026280C2786388134315
:103C200063800279120662604279636843EA024265
:103C300062608279636843EA02226260C2796368E3
:103C400013436360027A2272427A6272827A1209A4
:103C5000A272C27A1202A281027BA3891343A381BA
:103C6000427B9208A273407B00F00300E073084699
:103C700010BD2DE9F0478046089E14461D468D482C
:103C8000002707700761C7608B49CF624068022830
:103C900003D10602640A44EAC554854D2E60102003
:103CA00068604FF04009C5F80890EF604FF4806AF3
:103CB000C5F810A02846FDF78DFA1020FFF730F95F
:103CC00000281FD105F114004AF6FF71016046601B
:103CD000902181600221C160076101214161FDF7EE
:103CE0009DFA2C6011206860C5F80890EF60C5F857
:103CF00010A02846FDF76EFA1120FFF711F90446CF
:103D00000CB12046D3E6012140F22A30FDF754FAE7
:103D10000120FDF75CFA31464046FFF7D1F8204616
:103D2000C5E62DE9FF5F1446DDE90E6A1D466148D0
:103D30000027077007614FF00108C0F80C805E494A
:103D4000CF624068022803D10602640A44EAC554DF
:103D5000574D2E60102068604FF04009C5F808905C
:103D6000EF604FF4806BC5F810B02846FDF732FACB
:103D70001020FFF7D5F8002822D105F114004AF6EB
:103D8000FF7101600AFB06FAC0F804A0902181606F
:103D90000221C1600761C0F81480FDF73FFA2C6072
:103DA00012206860C5F80890EF60C5F810B028468A
:103DB000FDF710FA1220FFF7B3F804461CB12046B5
:103DC00004B0BDE8F09F012140F22A30FDF7F4F97C
:103DD0000120FDF7FCF951460098FFF771F82046E5
:103DE000EEE710B53248002101600C22426040220B
:103DF0008260C16011010161FDF7ECF9BDE810407E
:103E00000C20FFF78DB870B500254AF6FF742146E7
:103E1000284E00E0491E706928B9306918B9307819
:103E200008B90029F6D100207061234800E0641E23
:103E3000416B890401D5002CF9D1F068012802D129
:103E4000FFF7CFFF05462C4300D1042540F2FF5079
:103E5000FDF738FA307808B13078CCE42846CAE467
:103E60002DE9F0478046089E14461D46114800275C
:103E700007700761C7601049CF624068022803D10C
:103E80000602640A44EAC554094D2E601020686099
:103E90004FF04009C5F80890EF604FF4806AC5F80C
:103EA00010A02846FDF796F91020FFF739F805E035
:103EB000D00C00202C0000200080014000282BD1D5
:103EC0002C6018206860C5F80890EF60C5F810A055
:103ED0002846FDF77FF91820FFF722F800281BD1AC
:103EE00005F114024AF6FF70106056609020906051
:103EF000D7601761012050611046FDF78FF901214D
:103F000040F22A30FDF758F931464046FEF7AAFF45
:103F10000120FDF75CF93846C9E52DE9FF5F14463D
:103F2000DDE90E671D46DFF8F4934FF0000889F8CD
:103F30000080C9F810800120C9F80C00F848C0F8CA
:103F40002C80D9F80400022803D10602640A44EA4E
:103F5000C554F44D2E60102068604FF0400AC5F83B
:103F600008A0C5F80C804FF4806BC5F810B0284647
:103F7000FDF730F91020FEF7D3FF002854D1B9F82F
:103F800008000004286037206860C5F808A0C5F85C
:103F90000C80C5F810B02846FDF71CF93720FEF755
:103FA000BFFF002840D12F6017206860C5F808A027
:103FB000C5F80C80C5F810B02846FDF70BF917209E
:103FC000FEF7AEFF00282FD12C6019206860C5F8DD
:103FD00008A0C5F80C80C5F810B02846FDF7FAF81F
:103FE0001920FEF79DFF00281ED105F114024AF6A4
:103FF000FF7010607743576090209060C2F80C808B
:10400000C2F81080012050611046FDF707F9012128
:1040100040F22A30FDF7D0F80120FDF7D8F83946F4
:104020000098FEF71FFF4046CAE670B500254AF625
:10403000FF742146B94E00E0491E706928B9306905
:1040400018B9307808B90029F6D100207061B44859
:1040500000E0641E416BC90401D5002CF9D1F06861
:10406000012802D1FFF7BDFE05462C4300D10425EF
:1040700040F2FF50FDF726F9307808B13078CEE4F1
:104080002846CCE4A648406B10F4405F01D00120E4
:104090007047002070477CB504460025002201923D
:1040A00000929E489F490089000408600D204860E6
:1040B00040208860CA60000108610846FDF78AF860
:1040C0009749486B009001E04A6B0092009A12F009
:1040D000450FF9D00098400705D503240420FDF7CB
:1040E000F1F820467CBD0098C00705D001240120CE
:1040F000FDF7E8F820467CBDFDF784F800900098B5
:104100000D2801D010207CBD40F2FF50FDF7DAF8F9
:104110000020FDF77BF801900198C0F34320207048
:1041200081490198084201D128467CBD01980028A8
:1041300001DA1C207CBD0198400001D509207CBD1E
:104140000198800001D50A207CBD0198C00001D5EE
:104150000B207CBD0198000101D50C207CBD01988D
:10416000400101D50D207CBD0198C00101D50E2074
:104170007CBD0198000201D50F207CBD0198400252
:1041800001D510207CBD0198800201D511207CBD95
:104190000198C00201D512207CBD0198000301D511
:1041A00013207CBD0198400301D514207CBD0198EB
:1041B000800301D515207CBD0198C00301D51620D0
:1041C0007CBD0198000401D517207CBD01984004F6
:1041D00001D518207CBD0198800401D519207CBD33
:1041E0000198000701D51A207CBD28467CBD2DE929
:1041F000FC4782460D460024002601960096494859
:10420000A0384068000D800602D42520BDE8FC8758
:10421000434840684549C0B2801CB1FBF0F00190B2
:104220000020FCF7F3FF800101D50E20EEE73B48AC
:104230004068022802D14FEA5A2A6D0A394F4FF0DE
:1042400040084FF4806918B1012801D0022820D11C
:10425000C7F800A020207860C7F80880FE60C7F883
:1042600010903048FCF7B6FF2020FEF759FE0028DA
:10427000CCD13D6021207860C7F80880FE60C7F887
:1042800010902848FCF7A6FF2120FEF749FE0028E1
:10429000BCD13E6026207860C7F80880FE60C7F871
:1042A00010902048FCF796FF2620FEF739FE0028E4
:1042B000ACD100E0641C01988442FBD36846FFF750
:1042C000EAFE4AF6FF7403E06846FFF7E4FE641E68
:1042D000002C9BD0002899D19DF800100729F3D01D
:1042E0000629F1D092E770B54FF480752846FCF7A7
:1042F000ECFF0A4C38B1002020702846FCF7EDFF97
:10430000012020613DE00220FCF7DFFF80B10220A8
:10431000FCF7E3FF0220207033E000002C000020B7
:1043200000800140D00C002008E0FFFDC0D4010057
:104330000820FCF7CAFF28B10820FCF7CEFF0420B4
:1043400020701EE02020FCF7C0FF28B12020FCF7E1
:10435000C4FF0620207014E01020FCF7B6FF28B13F
:104360001020FCF7BAFF052020700AE04FF400751A
:104370002846FCF7AAFF20B12846FCF7AEFF07202D
:10438000207000214CF23A30FCF716FF207864E5EB
:104390000B4800680B49084205D00B4901204861D1
:1043A0000A48FCF70FB97047002102E04008491C99
:1043B000C9B20128FAD10846704794E7E8E700003F
:1043C00000040240002000102C00002000F000102B
:1043D00008B5642207E0009202E00099491E0091AE
:1043E00000990029F9DC401E411CF4D108BD70B5CC
:1043F0004FF0D8452A242C80FA4C060A26802080CB
:10440000100A208022802B202880080A208021800A
:10441000180A208023802C20288070BD78B54FF0AA
:10442000D8452A242C80EF4C060A26802080100ACA
:10443000208022802B202880080A20802180180AD2
:10444000208023802E20288020880090002000904B
:1044500003E0BDF80000401C0090BDF800000228F9
:10446000F7D378BDC008C002890840EA4110DD4991
:1044700040EAD20008807047DA4908880988C20AF1
:10448000D202C0F3850042EA401040EAD1207047D2
:1044900030B5D44C238824881D0A05700B70200A7F
:1044A000107030BDCF4A4FF0D841002807D0012806
:1044B0000BD002280FD0032813D0002070473620DD
:1044C000088068201080012070473620088028204E
:1044D000108001207047362008808820108001203D
:1044E000704736200880E820108001207047322075
:1044F0006EE770B5FFF7FBFFCF204FF0D84528805F
:104500000020B84C20808120208030202080FFF7C0
:10451000EEFFED20288064202080032020801220E0
:10452000208081202080FFF7E2FFE820288085207E
:1045300020801020208078202080FFF7D8FFCB201B
:104540002880392020802C202080002020803420CA
:10455000208002202080FFF7CAFFF720288020203B
:104560002080FFF7C4FFEA202880002020802080E0
:10457000FFF7BDFFB1202880002020801B20208075
:10458000FFF7B5FFB62028800A202080A2202080D7
:10459000FFF7ADFFC020288025202080FFF7A7FF70
:1045A000C120288010202080C52028804520208020
:1045B0002080C7202880A2202080F2202880002090
:1045C00020802620288001202080FFF790FFE02017
:1045D00028800F20208026202080242020800B206F
:1045E00020800E2020800920208054202080A820B8
:1045F0002080462020800C20208017202080092049
:1046000020800F2020800720208000202080E120B3
:10461000288000202080192020801B20208004205A
:10462000208010202080072020802A202080472002
:1046300020803920208003202080062020802080B8
:1046400030202080382020800F202080FFF74FFF6F
:1046500036202880C8202080FFF749FF2A202880A4
:104660000020208020802080EF202080FFF73FFF67
:104670002B202880002020802080012020803F20C7
:104680002080FFF734FF3A20288055202080112019
:104690002880FFF72CFF2920288070BDA7E6BDE603
:1046A00030B501F007044F4B21F00702082C1CD253
:1046B000DFE804F01B0406080A0C0E10114613E094
:1046C000114610E011460DE011460AE0114607E0E0
:1046D000114604E0114601E008391880188018805E
:1046E000188018801880188018800029F4DC30BDEC
:1046F00030B501F007043B4B21F00702082C2CD207
:10470000DFE804F02B0406080A0C0E10114621E025
:1047100011461CE0114617E0114612E011460DE06B
:10472000114608E0114603E0083930F8022B1A80E0
:1047300030F8022B1A8030F8022B1A8030F8022B46
:104740001A8030F8022B1A8030F8022B1A8030F8C9
:10475000022B1A8030F8022B1A800029E4DC30BDCD
:104760002049088070477DE686E691E670B51446DC
:10477000049E1D464A19521E93B20219521E92B24D
:10478000FFF735FE04FB05F13046BDE8704087E7D2
:104790002DE9F04F8046099F894692469B460026A8
:1047A0001CE000243D4614E009EB0B00401E83B2E0
:1047B00008EB0A00401E82B209EB060081B208EB4A
:1047C000040080B2FFF72AFEFFF756FE25F8020B21
:1047D000641C5445E8DB0A980744761C5E45E0DB20
:1047E000BDE8F08FFEFFFF6F2DE9F0470D46DDE9D4
:1047F00008471646994605EB0908A8F101018BB256
:104800008119491E8AB22946FFF7F1FDB6EB670F01
:104810000DD01FFA88F806E020463146FFF768FF02
:104820003C446D1CADB24545F6D3BDE8F08720464B
:1048300006FB09F1BDE8F0475AE738B510208DF8BE
:10484000030003208DF802004020ADF80000194D50
:1048500069462846FCF719FAEC14ADF800406946A1
:104860002846FCF712FA21462846FCF77DFA32204A
:1048700006F08BFA21462846FCF778FA322006F03B
:1048800084FA21462846FCF76FFA322006F07DFABA
:10489000FFF72FFE0020FFF705FE38BD054A002870
:1048A00003D040211046FCF761BA40211046FCF7C6
:1048B0005BBA00000020014038B501208DF80200ED
:1048C00010248DF803408002ADF80000A44D694625
:1048D0002846FCF7DAF98DF803408021ADF8001086
:1048E0006946A048FCF7D1F98DF80340E001ADF826
:1048F000000069462846FCF7C8F948248DF80340B3
:104900004021ADF8001069462846FCF7BEF98DF845
:1049100003406815ADF8000069462846FCF7B5F974
:10492000012038BD08B5002207E0009202E000999E
:10493000491C009100990229F9DB011EA0F1010038
:10494000F3DC08BD864808300068800501D40120EA
:104950007047002070472DE9F0470546814F8026BB
:104960007E610024DFF8F8914FF4006809F1100926
:1049700009F1040A280602D5C9F8008001E0CAF846
:1049800000806806050E0120FFF7CCFF7E61012044
:10499000FFF7C8FF3E610120FFF7C4FF7E61641C82
:1049A000082CE7DBBDE8F08770B5491C11E050F832
:1049B00021504B1E03E05E1C40F826405B1E002B7E
:1049C00003DB50F82340AC42F5DC5B1C40F823507D
:1049D000491C9142EBDD70BD2DE9F0470025002414
:1049E000604F80267E615E49320114310A604FF4C7
:1049F0008068C1F80080FFF7AEFF0620FFF792FF46
:104A00007E610120FFF78EFF3E610120FFF78AFFE4
:104A10007E61DFF84CA14FF6FF790AF1080A09EA36
:104A200044047E610120FFF77DFF3E61DAF800005B
:104A3000400601D544F001046D1CEDB2102DEED3FB
:104A4000200947491031C1F80080ABE72DE9F0415A
:104A500006460F460024444D9020FFF7BDFF45F861
:104A60002400641CA4B20C2CF6D30B2200213E4877
:104A7000FFF79AFF288BA98B084480B24FEA5008B1
:104A80000024D020FFF7A8FF45F82400641CA4B23E
:104A90000C2CF6D30B2200213348FFF785FF288B1F
:104AA000A98B084480B24008A6F800803880012015
:104AB000BDE8F08110B52D4900200860FFF7FCFE2D
:104AC000012010BD10B5FFF73DFF284910B10120AE
:104AD000086010BD0020086010BD1CB504462348C6
:104AE0000068012801D000201CBD694601A8FFF71D
:104AF000ADFFBDF804002060BDF80000606001203B
:104B00001CBD10B504462046FFF7E7FF38B122462A
:104B1000F0214FF4A07006F09AF9012010BD012099
:104B200010BD10B510218180C180202202814181F9
:104B30008281C2810182428214220021FEF702F8A2
:104B4000012010BD10B5044600202080FDF736FF7F
:104B5000142200212046FDF790FF012010BD000027
:104B6000001C014000200140FC0C002044000020FB
:104B7000F8B501210802FCF783FA01214FF4F07027
:104B8000FCF789FA4CF20370ADF8000018208DF89C
:104B9000030003248DF80240544E69463046FCF76A
:104BA00074F84FF68070ADF80000514D6946284604
:104BB000FCF76BF84FF23F01ADF8001069464D4825
:104BC000FCF763F83F21ADF800104B4F69463846BB
:104BD000FCF75BF84FF46051ADF8001069463046C1
:104BE000FCF753F83021ADF8001069463046FCF769
:104BF0004CF82915ADF8001069463846FCF745F821
:104C0000A814ADF8000069463846FCF73EF8ADF848
:104C1000004069462846FCF738F8F8BD00B597B063
:104C200002210191002002900391049005900690CA
:104C300007900421089109900A9010210B910C9083
:104C40000D900E900F9010900902119112901390F8
:104C5000149001A81590169008A8FBF788FD012173
:104C60000420FBF7B8FE17B000BD00B59FB00420CC
:104C7000ADF8040018208DF8070003208DF8060019
:104C800001A91B48FCF701F80121099100200A90B5
:104C90000B910C900D900E900A070F9202910390C9
:104CA0000221049105900690079008920621109128
:104CB00011900821129110211391149015901690C3
:104CC00017901890090219911A9089001B911C9055
:104CD00002A81D9009A81E9010A8FBF748FD01210D
:104CE0000620FBF778FE1FB000BD00000014014055
:104CF00000180140001C01400020014070B5502008
:104D0000EFF3118480F31188BFF34F8FBFF36F8FE0
:104D10004FF400152846FBF75FFC58B12846FBF717
:104D200051FC2846FBF767FC65480021816040681C
:104D300006F00BF884F3118870BD70B58CB0054691
:104D40005F4CE5600121002005F0E5FF6060012176
:104D50000846FCF795F90024029401951025039567
:104D60000494059406942801079080000890099403
:104D70004FF440500A90A8020B90524E01A93046C1
:104D8000FBF7CBFB012202213046FBF7FDFB6E0453
:104D90003046FBF717FC3046FBF72DFC8DF8005032
:104DA00006208DF801008DF8024001208DF80300E7
:104DB0006846FBF7E4FA0CB070BD414881680129F0
:104DC000FCD070472DE9F05F0D46144699463D4EE4
:104DD0006C3EB56770674FF6F07A4FF00108384FB8
:104DE0004FEA4A0B1AE0544520DDF06E20F0010036
:104DF000F066C6F870A0A4F57F44F03CC7F80880C0
:104E0000F06E40F00100F0664FF47A71786805F0BA
:104E100087FFB9F1000F01D05D44B567002CE2DCDB
:104E2000F06E20F00100F066BDE8F09FF06E20F01B
:104E30000100F0663467C7F80880F06E40F00100AA
:104E4000F0664FF47A71786805F06AFFE8E710B50C
:104E500003460A46B2F5C87F01DA002010BDFFF70D
:104E6000ACFF174C238017486C38C16E21F08001CD
:104E7000C166C16E21F04001C16600232146E06891
:104E8000FFF7A0FF012010BD10B504460A46B2F599
:104E9000C87F01DA002010BDFFF78FFF09496C3988
:104EA000C86E20F04000C866C86E40F08000C8663A
:104EB000034801232146C068FFF784FF012010BD8D
:104EC000480000206C00024001460120002900D16A
:104ED0000020704710B50124002803D1FEF744FDDF
:104EE00000B90024204610BD2DE9F041ADF5007D4C
:104EF00007460E4614461D460420002F1CD1B0075D
:104F00004FF400781CD013E02246641C012369464C
:104F10000020FFF7E9FF07466FB904F01BFA42468D
:104F20006946304611F0F4FF04F02EFA06F50076DB
:104F30006D1E681CE8D138460DF5007DBDE8F08196
:104F4000CDE90085620200233046FEF7EAFE044602
:104F500034B9FEF758FF0446FEF78CFD0028FBD15C
:104F60000CB10420E8E70020E6E7F0B5ADF5017DDF
:104F700007460E4614461D460420002D07D0002F7C
:104F800006D1B0074FF400771DD0002017E00420B1
:104F90000DF5017DF0BD04F0DDF93A46314601A87A
:104FA00011F0B6FF04F0F0F92246641C012301A9B8
:104FB0000020FFF7DAFF0028EAD106F500766D1E23
:104FC000691CE8D1E4E7CDE90075E30D62023046E3
:104FD000FEF7A3FF044634B9FFF727F80446FEF7AF
:104FE00049FD0028FBD10CB10420D1E70020CFE718
:104FF00010B5034614460420002B16D1A1B1012997
:105000000BD0022902D003290ED103E04FF4007027
:10501000208009E00120206006E005490023483196
:1050200007C911F044FF2060002010BD01487047FF
:10503000600C00200000214603E011F8013B00F85D
:10504000013B521E531CF8D17047C9B201E000F871
:10505000011B521E531CFAD1704710B50023521E7B
:10506000541C05D010F8013B11F8014B1B1BF6D066
:10507000184610BD00E0401C02780AB18A42FAD1FD
:10508000007870472DE9F041044600272079002878
:105090001FD0E66A04F13001607801233246884669
:1050A000FFF763FF08B1012713E000202071206A99
:1050B000A169301A88420CD2E57808E0A06906445C
:1050C0006078012332464146FFF74FFF6D1E022DE7
:1050D000F4D23846BDE8F08170B504460E4600258E
:1050E000E06AB04210D02046FFF7CCFF05465DB91C
:1050F00060780123324604F13001FFF7F5FE10B16C
:105100004FF0FF360125E662284670BD70B50446B3
:105110002046FFF7B7FF054628004FD12078032827
:1051200045D16079012842D104F130006289002123
:105130000646FFF78AFF552084F82E02AA2084F83D
:105140002F02522084F8300084F83100612084F866
:105150003200412184F83310722284F8142284F83A
:10516000152284F8161284F81702206984F81802B0
:10517000010A84F81912010C84F81A12000E84F83E
:105180001B02E06884F81C02010A84F81D12010C5D
:1051900084F81E12000E84F81F02E269521CE262BB
:1051A000607801233146FFF7E0FE002060710022A5
:1051B00060781146FFF71CFF00B10125284670BD3D
:1051C000891E4269921E8A4201D800207047826A75
:1051D000807801FB002070472DE9F04104460D4620
:1051E000022D02D36069A84201D8012609E04FF0E0
:1051F000FF362078012806D0022834D003284AD070
:105200000126304666E705EB55076089216AB7FB42
:10521000F0F001442046FFF75FFF0028F1D16089DC
:105220003946B1FBF0F200FB121121447F1C91F8CA
:105230003080B7FBF0F0216A01442046FFF74CFFB5
:105240000028DED16089B7FBF0F100FB117020442B
:1052500090F8300048EA0020E90701D00609D0E7BD
:10526000C0F30B06CDE76089216A4008B5FBF0F07A
:1052700001442046FFF730FF0028C2D16189680051
:10528000B0FBF1F201FB120020443030017840788D
:1052900041EA0026B5E76089216A8008B5FBF0F095
:1052A00001442046FFF718FF0028AAD16189A80011
:1052B000B0FBF1F201FB1200204430300178C278DB
:1052C00041EA026182784078120442EA00200143F8
:1052D00021F0704695E72DE9F04704460D46164645
:1052E000022D02D36069A84202D80220BDE8F087EF
:1052F000207806F0FF094FF00108012805D00228A8
:1053000042D003285AD00220F0E705EB5507608908
:10531000216AB7FBF0F001442046FFF7DDFE0028CC
:10532000E4D1384661897F1CB0FBF1F201FB120029
:1053300020443030E90703D0017869F31F1100E001
:105340003146017084F804806089216AB7FBF0F06F
:1053500001442046FFF7C0FE0028C7D16189B7FB92
:10536000F1F201FB127121443031EA0702D0C6F399
:10537000071205E00A78C6F3032302F0F0021A438D
:105380000A7084F80480B1E76089216A4008B5FB9F
:10539000F0F001442046FFF79FFE0028A6D1628965
:1053A0006900B1FBF2F302FB1311214481F8309044
:1053B000320A81F8312084F8048097E76089216AF5
:1053C0008008B5FBF0F001442046FFF785FE002879
:1053D0008CD16289A900B1FBF2F302FB13112144C5
:1053E00030314FF07043CA7803EA026232430A70E8
:1053F000130A4B70130C8B70120ECA7084F8048061
:1054000074E72DE9F04104460F46022F02D360698C
:10541000B84201D8022624E000261FE03946204683
:10542000FFF7DAFE0546E5B1012D09D0681C09D069
:10543000002239462046FFF74EFF06468EB903E0AC
:1054400002260EE001260CE02069411C05D0401C1C
:105450002061607940F0010060712F466069B842B8
:10546000DCD8304636E62DE9F04106460F46002FDF
:1054700007D039463046FFF7AFFE022808D2012098
:1054800028E6F56815B17069A84207D8012505E03E
:10549000411CF5D071698142F2D83D462C46641C0E
:1054A0007069A04204D80224022D01D2002011E626
:1054B00021463046FFF790FE38B1411CE0D001286C
:1054C000DED0AC42EBD1002004E66FF07042214602
:1054D0003046FFF700FF28B927B12246394630464B
:1054E000FFF7F9FE20B101280DD001242046F1E597
:1054F000F4603069411CF9D0401E3061707940F091
:1055000001007071F2E74FF0FF34EFE770B5044629
:105510000D46E580A368012B03D0206841699942BC
:1055200001D8022070BD1BB90178032900D1436A5C
:1055300023B1418980784E09464318E00189A94288
:1055400001D8022070BD406A17E019462068FFF7B5
:1055500043FE0346581C07D0022B03D32068406942
:10556000984203D8022070BD012070BDAD1BB5422A
:10557000EBD219462068FFF723FEE36098B121685B
:105580004A895209B5FBF2F210442061488940096A
:10559000B5FBF0F200FB1250302202EB4010084441
:1055A0006061002070BD022070BD2DE9F04104460D
:1055B0000E46E7887F1C3804000C0AD0216941B1EF
:1055C000206842895209B7FBF2F302FB137212B151
:1055D00065E004207EE5491C2161E16871B14289E2
:1055E00083785209B7FBF2F25B1E1A4257D1FFF7DC
:1055F000F3FD0546012D06D802206BE50089B8426F
:105600004DD8042066E5681C14D020684169A94281
:105610003FD88EB1E168FFF726FF054628000DD080
:10562000012D0DD0681C0DD02068FFF72BFD58B15F
:1056300001204FE501204DE504204BE5072049E519
:10564000022047E5012045E52068002142893030ED
:10565000FFF7FBFC29462068FFF7B2FD2168C8620E
:1056600000264FF001080CE080F804802068FFF766
:1056700009FD08B101202DE52068C16A491CC162FD
:10568000761C20688178B142EED82168C96A891BEE
:10569000C162E56029462068FFF792FD2061E7803E
:1056A000206841894909B7FBF1F201FB12713022F0
:1056B00002EB41110844606100200BE570B505461E
:1056C0000E4600212846FFF721FF88B900242969EA
:1056D0002868FFF701FD58B969690978E5290BD0F9
:1056E00051B1002401212846FFF75FFF0028EED0CA
:1056F000042800D1072070BD641CB442F8D0F1E743
:105700000246887ECB7E40EA03201278032A05D128
:105710000A7D497D42EA012140EA014070478176D5
:105720000A0AC2760A0C0275090E4175704770B5F7
:10573000044600212046FFF7E9FE002818D1216920
:105740002068FFF7C9FC05468DB96069017881B111
:10575000C17A090704D40B22A169FFF77EFC30B19E
:1057600000212046FFF721FF0546002DE7D02846FF
:1057700070BD0425FBE770B504460D46042020E00B
:105780002068FFF7A9FCF8B962691178A9B1D27A4B
:1057900002F03F02E5290AD02E2908D00F2A06D0B0
:1057A00022F0200108290AD00021A9420CD00021B2
:1057B0002046FFF7FAFE20B106E0042004E00121B4
:1057C000F3E721690029DBD1002801D00021216104
:1057D00070BD70B5044601212046FFF76FFF0546F6
:1057E00095B921692068FFF777FC054665B9202245
:1057F00000216069FFF729FCD4E905010B22FFF7BE
:105800001BFC216801200871284670BD70B5044654
:105810002046E188FFF77AFE054685B921692068B0
:10582000FFF75AFC054655B9202200216069FFF7B1
:105830000CFC6169E5200870216801200871284688
:1058400070BD30B501F109020369002B29D0406910
:1058500000232E251C465B1C045D202C08D0052C43
:1058600000D1E524092B01D102F8015B02F8014BBC
:105870000B2BEFD3C37A0B72037FC47F457F43EAC0
:105880000463847F240444EA052423430B60037EDD
:10589000447E43EA04238B80837DC07D43EA00205D
:1058A000C8800020107030BD2DE9F05F8B46DBF81A
:1058B000008001E008F1010898F800102F29F9D0C4
:1058C0005C29F7D0D0F818900B2220214846FFF72A
:1058D000BCFB00252E462F464FF0080A38467F1C99
:1058E00018F80040202C0BD92F2C09D05C2C07D0A5
:1058F0002E2C01D0564516D3BAF1080F0AD107E075
:1059000008EB0700CBF80000202C47D8042046E025
:105910002E2C02D00620BDE8F09F08264FF00B0A7F
:10592000A806050EDAE7802C01D345F00305A4F1A3
:1059300081007D2817D838467F1C18F80000A0F198
:1059400040013F2902D340397F2903D2AAF1010146
:105950008E4201D30620DEE7711C09F806404E1C7A
:1059600009F80100BAE72146FDA0FFF783FB08B163
:105970000620D0E7A4F14100192802D845F002051D
:1059800007E0A4F16100192803D845F00105203C87
:10599000E4B23046761C09F800409FE7002026B1AB
:1059A00099F80010E52902D004E00620B3E70521AC
:1059B00089F80010BAF1080F01D1A9060D0E05F003
:1059C0000301012901D140F01000C5F38101012933
:1059D00001D140F0080089F80B0000209BE773B567
:1059E0000446019908782F2801D05C2801D1491C70
:1059F00001910025A56001980078202805D200219A
:105A00002046FFF783FD65617CBD01A92046FFF7B5
:105A10004BFF0028F8D12046FFF789FEA169C97A1B
:105A200028B10428F0D14907EED405207CBD4907F0
:105A3000FCD46169C87AC00601D405207CBD206809
:105A4000FFF75EFEA060E0E710B504464FF0FF30C0
:105A50002368002B0BD0194600E0491C0A78212A44
:105A600001D33A2AF9D10A783A2A01D0002010BD90
:105A700013F8012B303A0A2AF9D28B42F7D1022AC5
:105A8000F5D21046491C216010BD10B50446002017
:105A90002071401EE0622046FFF71EFB08B1032084
:105AA00010BD94F82E0294F82F1240EA0120A0F5C0
:105AB0002A41553901D0022010BD14F8660FE17853
:105AC000627840EA0161A078663C000440EA022066
:105AD0000143A748B0EB012F01D1002010BD14F8FD
