:020000040800F2
:1000000090DB0020DD010008F51D0008F71D000849
:10001000011E0008051E0008091E0008000000005F
:100020000000000000000000000000004501000882
:100030000D1E000800000000890100080F1E0008C6
:10004000F7010008F7010008F7010008F7010008B0
:10005000F7010008F7010008F7010008F7010008A0
:10006000F7010008F7010008F7010008F701000890
:10007000F7010008F7010008F7010008F701000880
:10008000B9480008F7010008F7010008F701000867
:10009000F7010008F7010008F7010008F701000860
:1000A000F7010008F7010008F7010008F701000850
:1000B000F7010008F7010008F7010008F701000840
:1000C000F7010008F7010008F7010008F701000830
:1000D000F7010008F7010008F7010008F701000820
:1000E000F7010008F7010008F7010008F701000810
:1000F000F7010008F7010008F7010008F701000800
:10010000F7010008B33C0008F7010008F7010008F8
:10011000F7010008F7010008F7010008F7010008DF
:10012000F7010008F7010008F7010008F7010008CF
:10013000DFF80CD015F09CFB00480047611D00085B
:1001400090DB0020224B19680868B0E8F00F80F3BC
:100150000988BFF36F8F4FF0000080F311884EF0D5
:100160000D0E70470000000006480068006880F32C
:10017000088862B661B6BFF34F8FBFF36F8F00DFA1
:1001800000BF00BF08ED00E0EFF30980BFF36F8F01
:100190000F4B1A6820E9F00F106008B54FF05000BF
:1001A00080F31188BFF34F8FBFF36F8F09F07FF893
:1001B0004FF0000080F31188BDE808401968086816
:1001C000B0E8F00F80F30988BFF36F8F704700BF6E
:1001D00060000020EFF3058070470000064880476C
:1001E00006480047FEE7FEE7FEE7FEE7FEE7FEE71C
:1001F000FEE7FEE7FEE7FEE7DF0200083101000848
:100200000CB50020019000906C48006840F48030EC
:100210006A49086000BF6948006800F40030009037
:100220000198401C0190009818B90198B0F5A06F92
:10023000F1D16248006800F4003010B10120009054
:1002400001E0002000900098012843D15C4800683C
:1002500040F010005A4908600846006820F003008A
:1002600008600846006840F0020008605348406893
:10027000524948600846406848600846406840F473
:10028000806048600846406820F47C10486008465A
:10029000406840F4E81048600846006840F080700C
:1002A000086000BF4548006800F000700028F9D0E1
:1002B0004248406820F003004049486008464068D2
:1002C00040F00200486000BF3C48406800F00C006D
:1002D0000828F9D10CBD10B5FFF792FF10BD10B57D
:1002E0003648006840F0010034490860084640681C
:1002F000344908403149486008460068324908409E
:100300002E4908600846006820F4802008600846EE
:10031000406820F4FE0048604FF41F008860FFF73B
:10032000DAFF4FF000602949086010BD10B50021C8
:1003300000200022214B5B6803F00C0121B104294D
:1003400006D0082928D107E0214B224C236027E062
:100350001F4B204C236023E0184B5B6803F47010A4
:10036000164B5B6803F48032022303EB904022B902
:10037000194B4343174C23600DE0104B5B6803F4AB
:10038000003323B1144B4343124C236003E0104B62
:100390004343104C236003E00D4B0E4C236000BF21
:1003A00000BF064B5B68C3F303130C4CE15C094BC5
:1003B0001B68CB40074C236010BD000000100240BA
:1003C000002002400000FFF8FFFFF6FE08ED00E00D
:1003D00000127A000000002000093D000400002007
:1003E00031490143314A1160704770B50021002343
:1003F0000F22C47804B32D4C246804F4E064C4F5DF
:10040000E064210AC1F10403CA40447804FA03F10C
:100410008478144021430901254C0678A1550478BD
:1004200004F01F050124AC4005786D11AD0005F105
:10043000E025C5F8004109E0047804F01F05012417
:10044000AC401C4D0678761145F8264070BD1A4A1E
:100450000A400243154B1B1F1A60704739B1134AFB
:10046000121D12680243114B1B1D1A6006E00F4A51
:10047000121D126882430D4B1B1D1A607047042821
:1004800008D14FF0E021096941F004014FF0E0226A
:10049000116107E04FF0E021096921F004014FF0FC
:1004A000E0221161704700000000FA050CED00E049
:1004B00000E400E080E100E080FFFF1F01684FF6EC
:1004C000FE72114001600021016041608160C160E5
:1004D0008D49884208D18C490839496841F00F019B
:1004E000894A083A51608AE087491431884208D124
:1004F00085490839496841F0F001834A083A51605A
:100500007DE081492831884208D17F49083949680E
:1005100041F470617C4A083A516070E07A493C319C
:10052000884208D178490839496841F47041764ACF
:10053000083A516063E074495031884208D17249E9
:100540000839496841F470216F4A083A516056E011
:100550006D496431884208D16B490839496841F4D2
:100560007001694A083A516049E067497831884228
:1005700008D165490839496841F07061624A083A12
:1005800051603CE06149884206D1011F096841F091
:100590000F01021F116032E05C491431884208D11A
:1005A0005A49091F096841F0F001584A121F1160A9
:1005B00025E056492831884208D15449091F096865
:1005C00041F47061514A121F116018E04F493C31EB
:1005D000884208D14D49091F096841F470414B4ACE
:1005E000121F11600BE049495031884207D1474939
:1005F000091F096841F47021444A121F11607047B5
:1006000010B50022026847F6F0739A430C6A8B68B3
:1006100023430C6923434C6923438C692343CC69EE
:1006200023434C6A23438C6A23431A430260CB68FA
:1006300043600B6883604B68C36010BD002101609C
:1006400041608160C160016141618161C16101629C
:1006500041628162704721B1026842F0010202608A
:1006600004E002684FF6FE731A40026070471AB148
:1006700003680B43036002E003688B430360704729
:10068000416070470146486880B2704701460020CB
:10069000002201F080531BB11C4B083B1A6802E09A
:1006A000194B083B1A6802EA01030BB1012000E074
:1006B0000020704700F0805119B11449091F0860EB
:1006C00002E01149083948607047014600200022C5
:1006D00001F080531BB10D4B083B1A6802E00A4B36
:1006E000083B1A6802EA01030BB1012000E0002078
:1006F000704700F0805119B10449091F086002E0F9
:100700000149083948607047080002400804024067
:1007100030B943F2DB028100A1F1C0410A6005E07B
:1007200043F2D2028100A1F1C0410A606FF0704231
:10073000411C8900A1F1C0410A608100A1F1C041C2
:10074000C1F80421704710280AD118214FF0204227
:100750001166402151664FF0FC319166D16610E080
:100760001821F74A116040214FF02042C2F884104E
:100770004FF0FC31F24A083211604FF02042C2F8CB
:100780008C1070471820EE492031086000200906BF
:10079000C1F8A4004FF0FC30E94928310860091D78
:1007A0000860091D08607047D0E901121143C26852
:1007B0001143026911434269114382691143C269BD
:1007C0001143026A1143426A1143826A1143C26AA9
:1007D0001143026B114302689200A2F1C042116002
:1007E000816808290BD101688900A1F1C04109681D
:1007F00041F0400201688900A1F1C0410A60416BEB
:100800000968426B526841EA0211426B926841EA00
:100810000221426B928941EA0241426B128A41EA0B
:100820000251426B127D41EA0261426B92691143AF
:100830000268521C9200A2F1C0421160C16AB1F577
:10084000804F1BD1816B0968826B526841EA0211AB
:10085000826B926841EA0221826B128A41EA02515C
:10086000826B127D41EA0261826B926911430268D8
:100870009200A2F1C042C2F8041107E06FF070428A
:1008800001688900A1F1C041C1F80421704730B569
:10089000002100220023446844F0080485682C43AA
:1008A000C5682C4305692C43456944EA452485699C
:1008B00044EA4531C4692468C5696D6844EA052481
:1008C000C5692D8944EA0544C5692D7B44EA056262
:1008D000046A2468056A6D6844EA0524056A2D895E
:1008E00044EA0544056A2D7B44EA05630468102C3C
:1008F00005D14FF020442166A266E36608E0904CE3
:1009000021604FF02044C4F888208D4C0C342360C3
:1009100030BD016841F01001426841EA422182681D
:1009200041EA4231864A20321160C1680968C268D2
:10093000526841EA0221C268128941EA0241C26852
:10094000127B41EA02617E4A28321160016909681E
:100950000269526841EA02210269128941EA0241B0
:100960000269127B41EA0261754A2C3211604169C9
:1009700009684269526841EA02214269128941EAE2
:1009800002414269127B41EA02614FF02042C2F803
:10099000B010704700210160022141600021816098
:1009A000C160016141618161C16101624FF48051A7
:1009B0004162490081620021C16201630F21426BE3
:1009C0001160426B5160FF21426B91600F21426BBD
:1009D000D160426B1161426B51610021426B9161A8
:1009E0000F21826B1160826B5160FF21826B9160DD
:1009F0000F21826BD160826B1161826B516100218A
:100A0000826B91617047102101600021416081601B
:100A1000C160016141618161FC21C2691160C269EB
:100A20005160C2699160C269D160026A1160026A54
:100A30005160026A9160026AD160704700210160D2
:100A400041608160FC21C2681160C2685160C26867
:100A50009160C268D16002691160026951600269E7
:100A600091600269D16042691160426951604269D6
:100A700091604269D160704751B18200A2F1C042D9
:100A8000126842F001038200A2F1C042136009E043
:100A90008200A2F1C04212682A4B1A408300A3F1DF
:100AA000C0431A60704799B1102808D14FF0204216
:100AB000126E42F004024FF020431A661DE0204AF5
:100AC000126842F004024FF02043C3F8802014E083
:100AD000102809D14FF02042126E1A4BDB1E1A402B
:100AE0004FF020431A6608E0154A1268154BDB1ECA
:100AF0001A404FF02043C3F88020704748B1104996
:100B00002031096841F004014FF02042C2F8A010E2
:100B100009E00B49203109680A4AD21E11404FF002
:100B20002042C2F8A0107047B9B110280CD14FF084
:100B30002042126E42F040024FF020431A661FE03E
:100B4000800000A0FEFF0F00724A126842F04002CF
:100B50004FF02043C3F8802012E0102808D14FF056
:100B60002042126E6C4B1A404FF020431A6607E089
:100B7000684A1268684B1A404FF02043C3F880203F
:100B8000704701460020102903D14FF02042506FDA
:100B900002E0604A14321068704710B5F2B11028B4
:100BA00007D14FF020435B6E0B434FF02044636648
:100BB00032E0B0F5807F08D1564B1B1D1B680B43FC
:100BC0004FF02044C4F8843026E0524B24331B6895
:100BD0000B434FF02044C4F8A4301DE0102807D187
:100BE0004FF020435B6E8B434FF02044636613E06D
:100BF000B0F5807F08D1474B1B1D1B688B434FF01E
:100C00002044C4F8843007E0424B24331B688B43F4
:100C10004FF02044C4F8A43010BD10B502460020A7
:100C20000023102A03D14FF02044636E09E0B2F58F
:100C3000807F03D1374C241D236802E0354C2434D7
:100C4000236803EA01040CB1012000E0002010BD7C
:100C5000102807D14FF02042526E8A434FF02043B4
:100C60005A6613E0B0F5807F08D12A4A121D126837
:100C70008A434FF02043C3F8842007E0254A2432FA
:100C800012688A434FF02043C3F8A420704770B520
:100C900002460020002300240025102A03D14FF033
:100CA0002046736E09E0B2F5807F03D1194E361DE0
:100CB000336802E0174E2436336803EA010403EA7E
:100CC000D10514B10DB1012000E0002070BD102845
:100CD00008D14FF02042526E22EAD1024FF0204359
:100CE0005A6615E0B0F5807F09D10A4A121D1268D4
:100CF00022EAD1024FF02043C3F8842008E0054ADD
:100D00002432126822EAD1024FF02043C3F8A42013
:100D100070470000800000A0BFFF0F0010B5044620
:100D2000CC48844208D10121042000F02DFB002191
:100D3000042000F029FB46E0C748844208D1012185
:100D4000082000F021FB0021082000F01DFB3AE004
:100D5000C248844208D10121102000F015FB002177
:100D6000102000F011FB2EE0BD48844208D1012183
:100D7000202000F009FB0021202000F005FB22E0EC
:100D8000B848844208D10121402000F0FDFA00213A
:100D9000402000F0F9FA16E0B348844208D101215E
:100DA000802000F0F1FA0021802000F0EDFA0AE046
:100DB000AE48844207D10121801500F0E5FA0021F8
:100DC000A01500F0E1FA10BD10B50121084600F0B1
:100DD000DBFA0021012000F0D7FA10BD2DE9F04127
:100DE000024600250026002000230024002791F859
:100DF00003C00CF00F0591F803C00CF0100CBCF10F
:100E0000000F03D091F802C04CEA050591F800C02C
:100E1000BCF1000F31D0146800202BE04FF0010C22
:100E20000CFA00F3B1F800C00CEA03069E4220D190
:100E300083004FF00F0C0CFA03F7BC4305FA03FCD8
:100E40004CEA040491F803C0BCF1280F06D14FF01E
:100E5000010C0CFA00FCC2F814C00AE091F803C0BF
:100E6000BCF1480F05D14FF0010C0CFA00FCC2F8A0
:100E700010C0401C0828D1D31460B1F800C0BCF1E8
:100E8000FF0F34DD546800202EE000F1080C4FF015
:100E9000010808FA0CF3B1F800C00CEA03069E4200
:100EA00021D183004FF00F0C0CFA03F7BC4305FA75
:100EB00003FC4CEA040491F803C0BCF1280F05D1EF
:100EC00000F1080C08FA0CF8C2F8148091F803C07D
:100ED000BCF1480F07D100F1080C4FF0010808FAE7
:100EE0000CF8C2F81080401C0828CED35460BDE82E
:100EF000F0814FF6FF710180022181700421C170E1
:100F000070470246002093680B400BB1012000E0BF
:100F1000002070470146886880B270470246002072
:100F2000D3680B400BB1012000E000207047014660
:100F3000C86880B2704701617047416170470AB16B
:100F4000016100E041617047C16070474FF4803239
:100F50000A438261816182618269826970470246C7
:100F60000020434B18684FF68073184040EA021087
:100F700008433F4B186070473E49C8617047F0B561
:100F80000A46002300240021002500F00046B6F1A7
:100F9000004F02D1364EF16901E0354E7168C0F361
:100FA000034583B200F44016B6F5401F08D121F086
:100FB00070612F4E766826F070662D4F7E6012E0CD
:100FC00000F48016B6F5801F06D1032606FA05F454
:100FD000A14341F0706106E0460D360103FA06F6C2
:100FE000B14341F0706122B1460D360103FA06F6B5
:100FF000314300F00046B6F1004F02D11C4EF161C2
:1010000001E01B4E7160F0BD30B500228B071C0F54
:101010000F2303FA04F2164B08338C1053F82430D4
:101020009343134C08348D1044F8253023468C101C
:1010300053F824308C07240F00FA04F423430C4C9B
:1010400008348D1044F8253030BD0A49DC31086081
:101050007047000000080140000C014000100140F2
:101060000014014000180140001C01400020014014
:101070000000014000002042DF48006840F001000D
:10108000DD49086008464068DC490840DA494860A4
:1010900008460068DA490840D749086008460068F1
:1010A00020F4802008600846406820F4FE00486074
:1010B0004FF41F0088607047CF49096821F48031E0
:1010C000CD4A11601146096821F480211160B0F504
:1010D000803F03D0B0F5802F0ED106E0C6490968E5
:1010E00041F48031C44A116007E0C349096841F402
:1010F000A021C14A116000E000BF00BF704710B5D9
:1011000001460022002300204A11012A02D1BA4CD4
:10111000236806E0022A02D1B74C236A01E0B64CEC
:10112000636A01F01F02012494401C400CB10120AD
:1011300000E0002010BD38B50020009000240025FC
:1011400000BF3120FFF7DBFF05460098401C0090F0
:101150000098B0F5A06F01D0002DF2D03120FFF73C
:10116000CEFF08B1012400E00024204638BD01462E
:101170000020A14A106820F0F80040EAC100106089
:101180007047A04908607047024600209A4B586893
:1011900020F47C1042EA01031843974B58607047D3
:1011A00098490866704701460020934A506820F02D
:1011B00003000843506070478F48406800F00C00FF
:1011C0007047014600208C4A506820F0F000084328
:1011D0005060704701460020874A506820F4E06064
:1011E00008435060704701460020834A506820F44D
:1011F000605040EAC1005060704729B17E4A527A7F
:1012000002437D4B5A7204E07B4A527A82437A4B06
:101210005A7270477B49D8310860704701460020F8
:10122000754A506820F440400843506070470021E0
:10123000714A20321170704A82F82010012802D0C1
:1012400004280AD104E001216B4A2032117005E024
:101250000521694A2032117000E000BF00BF7047CD
:101260006949086070476449096A0143624A11622A
:101270007047654944390860704730B50021002245
:10128000002400235C4D6D6805F00C0121B1042998
:1012900005D0082923D105E05C4D056022E05B4DB7
:1012A00005601FE0544D6D6805F47012524D6D6875
:1012B00005F48034022505EB92421CB9544D554388
:1012C00005600BE04C4D6D6805F400351DB1504DC7
:1012D0005543056002E04D4D5543056002E04B4D1E
:1012E000056000BF00BF444D6D6805F0F0010909BD
:1012F000484D6B5C0568DD4045603F4D6D6805F409
:10130000E061090A434D6B5C4568DD4085603A4DFC
:101310006D6805F46051C90A3E4D6B5C4568DD405F
:10132000C560354D6D6805F44041890B3A4D6B5CE5
:10133000C568B5FBF3F5056130BD29B12E4A526988
:1013400002432D4B5A6104E02B4A526982432A4BD7
:101350005A61704729B1284A92690243264B9A6123
:1013600004E0254A92698243234B9A61704729B170
:10137000214AD2690243204BDA6104E01E4AD26955
:1013800082431D4BDA61704729B11B4AD268024380
:10139000194BDA6004E0184AD2688243164BDA60CF
:1013A000704729B1144A12690243134B1A6104E0D1
:1013B000114A12698243104B1A6170471249403931
:1013C000086070470F49C86470470B49C87170477F
:1013D0000948406A40F080700749486270470146FA
:1013E0000020054A92680A400AB1012000E000206E
:1013F0007047014988727047001002400000FFF8F2
:10140000FFFFF6FE000042428004424200127A00D2
:1014100000093D00140000202400002000206F4936
:10142000086048608860C86048628862C8626C482A
:1014300088630020C86370470021684A516847F6F6
:10144000FF629143027D83681A4343681A43C3686D
:101450001A4303681A4303691A4311435F4A5160F0
:10146000704700210175016041608160C1600161C8
:1014700070475C49086070475849096821F00301CA
:10148000564A11601146096801431160704753487C
:10149000006800F00300704729B1504AD26B024344
:1014A0004E4BDA6304E04D4AD26B82434B4BDA6316
:1014B00070474D49086070470021484B02689A60A8
:1014C0001A46D1686FF30A01D0E901231A43C368B1
:1014D0001A4303691A431143404AD16070470021FF
:1014E000016041608160C160016170473B480069F3
:1014F000C0B2704708B5014600200090374814304C
:10150000084400900098006808BD0021334B026831
:101510005A6242689A621A46D16A21F0F701D0E90C
:1015200002231A4303691A4343691A4311432B4A9E
:10153000D16270474FF0FF3101600021416081604E
:10154000C1600161416170472448006B70472348C6
:1015500080300068704721498031086070471F481B
:10156000806C704720491431086070471E4918315B
:10157000086070471C491C31086070471A492031C7
:10158000086070471949086070471849091D0860CC
:10159000704701218143154A083211607047134991
:1015A0000C3108607047014600200C4A526B0A401B
:1015B0000AB1012000E000207047084988637047A5
:1015C00001460020054A526B0A400AB1012000E0A2
:1015D0000020704701498863704700000080014087
:1015E000FF07C000A00030428C053042AC01304201
:1015F00010B50446BE48844208D101218014FFF78B
:10160000C3FE0021A014FFF7BFFE16E0B9488442D4
:1016100008D101210014FFF7C4FE00212014FFF7B8
:10162000C0FE0AE0B448844207D10121C013FFF78D
:10163000B8FE0021E013FFF7B4FE10BD10B5002284
:10164000028802F441520B884C8823438C88234340
:10165000CC8823430C8923434C8923438C8923431F
:10166000CC8923431A430280838B4FF2FF742340BB
:1016700083830B8A038210BD2DE9F04F85B00546A8
:101680000C464FF0000902274FF000084FF0010B05
:101690000026B246A88B4FF240010840A8830220E2
:1016A0002884B5F81C90A068022801D100BF38E05A
:1016B000A08810B94FF0010B01E04FF0020B8D48EC
:1016C000854200D100E000BF6846FFF7D6FDDDF897
:1016D00000A0E088B0F5007F0AD14FEA1A2000EBA5
:1016E00080004000A168B0FBF1F0401D86B20BE025
:1016F0004FEA4B10BAFBF0F000EB80004000A1680D
:10170000B0FBF1F0401D86B20A20B6FBF0F606F001
:101710000108A6EB0800C0F34F074FF6FF7000EA80
:101720000828022F01DBFF2F02DD02274FF00008FF
:10173000E08840EA080038432884A088A18908434B
:10174000618808432188084340F4006040EA0909A1
:10175000A5F81C9005B0BDE8F08F00210180418004
:101760008180C180018141818181C1810721018204
:1017700070470021018041808180C1800221816009
:1017800000218181704721B1028842F0400202802D
:1017900004E002884FF6BF731A400280704721B1FF
:1017A000828B42F48062828304E0828B4FF6FF33A7
:1017B0001A408283704730B5002400230C110125A4
:1017C000A540ABB21AB185881D43858002E08588AB
:1017D0009D43858030BD1AB183880B43838002E02E
:1017E00083888B4383807047818170470146888955
:1017F00070474FF6FF62914204D0028842F4807233
:10180000028004E002884FF6FF631A4002807047AE
:1018100021B1828842F00402828004E082884FF67F
:10182000FB731A408280704702884FF2FF731A40A0
:10183000028002880A4302807047018841F4805187
:101840000180704721B1028842F40052028004E016
:1018500002884DF6FF731A4002807047024600204E
:10186000012901D0108B00E0908A70470146088A58
:101870007047B1F5804F04D1028842F48042028063
:1018800004E002884BF6FF731A400280704702465C
:10189000002013890B400BB1012000E000207047AD
:1018A000CA4302817047F0B502460020002400239D
:1018B000002501F00F070126BE40B4B20B1101262E
:1018C0009E40B3B2968806EA03051689264016B1F3
:1018D0000DB1012000E00020F0BD10B5002201F0A4
:1018E0000F040123A3409AB2D343038110BD00002B
:1018F0000030014000380040003C004010B5044674
:10190000FB48844209D101218803FFF73DFD0021F6
:101910004FF48040FFF738FD32E0F648844209D1A9
:1019200001214804FFF73DFD00214FF40030FFF78F
:1019300038FD25E0F048844209D101218804FFF7F1
:1019400030FD00214FF48020FFF72BFD18E0EB481D
:10195000844209D10121C804FFF723FD00214FF47F
:101960000020FFF71EFD0BE0E548844208D101216D
:101970000805FFF716FD00214FF48010FFF711FD59
:1019800010BD2DE9F04786B005460E460024A2465C
:1019900000BFA1460027B08900B100BF2F462C8AA6
:1019A0004CF6FF700440F08804432C82AC894EF65C
:1019B000F3100440B0883189084371890843044317
:1019C000AC81AC8A4FF6FF400440B0890443AC823E
:1019D00001A8FFF752FCC648874202D1DDF810A0EB
:1019E00001E0DDF80CA0A88900F4004040B10AEB4A
:1019F000CA0000EB0A1031684900B0FBF1F807E0BB
:101A00000AEBCA0000EB0A1031688900B0FBF1F85C
:101A10006420B8FBF0F004012009642101FB108967
:101A2000A88900F4004040B1322000EBC900B0FBAF
:101A3000F1F000F00700044308E0322000EB091049
:101A40006421B0FBF1F000F00F0004432C8106B0DC
:101A5000BDE8F0874FF41651016000218180C180FC
:101A600001810C21418100218181704710B502461E
:101A70000020108A4FF2FF0318400B884C88234344
:101A80008C882343CC8823431843108210BD002147
:101A9000018041808180C180704721B1828942F4F8
:101AA0000052828104E082894DF6FF731A408281E0
:101AB0007047F0B50346002400260025002040F6BC
:101AC0006A17B94200D100BF1846C1F3421401F0B1
:101AD0001F06012707FA06F5012C01D10C3004E09E
:101AE000022C01D1103000E014301AB107682F43E6
:101AF000076002E00768AF430760F0BD1AB1838A50
:101B00000B43838202E0838A8B4383827047028A7D
:101B10004FF6F0731A400282028A0A43028270472B
:101B200082894FF2FF731A40828182890A4382813F
:101B3000704721B1828942F00202828104E08289E9
:101B40004FF6FD731A4082817047028A4FF6DF73A9
:101B50001A400282028A0A430282704721B1028A35
:101B600042F48042028204E0028A4BF6FF731A407C
:101B700002827047C1F3080282807047014688885C
:101B8000C0F308007047818941F0010181817047ED
:101B9000028BD2B20283028B42EA01220283704797
:101BA000028B02F47F420283028B0A430283704756
:101BB00021B1828A42F02002828204E0828A4FF6BA
:101BC000DF731A408282704721B1828A42F010028C
:101BD000828204E0828A4FF6EF731A408282704755
:101BE00021B1828A42F00802828204E0828A4FF6A2
:101BF000F7731A408282704721B1828942F4004211
:101C0000828103E08289C2F30E028281704721B192
:101C1000828A42F40062828204E0828A4FF2FF7379
:101C20001A4082827047828A4FF6FB731A40828282
:101C3000828A0A438282704721B1828A42F002027C
:101C4000828204E0828A4FF6FD731A4082827047D6
:101C500002460020B1F5007F00D100BF13880B4081
:101C60000BB1012000E00020704701F40072B2F5D2
:101C7000007F00D100BFCA430280704770B50246A2
:101C8000002400230025002040F66A16B14200D14E
:101C900000BFC1F3421501F01F03012606FA03F34A
:101CA000012D02D19689334006E0022D02D1168A19
:101CB000334001E0968A33400C12012606FA04F400
:101CC0001688344013B10CB1012000E0002070BD33
:101CD00010B50022002340F66A14A14200D100BFD3
:101CE0000A1201249440A3B2DC43048010BD00001A
:101CF000003801400044004000480040004C0040D3
:101D00000050004023A01DF03DFA0AF02CFF14E023
:101D100020202649086026A01DF034FA4FF4FA70FE
:101D200007F09CF920202149091F086027A01DF019
:101D300029FA4FF4FA7007F091F9E9E710B54FF47A
:101D40004070FEF74DFB00F0E3FB00F06FF802F08F
:101D5000D9FC02F02DFD02F058FD00F009FC10BD89
:101D60001CB50124FFF7EAFF0020062103466202AA
:101D7000CDE900101DA11E4806F0EEFE0446012C20
:101D800002D107F016FC02E04FF0FF301CBD00BF8F
:101D9000FEE70000D2B0BBF0656D58475549D1DD74
:101DA000CABEC0FDB3CC0A0A00000000140C0140FA
:101DB000546573745F5461736B2052756E6E696EF7
:101DC000672C4C4544315F4F4E0D0A0054657374C7
:101DD0005F5461736B2052756E6E696E672C4C4553
:101DE00044315F4F46460D0A0000000067756900E8
:101DF000051D000870470AA01DF0C4F900BFFEE7EA
:101E000000BFFEE700BFFEE700BFFEE7704710B56A
:101E100007F076FD012801D008F07EFA10BD000021
:101E2000486172644661756C740A000000B585B043
:101E300001210420FFF78EFA01218803FFF78AFAB7
:101E40004FF40070ADF8100018208DF81300032037
:101E50008DF8120004A94F48FEF7C0FF4FF48060D0
:101E6000ADF8100004208DF8130004A94948FEF7CE
:101E7000B5FF4FF4E13000900020ADF80400ADF85C
:101E80000600ADF80800ADF80C000C20ADF80A0013
:101E900069464148FFF775FD01213F48FFF7FDFD09
:101EA00005B000BD70B504460D4629462046FFF733
:101EB00061FE00BF80212046FFF7CAFE0028F9D04E
:101EC00070BD2DE9F04107460D461646002405E099
:101ED000295D3846FFF7E6FF601CC4B2B442F7DB69
:101EE00000BF40213846FFF7B3FE0028F9D0BDE817
:101EF000F08170B506460C46002500BF615D304696
:101F0000FFF7D0FF6D1C605D0028F7D100BF4021B6
:101F10003046FFF79DFE0028F9D070BD2DE9F04155
:101F200005460C46260AE7B231462846FFF722FE50
:101F300000BF80212846FFF78BFE0028F9D03946E4
:101F40002846FFF717FE00BF80212846FFF780FED6
:101F50000028F9D0BDE8F08170B504460D46E1B225
:101F60000D48FFF707FE00BF80210B48FFF770FE0A
:101F70000028F9D0204670BD10B5044600BF2021CE
:101F80000548FFF765FE0028F9D00348FFF7F6FD86
:101F900010BD0000000801400038014010B5F7A056
:101FA0001DF0F0F8002010BD10B504464FF480502D
:101FB000FC49086009E0FB490868411EF94A1160C4
:101FC00018B9FFF7EBFFC0B210BD0221F648FFF7CA
:101FD0005EFC0028EFD02146F348FFF705FC4FF4E4
:101FE0008050F049086009E0EE490868411EED4A5A
:101FF000116018B9FFF7D2FFC0B2E5E70121EA4846
:10200000FFF745FC0028EFD0E748FFF7EFFBC0B231
:10201000DAE72DE9F04100240025002600271021F1
:10202000E248FEF78AFF9F20FFF7BEFFFF20FFF781
:10203000BBFF0546FF20FFF7B7FF0646FF20FFF76F
:10204000B3FF07461021D948FEF775FF280440EA80
:10205000062040EA07042046BDE8F08100B587B0BD
:1020600000BF00BF01210803FFF774F9012104201C
:10207000FFF770F91020ADF8040003208DF806007A
:1020800010208DF8070001A9C848FEF7A7FE01211E
:102090000420FFF75FF92020ADF8040018208DF828
:1020A000070001A9C148FEF799FE01210420FFF7AE
:1020B00051F94020ADF8040001A9BC48FEF78EFE9E
:1020C00001210420FFF746F98020ADF8040001A9A2
:1020D000B648FEF783FE1021B448FEF72CFF00201F
:1020E000ADF808004FF48270ADF80A000020ADF89A
:1020F0000C000220ADF80E000120ADF810004002E7
:10210000ADF812000020ADF81400ADF8160007205D
:10211000ADF8180002A9A448FFF790FA0121A248DF
:10212000FFF731FBFFF775FFA149884202D101207B
:1021300007B000BD0020FBE710B5002410219B482C
:10214000FEF7FBFE0520FFF72FFF4FF48050954967
:10215000086000BFFF20FFF727FF04469149086889
:10216000411E904A116010B9FFF718FF10BD04F02E
:1021700001000028EED110218C48FEF7DCFE00BFE4
:10218000F4E710B510218948FEF7D7FE0620FFF7C7
:102190000BFF10218548FEF7CEFE10BD10B504469A
:1021A000FFF7EFFFFFF7C8FF10218048FEF7C5FEDD
:1021B0002020FFF7F9FEC4F30740FFF7F5FEC4F354
:1021C0000720FFF7F1FEE0B2FFF7EEFE102177489F
:1021D000FEF7B1FEFFF7B0FF10BD10B5FFF7D1FF5E
:1021E00010217248FEF7A9FEC720FFF7DDFE10217F
:1021F0006E48FEF7A0FEFFF79FFF10BD70B50546C5
:102200000C461646FFF7BDFF10216848FEF795FE05
:102210000220FFF7C9FEC4F30740FFF7C5FEC4F371
:102220000720FFF7C1FEE0B2FFF7BEFEB6F5807FE4
:1022300001DD4FF4807603E02878FFF7B5FE6D1CD2
:10224000301EA6F101018EB2F6D110215748FEF7DB
:1022500072FEFFF771FF70BD2DE9F05F07460E4675
:1022600014464FF00008C146C2460025AB4606F0B2
:10227000FF0ACAF10000C5B22046E11704EB116164
:10228000C1F30728E11704EB11610912A4EB012146
:1022900001F0FF09BAF1000F20D1B8F1000F05D10C
:1022A000224631463846FFF7A9FF64E009E04FF4C3
:1022B000807231463846FFF7A1FF06F5807607F5B4
:1022C0008077B8F10000A8F1010101F0FF08EED11C
:1022D0004A4631463846FFF791FF4CE0B8F1000F0F
:1022E00018D1A94510DDA9EB050000F0FF0B2A4627
:1022F00031463846FFF782FF2E442F445A46314676
:102300003846FFF77BFF36E0224631463846FFF776
:1023100075FF30E0601B84B22046E11704EB1161C9
:10232000C1F30728E11704EB11610912A4EB0121A5
:1023300001F0FF092A4631463846FFF75FFF2E4479
:102340002F4409E04FF4807231463846FFF756FFBC
:1023500006F5807607F58077B8F10000A8F1010155
:1023600001F0FF08EED1B9F1000F04D04A46314622
:102370003846FFF743FF0120BDE8F09F3C3C2D4667
:102380004C4153482D4552524F522D3E3E20535002
:10239000492054696D656F7574206572726F722182
:1023A0000A00000028000020003001400008014021
:1023B0001740EF0070B505460C46164610215148EF
:1023C000FEF7BBFD0320FFF7EFFDC4F30740FFF767
:1023D000EBFDC4F30720FFF7E7FDE0B2FFF7E4FDF4
:1023E00004E0FF20FFF7E0FD28706D1C301EA6F111
:1023F0000106F6D110214348FEF79DFD70BD10B5D2
:10240000002410213F48FEF798FDAB20FFF7CCFDDC
:10241000FF20FFF7C9FDFF20FFF7C6FDFF20FFF7F4
:10242000C3FDFF20FFF7C0FD044610213548FEF72D
:1024300082FD204610BD10B5044610213148FEF73C
:102440007CFD0320FFF7B0FDC4F30740FFF7ACFDB0
:10245000C4F30720FFF7A8FDE0B2FFF7A5FD10BD0C
:1024600010B5FF20FFF7A0FD10BD10B504464FF4D6
:1024700080502549086008E023490868411E224A27
:10248000116010B9FFF78AFD10BD02211F48FFF748
:10249000FEF90028F0D021461C48FFF7A5F94FF4BB
:1024A00080501949086008E017490868411E164A1B
:1024B000116010B9FFF772FDE6E701211348FFF73D
:1024C000E6F90028F0D01148FFF790F9DCE710B5E5
:1024D00010210C48FEF731FDB920FFF765FD1021F2
:1024E0000848FEF728FD10BD10B510210548FEF77D
:1024F00024FDAB20FFF758FD10210248FEF71BFD1D
:1025000010BD0000000801402800002000300140FC
:1025100008B501210820FEF71DFF2020ADF80000BE
:1025200010208DF8030003208DF8020069460F4843
:10253000FEF754FC0120ADF8000069460B48FEF799
:102540004DFC0220ADF8000069460848FEF746FC45
:1025500020210648FEF7EFFC01210448FEF7EBFCC2
:1025600002210248FEF7E7FC08BD0000000C014014
:1025700008B501211420FEF7EDFE0120ADF80000A2
:1025800004208DF8030069461148FEF727FC4FF43C
:102590000050ADF8000004208DF8030069460D4896
:1025A000FEF71CFC08BD70B504460D4629462046C2
:1025B000FEF7A7FC012808D100BF29462046FEF7F8
:1025C000A0FC0128F9D0012070BD0020FCE700002C
:1025D000000801400010014008B50020FEF749FF47
:1025E0000020FEF749FFFEF719FF00214FF480603D
:1025F000FEF7A3FE4FF4F850ADF8000004208DF86C
:1026000003006946FC48FEF7E9FB0420ADF8000032
:102610006946FA48FEF7E2FB08BD08B54FF4407082
:10262000FDF7DEFE31208DF8000000208DF801005E
:102630008DF8020001208DF803006846FDF7D5FEF5
:1026400008BD10B5EE48FEF721F810BD30B58BB0CF
:1026500005460C46EB48FEF72DF80021EA48FDF749
:10266000FAFFEA480090019500200290A00803902C
:102670000020049080200590800006908000079044
:10268000002008904FF40050099000200A906946FD
:10269000DD48FDF7B5FF0121DB48FDF7DCFF0BB09E
:1026A00030BD30B58BB005460C46D648FEF702F873
:1026B0000021D548FDF7CFFFD448009001951020A8
:1026C0000290A008039000200490802005908000D4
:1026D000069080000790002008904FF40050099069
:1026E00000200A906946C848FDF78AFF0121C648C4
:1026F000FDF7B1FF0BB030BD08B501213020FEF76A
:1027000029FE4FF4F850ADF8000003208DF80200C8
:1027100018208DF803006946B748FEF75FFB0420D8
:10272000ADF800006946B548FEF758FB0121880264
:10273000FEF703FE01210220FEF7FFFD08BD014662
:1027400000BFB2488038406B00F045000028F8D048
:1027500040F2FF50AD4A803A90631046406908222B
:102760001040C0B270472DE9FC4107460D460026D7
:1027700000240020009001900820A5490860102046
:102780004860402088600020C8604FF48060086185
:102790000846FEF791FE1020FFF7D1FF044614B162
:1027A0002046BDE8FC819B480088000498490860E9
:1027B00037204860402088600020C8604FF4806067
:1027C00008610846FEF778FE3720FFF7B8FF044699
:1027D0000CB12046E5E74FF0FF308F490860082034
:1027E0004860302088600220C86000200861012015
:1027F00048610846FEF789FE0020854908603320BD
:102800004860402088600020C8604FF48060086104
:102810000846FEF751FE3320FFF791FF04460CB146
:102820002046BEE70CE04FF40010FEF7BCFE38B1C6
:10283000FEF78DFE4DF82600761C012E00D907E02C
:1028400072488038406B40F22A6108400028EAD084
:1028500000BF0820FEF7A7FE28B10820FEF7ADFE56
:10286000042420469DE70220FEF79DFE28B10220A9
:10287000FEF7A3FE0224204693E72020FEF793FEF6
:1028800028B12020FEF799FE0624204689E74FF460
:102890000070FEF788FE30B14FF40070FEF78DFE39
:1028A000072420467DE740F2FF50FEF786FE0098A1
:1028B0000006009901F47F4140EA0120009901F4EB
:1028C0007F0140EA1120009940EA11606860019898
:1028D0000006019901F47F4140EA0120019901F4C9
:1028E0007F0140EA1120019940EA116028602046EA
:1028F00057E77CB505460024002000900190FEF7C4
:10290000F9FD00F0007010B10E2420467CBD414955
:10291000098888B26946FFF726FF04460CB12046B5
:10292000F4E7012D36D1019800F4802000282ED044
:102930003848008800043649086037204860402045
:1029400088600020C860A80208610846FEF7B4FD50
:102950003720FFF7F4FE04460CB12046D6E70220EC
:102960002B49086006204860402088600020C8602D
:102970004FF4806008610846FEF79EFD0620FFF7D1
:10298000DEFE04460CB12046C0E72046BEE7252403
:102990002046BBE7019800F48030F8B31D4800885A
:1029A00000041B49086037204860402088600020F0
:1029B000C8604FF4806008610846FEF77DFD37204F
:1029C000FFF7BDFE04460CB120469FE700201049EA
:1029D000086006204860402088600020C8604FF4EE
:1029E000806008610846FEF767FD0620FFF7A7FE36
:1029F0000446A4B1204689E70010014000140140BC
:102A00000020001000F000104404024080800140CB
:102A100070080020300000208408002001E02046DB
:102A200074E72524204671E770B504460025FA486E
:102A30000068032802D12725284670BDF6480068A3
:102A400038B1F5480068012803D0F348006802282F
:102A50002ED1B4F5805F02D127252846EDE7B4F5E5
:102A6000006F14D10120FFF744FF054605BB01208C
:102A7000EA49087500200860486088604FF40060EB
:102A8000C860002008610846FEF7D6FC10E0002070
:102A9000FFF72FFF05465DB90120E04908750020CA
:102AA000086048608860C86008610846FEF7C4FC9A
:102AB0002846C2E770B504460025D94804600720BF
:102AC000D7494860402088600020C8604FF480608B
:102AD00008610846FEF7F0FC0720FFF730FE0546C8
:102AE000284670BDF0B5014600200022CA4B1B7875
:102AF00081F85630CB4B1B88A1F85430CA4B1B6869
:102B00001A0E93090B70C2F383034B7002F0030398
:102B10008B70C54B1B68C3F30742CA70C24B1B883E
:102B2000C3F307220A71C04B1A784A715B681A0E08
:102B30001301CB80BC4B5B68C3F30742CB8843EAED
:102B40001213CB8002F00F030B72B74B9B88C3F3B9
:102B50000722D3094B72C2F380138B72C2F3401366
:102B6000CB72C2F300130B7300234B73AA4B1B6889
:102B70001BB1A94B1B68012B4FD193071B0D0B6198
:102B8000A94B1A790B6943EA82030B61A64B9B6838
:102B90001A0E0B6943EA92130B61C2F3C2030B7561
:102BA00002F007034B75A04B9B68C3F30742530920
:102BB0008B75C2F38203CB7593075B0F0B769A4B31
:102BC0001B89C3F307220B7E43EAD2130B760B69F2
:102BD0005B1C0024C1E912340B7ED1E912649B1CFA
:102BE000012505FA03F3DF17A6FB035C04FB03C30F
:102BF00006FB0733C1E912530C7A0123A3400B658E
:102C00000027D1E912560B6DA5FB034C06FB03C34D
:102C100005FB0733C1E912432DE07F4B1B68022BF4
:102C200029D1814B1A7993069B0A0B617E4B9B68D5
:102C30001A0E0B6943EA02230B617B4B9B68C3F3BB
:102C400007420B6913430B61774B1B89C3F30722C0
:102C50000B695B1C4FF40074A3FB04344FF48066D3
:102C60000025A3FB067C04FB06C403FB0543C1E966
:102C7000127373100B65C2F3801301F8193F9306AA
:102C80005B0E4B70684B1A7A4B7843EAD2134B7049
:102C900002F07F038B70644BDB681A0ED309CB7094
:102CA000C2F341130B71C2F382034B7193071B0FE5
:102CB0008B715D4BDB68C3F307428B7943EA921358
:102CC0008B71C2F34013CB7100230B7202F001032E
:102CD0004B72554B9B89C3F30722D3098B72C2F306
:102CE0008013CB72C2F340130B73C2F300134B7308
:102CF000C2F381038B7302F00303CB734A4B1A7B3D
:102D000053080B7401234B74484B1B681A0ECA748A
:102D10001939464B1B68C3F307421402CC85434B59
:102D20001B88C3F30722CB8D1343CB853F4B1A7807
:102D300014060C635B681A0E0B6B43EA02440C63C7
:102D40003A4B5B68C3F307420B6B43EA02240C6304
:102D5000364B9B88C3F307220B6B13430B63334B38
:102D60001A7934235A54314B9B681A0E35235A541E
:102D70002E4B9B68C3F3074214068C632B4B1B89B5
:102D8000C3F307228B6B43EA02448C63274B1A7A06
:102D90008B6B43EA02248C63244BDB681A0E8B6B2B
:102DA00013438B63214BDB68C3F307423C235B5C1B
:102DB00043EA12143C235C5413071C0DCC871B4BB5
:102DC0009B89C3F30722CB8F1343CB87174B1A7B07
:102DD000540840235C54012441235C54F0BD70B579
:102DE00000251348446B01E01148446B04F0450092
:102DF0000028F9D004F0040028B103250420FEF7D0
:102E0000DCFB284670BD04F0010098B101250120CB
:102E1000FEF7D3FB2846F5E72C00002058080020D9
:102E20007008002030000020D0070020E0070020BC
:102E30000080014040F2FF50FEF7BFFB2846E1E76B
:102E40002DE9F04106460F464FF00008FA48456B61
:102E500001E0F948456B05F045000028F9D005F080
:102E6000040038B14FF003080420FEF7A6FB4046EB
:102E7000BDE8F08105F0010030B14FF001080120FC
:102E8000FEF79BFB4046F3E7FEF730FBB04203D072
:102E90004FF010084046EBE740F2FF50FEF78DFB85
:102EA0000020FEF727FB044604F4604018B9200C0C
:102EB00038804046DCE704F4005008B11320D7E71F
:102EC00004F4804008B11020D2E704F4004008B1B7
:102ED0000F20CDE74046CBE738B500240120009015
:102EE000FEF7D5FA10B92524204638BDD34800682E
:102EF000042828D00020D249086002204860C02061
:102F000088600020C8604FF4806008610846FEF7C2
:102F1000D3FAFFF764FF04460CB12046E5E7002032
:102F2000FEF7E8FAC74908600420FEF7E3FAC5494E
:102F300048600820FEF7DEFAC24988600C20FEF7E0
:102F4000D9FAC049C860BD48006858B1BB4800689C
:102F5000012807D0B9480068062803D0B7480068A0
:102F6000022816D10020B64908600320486040209E
:102F700088600020C8604FF4806008610846FEF752
:102F80009BFA69460320FFF75BFF04460CB120461D
:102F9000ABE7AA48006804282ED0BDF80000AA4973
:102FA0000860BDF800000004A549086009204860D9
:102FB000C02088600020C8604FF480600861084627
:102FC000FEF77AFAFFF70BFF04460CB120468CE7B8
:102FD0000020FEF78FFA9D4908600420FEF78AFA68
:102FE0009A4948600820FEF785FA984988600C20C5
:102FF000FEF780FA9549C8600024204675E770B551
:1030000000258D48446B01E08B48446B04F045007B
:103010000028F9D004F0040028B103250420FEF7AD
:10302000CCFA284670BD40F2FF50FEF7C6FA28469B
:10303000F8E770B500264FF480357F48446B02E016
:103040006D1E7D48446B04F0450008B9002DF7D192
:1030500015B104F0040028B103260420FEF7ADFAF0
:10306000304670BD04F0400028B100264020FEF735
:10307000A4FA3046F5E73046F3E770B500254FF483
:10308000803400E0641E24B18020FEF78CFA002812
:10309000F8D014B90325284670BD40F2FF50FEF762
:1030A0008CFA2846F8E72DE9F04100240026002597
:1030B0000027A046B22066490875002008604860D5
:1030C0008860C86008610846FEF7B6F90320FEF77D
:1030D000D3F90120FEF7CDF9002059490860486076
:1030E0008860C8604FF4806008610846FEF7E4F924
:1030F000FFF7C3FF044614B12046BDE8F0814FF44A
:10310000D5704F4908600820486040208860002042
:10311000C8604FF4806008610846FEF7CDF9FFF7FC
:1031200088FF04462CB90120444908604FF08048CC
:1031300012E0002042490860372048604020886043
:103140000020C8604FF4806008610846FEF7B4F9BB
:103150003720FFF7F4FA0446002039490860372089
:103160004860402088600020C8604FF4806008619B
:103170000846FEF7A1F93720FFF7E1FA0446002CD4
:103180004AD136E000202E490860372048604020B0
:1031900088600020C8604FF4806008610846FEF730
:1031A0008BF93720FFF7CBFA04460CB12046A4E791
:1031B000284848EA00002249086029204860402049
:1031C00088600020C8604FF4806008610846FEF700
:1031D00073F9FFF714FF04460CB120468DE7002079
:1031E000FEF788F90646012080EAD67080F00107D4
:1031F0006D1C1FB94FF6FF708542C3D34FF6FF70A9
:10320000854202D31B24204677E706F08040061E45
:1032100002D002200949086020466EE710B500245C
:10322000FFF7FBF9FFF768FAFEF7F8F8FFF73BFF47
:1032300004468CB1204610BD008001402C000020C7
:1032400070080020E007002030000020D007002098
:103250005808002000001080FFF73EFE04460CB125
:103260002046E8E70120FD49087500200860486015
:103270008860C86008610846FEF7DEF81CB9F848A7
:10328000FFF730FC044634B9F549B1F8541008048E
:10329000FFF710FC044624B94FF40060FFF7C4FBAD
:1032A00004462046C7E770B504460025ED4800886F
:1032B0000004ED49886040F24D40C8600D20FFF7E2
:1032C0003EFA05460DB1284670BDE74840692060CA
:1032D0002846F9E708B5002000906846FFF7E3FFAD
:1032E00008B1FF2008BD0098C0F34320FAE710B5ED
:1032F0000424FFF7EFFF0446042C01D1002010BD89
:10330000FF2C01D10220FAE70120F8E710B50024D4
:103310000020FEF7B1F8204610BD70B50446002528
:1033200000260020FEF7E6F800F0007010B10E2530
:10333000284670BD4020CD490860102048604020DC
:1033400088600020C8604FF4806008610846FEF77E
:10335000B3F81020FFF7F3F905460DB12846E8E76A
:10336000C04800880004C1490860372048604020F8
:1033700088600020C8604FF4806008610846FEF74E
:103380009BF83720FFF7DBF905460DB12846D0E75B
:103390004FF0FF30B64908604020486060208860E8
:1033A0000220C86000200861012048610846FEF73D
:1033B000ACF80020AD4908600D20486040208860CE
:1033C0000020C8604FF4806008610846FEF774F87A
:1033D0000D20FFF7B4F905460DB12846A9E70EE028
:1033E0004FF40040FEF7DFF848B1002604E0FEF796
:1033F000AEF844F82600761C082EF8D320349A48FC
:10340000406B40F22A6108400028E9D00820FEF70E
:10341000CAF828B10820FEF7D0F80425284688E726
:103420000220FEF7C0F828B10220FEF7C6F80225F8
:1034300028467EE72020FEF7B6F828B12020FEF7C8
:10344000BCF80625284674E74FF40070FEF7ABF889
:1034500030B14FF40070FEF7B0F80725284668E752
:1034600003E0FEF774F82060241D4FF40010FEF70F
:103470009AF80028F5D140F2FF50FEF79EF8284652
:1034800057E770B50446002600257A48FFF745FF48
:1034900006460EB1304670BD764800788509257025
:1034A00074480078C0F3401565707248857828022A
:1034B00060807048C5786088284360806D480579D1
:1034C000280660606B484579606840EA05406060A6
:1034D00068488579606840EA052060606548C5797C
:1034E0006068284360606348057A2572457A657292
:1034F000807A0509A5725F48C57A2802A0815D48D7
:10350000057BA0892843A0815A48407B8508A57384
:103510005848407B00F00305E5733046BBE72DE9D2
:10352000F041804614461D46069E00270020524961
:10353000087052490860524908604B49C8625148B6
:103540000068022808D1060202020023204629460C
:1035500011F055FC04460D464448066010204349CE
:103560004860402088600020C8604FF48060086197
:103570000846FDF7A1FF1020FFF7E1F8074617B155
:103580003846BDE8F0814FF0FF3039490860084601
:103590004660902088600220C860002008610120F9
:1035A00048610846FDF7B1FF3048046011202F49FB
:1035B0004860402088600020C8604FF48060086147
:1035C0000846FDF779FF1120FFF7B9F807460FB15C
:1035D0003846D6E701210802FDF75EFF0120FDF71E
:1035E00068FF31464046FFF731F83846C9E72DE914
:1035F000F047814614461D46DDE908680027002093
:103600001D4908701D49086001201D4908600020FF
:103610001549C8621B480068022808D10602020248
:1036200000232046294611F0EAFB04460D460F48C8
:10363000066010200D494860402088600020C86066
:103640004FF4806008610846FDF736FF1020FFF751
:1036500076F80746C7B13846BDE8F087580800201D
:103660000008002030000020008001407008002089
:1036700084080020F0070020380000203C000020D3
:10368000340000202C0000204FF0FF30F949086082
:1036900008FB06F04860902088600220C860002087
:1036A0000861012048610846FDF72FFFF2480460D9
:1036B0001220F1494860402088600020C8604FF423
:1036C000806008610846FDF7F7FE1220FFF737F823
:1036D000074617B13846BDE8F08701210802FDF71B
:1036E000DBFE0120FDF7E5FE08FB06F14846FEF78C
:1036F000ADFF3846EFE710B5002400BFFEF7A1FF8D
:1037000030B9DE48006818B9DD4800780028F5D0E7
:10371000DB48007810B1DA48007810BD2046FCE79D
:103720002DE9F041804614461D46069E00270020E4
:10373000D3490870D1490860D2490860D249C862AB
:10374000D2480068022808D106020202002320465F
:10375000294611F054FB04460D46C7480660102068
:10376000C5494860402088600020C8604FF48060F0
:1037700008610846FDF7A0FE1020FEF7E0FF0746AF
:1037800017B13846BDE8F081BB4804601820BA493B
:103790004860402088600020C8604FF48060086165
:1037A0000846FDF789FE1820FEF7C9FF07460FB14E
:1037B0003846E7E74FF0FF30AE49086008464660FC
:1037C000902088600020C860086101204861084698
:1037D000FDF79BFE01210802FDF75EFE31464046E3
:1037E000FEF75FFF0120FDF764FE3846CAE72DE9CA
:1037F000F843814615461E46DDE90878002400207E
:1038000000909F4908709D49086001209D4908600B
:1038100000209D49C8629D480068022808D107021F
:10382000020200232846314611F0E9FA05460E4609
:10383000914807601020904948604020886000202F
:10384000C8604FF4806008610846FDF735FE10201F
:10385000FEF775FF044614B12046BDE8F8838C4896
:103860000088000484490860372048604020886050
:103870000020C8604FF4806008610846FDF71CFE18
:103880003720FEF75CFF04460CB12046E5E77A4896
:10389000C0F80080172078494860402088600020E8
:1038A000C8604FF4806008610846FDF705FE1720E8
:1038B000FEF745FF04460CB12046CEE76E48056092
:1038C00019206D494860402088600020C8604FF48E
:1038D000806008610846FDF7EFFD1920FEF72FFF15
:1038E00004460CB12046B8E74FF0FF30614908604C
:1038F00008FB07F04860902088600020C8600861DD
:10390000012048610846FDF700FE01210802FDF78D
:10391000C3FD0120FDF7CDFD08FB07F14846FEF78A
:10392000C0FE204699E710B5002400BFFEF789FECF
:1039300030B95248006818B9514800780028F5D0CD
:103940004F48007810B14E48007810BD40F2FF504B
:10395000FDF733FE2046F8E74B48406B00F440503B
:1039600008B1012070470020FCE710B500240020BA
:103970004549886040F24C40C8600C20FEF7DFFEED
:103980000446204610BD7CB5044600250020019069
:1039900000903F4800880004374908600D204860C7
:1039A000402088600020C8604FF4806008610846AD
:1039B000FDF782FD3448406B009002E03248406BD6
:1039C0000090009800F045000028F7D0009800F023
:1039D000040028B103250420FDF7EFFD28467CBD37
:1039E000009800F0010028B101250120FDF7E5FD58
:1039F0002846F4E7FDF77AFD009000980D2802D0E4
:103A000010252846EBE740F2FF50FDF7D6FD0020D9
:103A1000FDF770FD01900198C0F3432020701D490F
:103A20000198084008B92846D9E7019800F00040FD
:103A300008B11C20D3E7019800F0804008B10920AC
:103A4000CDE7019800F0005008B10A20C7E70198BF
:103A500000F0805008B10B20C1E7019800F0006031
:103A600008B10C20BBE7019800F08060A0B10D20E8
:103A7000B5E7000084080020700800203C0000200A
:103A80003800002034000020008001402C0000207D
:103A90003000002008E0FFFD019800F0807008B1C0
:103AA0000E209CE7019800F4000008B10F2096E773
:103AB000019800F4800008B1102090E7019800F40C
:103AC000001008B111208AE7019800F4801008B1B5
:103AD000122084E7019800F4002008B113207EE74B
:103AE000019800F4802008B1142078E7019800F4D0
:103AF000003008B1152072E7019800F4803008B159
:103B000016206CE7019800F4004008B1172066E722
:103B1000019800F4804008B1182060E7019800F493
:103B2000005008B119205AE7019800F0080008B1C8
:103B30001A2054E7284652E72DE9FC4105460E4677
:103B4000002400270020019000905C48406820215C
:103B500001EA105018B925242046BDE8FC815848D8
:103B60004068C0B2801C5749B1FBF0F001900020C2
:103B7000FDF7C0FC00F0007010B10E242046ECE709
:103B800051480068022801D16D0A760A4E48006843
:103B900038B14D480068012803D04B48006802281E
:103BA0002BD14A4805602020484948604020886061
:103BB0000020C8604FF4806008610846FDF77CFC77
:103BC0002020FEF7BCFD04460CB12046C5E73F4867
:103BD000066021203D494860402088600020C86080
:103BE0004FF4806008610846FDF766FC2120FEF76F
:103BF000A6FD04460CB12046AFE70020334908601B
:103C000026204860402088600020C8604FF4806013
:103C100008610846FDF750FC2620FEF790FD04469B
:103C20000CB1204699E7002700E07F1C01988742ED
:103C3000FBD36846FFF7A7FE044603E06846FFF79C
:103C4000A2FE04463CB99DF800000728F6D09DF876
:103C500000000628F2D020467FE710B51C48006817
:103C600001280BD100201649886040F24C40C86002
:103C70000C20FEF764FD1749087002E0002015498A
:103C800008704FF48070FDF7A5FC00214FF48070A0
:103C9000FDF702FC0120104908600E48007810BDB5
:103CA0000146002002E04910421CD0B20129FAD19D
:103CB000704710B5FFF7D1FF10BD0000D0070020FE
:103CC00000800140C0D401002C00002070080020BA
:103CD00034000020380000203C00002008B508E037
:103CE0006421009102E00099491E00910099002989
:103CF000F9DC011EA0F10100F2D108BD30B52A2483
:103D00004FF0D8452C800412F84D2C802C46208092
:103D100014122C802C4622802B244FF0D8452C8066
:103D20000C12F24D2C802C4621801C122C802C462B
:103D300023802C244FF0D8452C8030BD38B52A2460
:103D40004FF0D8452C800412E84D2C802C46208062
:103D500014122C802C4622802B244FF0D8452C8026
:103D60000C12E24D2C802C4621801C122C802C46FB
:103D700023802E244FF0D8452C80DC4C24880094DE
:103D80000024009404E0BDF80040641CA4B2009438
:103D9000BDF80040022CF6DB38BD10B5C308DB02CD
:103DA0008C0843EA441343EAD203D04C238010BD6D
:103DB000CE48018802880812C008C002C1F38503FA
:103DC00040EA4310131240EAD300704730B5C74DA4
:103DD0002B882C881D1205700B702512157030BDB4
:103DE00010B5044634B1012C0CD0022C12D0032C97
:103DF00020D117E0362000F0EEFA682000F0EFFA4C
:103E0000012010BD362000F0E6FA282000F0E7FA85
:103E10000120F6E7362000F0DEFA882000F0DFFA15
:103E20000120EEE7362000F0D6FAE82000F0D7FABD
:103E30000120E6E70020E4E710B53220FFF74EFF4F
:103E400010BD10B5FFF7F8FFCF2000F0C4FA002036
:103E500000F0C5FA812000F0C2FA302000F0BFFA6D
:103E6000FFF7EAFFED2000F0B6FA642000F0B7FAA1
:103E7000032000F0B4FA122000F0B1FA812000F023
:103E8000AEFAFFF7D9FFE82000F0A5FA852000F090
:103E9000A6FA102000F0A3FA782000F0A0FAFFF7AD
:103EA000CBFFCB2000F097FA392000F098FA2C20B5
:103EB00000F095FA002000F092FA342000F08FFA1A
:103EC000022000F08CFAFFF7B7FFF72000F083FA2A
:103ED000202000F084FAFFF7AFFFEA2000F07BFA21
:103EE000002000F07CFA002000F079FAFFF7A4FF30
:103EF000B12000F070FA002000F071FA1B2000F0F1
:103F00006EFAFFF799FFB62000F065FA0A2000F07C
:103F100066FAA22000F063FAFFF78EFFC02000F0DF
:103F20005AFA252000F05BFAFFF786FFC12000F067
:103F300052FA102000F053FAC52000F04CFA452048
:103F400000F04DFA452000F04AFAC72000F043FA8D
:103F5000A22000F044FAF22000F03DFA002000F028
:103F60003EFA262000F037FA012000F038FAFFF779
:103F700063FFE02000F02FFA0F2000F030FA262037
:103F800000F02DFA242000F02AFA0B2000F027FA86
:103F90000E2000F024FA092000F021FA542000F04D
:103FA0001EFAA82000F01BFA462000F018FA0C2098
:103FB00000F015FA172000F012FA092000F00FFAAD
:103FC0000F2000F00CFA072000F009FA002000F0A2
:103FD00006FAE12000F0FFF9002000F000FA1920B5
:103FE00000F0FDF91B2000F0FAF9042000F0F7F9C9
:103FF000102000F0F4F9072000F0F1F92A2000F079
:10400000EEF9472000F0EBF9392000F0E8F9032041
:1040100000F0E5F9062000F0E2F9062000F0DFF9F3
:10402000302000F0DCF9382000F0D9F90F2000F042
:10403000D6F9FFF701FF362000F0CDF9C82000F0D7
:10404000CEF9FFF7F9FE2A2000F0C5F9002000F0B4
:10405000C6F9002000F0C3F9002000F0C0F9EF20FD
:1040600000F0BDF9FFF7E8FE2B2000F0B4F90020C6
:1040700000F0B5F9002000F0B2F9012000F0AFF92E
:104080003F2000F0ACF9FFF7D7FE3A2000F0A3F98B
:10409000552000F0A4F9112000F09DF9FFF7CCFEA7
:1040A000292000F098F910BDF0B504460D461646DB
:1040B0001F463B46324629462046FFF71FFEF0BD0D
:1040C000F0B504460D4616461F463B463246294685
:1040D0002046FFF733FEF0BD70B505460C4621467D
:1040E000284600F0B9FC18B170BD0000FEFFFF6F5C
:1040F00004F0070008281AD2DFE800F01904070AC4
:104100000D10131624F007042AE024F0070424E01D
:1041100024F007041EE024F0070418E024F007044C
:1041200012E024F007040CE024F0070406E000BFCE
:1041300000BF17E0083CAB48058000BFA9480580D8
:1041400000BFA848058000BFA648058000BFA5485D
:10415000058000BFA348058000BFA248058000BFBE
:10416000A0480580002CE5DC00BFBDE770B5044623
:104170000D462946204600F091FC00B170BD05F0C7
:10418000070008281AD2DFE800F01904070A0D100A
:10419000131625F0070538E025F0070530E025F077
:1041A000070528E025F0070520E025F0070518E0C1
:1041B00025F0070510E025F0070508E000BF00BF67
:1041C00027E0083D34F8020B8649088000BF34F828
:1041D000020B8449088000BF34F8020B8149088033
:1041E00000BF34F8020B7F49088000BF34F8020B8F
:1041F0007C49088000BF34F8020B7A49088000BF70
:1042000034F8020B7749088000BF34F8020B754977
:104210000880002DD5DC00BFB0E7724908807047E8
:1042200070B504460D461646324629462046FFF72D
:10423000B4FD70BD00B5FFF7BBFD00BD70B5044611
:104240000D461646324629462046FFF7BFFD70BD93
:104250002DE9F04706460F4614461D46DDF820803E
:104260007819401E83B23019401E82B2394630465A
:10427000FFF744FD04FB05F949464046FFF72CFFD4
:10428000BDE8F0872DE9F04F04460D4616461F465F
:10429000DDF824A04FF00008C14600BF26E04FF033
:1042A0000008D34600BF1BE005EB070CACF1010C86
:1042B0001FFA8CF304EB060CACF1010C1FFA8CF224
:1042C00005EB090C1FFA8CF104EB080C1FFA8CF0BB
:1042D000FFF734FDFFF76CFD2BF8020B08F1010826
:1042E000B045E1DB0A98824409F10109B945D6DB02
:1042F000BDE8F08F2DE9F05F81460C4615461E465D
:10430000DDE90A8AA019401E83B209EB0500401EB0
:1043100082B221464846FFF7F1FCB5EB6A0F0DD09B
:10432000A01986B207E0474629463846FFF71EFF28
:10433000D044601C84B2B442F5DB06E0474605FB7E
:1043400006FB59463846FFF711FFBDE8F09F08B558
:1043500010208DF8030003208DF802004020ADF8F6
:10436000000069462048FCF739FD4FF40060ADF8C5
:10437000000069461C48FCF731FD4FF400611A4803
:10438000FCF7D9FD322007F0E7FC4FF40061164836
:10439000FCF7D3FD322007F0DFFC4FF40061124838
:1043A000FCF7C9FD322007F0D7FCFFF74AFD0020DB
:1043B000FFF716FD0B4800F0A5FA08BD10B504463E
:1043C00024B140210848FCF7B8FD03E0402106482D
:1043D000FCF7B1FD10BD4FF0D8410880704701498E
:1043E00008807047FEFFFF6F0020014008B50120E4
:1043F0008DF8020010208DF803008001ADF8000058
:104400006946BC48FCF7EAFC10208DF803008020C8
:10441000ADF800006946B848FCF7E0FC10208DF8C4
:104420000300C001ADF800006946B248FCF7D6FCB5
:1044300048208DF803004020ADF800006946AD48E3
:10444000FCF7CCFC48208DF803004FF40070ADF869
:1044500000006946A748FCF7C1FC012008BD08B56B
:1044600008E00021009102E00099491C00910099A8
:104470000229F9DB011EA0F10100F2DC08BD9D4814
:104480000830006800F4007008B90120704700206F
:10449000FCE770B50446802097494861002522E07A
:1044A00004F0800028B14FF4006092491031086098
:1044B00004E04FF400608F49143108606006040E78
:1044C0000120FFF7CCFF80208B4948610120FFF7D6
:1044D000C6FF8020884908610120FFF7C0FF8020C7
:1044E000854948616D1C082DDADB70BDF0B50D46BD
:1044F00014466A1C13E050F82230511E05E050F8B3
:1045000021704E1C40F82670491E002903DB50F82C
:1045100021609E42F3DC4E1C40F82630521CA24221
:10452000E9DDF0BD70B50646002500248020724903
:10453000486100016F49143108604010086030463E
:10454000FFF7A7FF0620FFF78AFF80206A4948612E
:104550000120FFF784FF8020674908610120FFF7F1
:104560007EFF80206449486100BF16E04FF6FF706F
:1045700000EA44048020604948610120FFF76FFF92
:1045800080205D4908615B480830006800F0400009
:1045900008B144F00104681CC5B2102DE6DB2411FB
:1045A0004FF48060534910310860204670BD2DE9FA
:1045B000F04107468846002407E09020FFF7B2FF4D
:1045C0004E4941F82400601C84B20C2CF5DB0B2210
:1045D00000214A48FFF78AFF06242146641C474809
:1045E00030F8210085B2454830F82400284485B2CF
:1045F0006D10002407E0D020FFF794FF3F4941F8F9
:104600002400601C84B20C2CF5DB0B2200213B48FB
:10461000FFF76CFF06242146641C384830F821005F
:1046200086B2364830F82400304486B276103D8099
:10463000A8F800600120BDE8F08110B500203049E5
:104640000860FFF7D3FE012010BD10B5FFF717FF7C
:1046500018B101202A49086010BD002028490860CF
:1046600000BFF9E71CB504462548006801280BD1B6
:10467000694601A8FFF79BFFBDF804002060BDF864
:104680000000606001201CBD0020FCE710B504465E
:104690002046FFF7E7FF38B12246F0214FF4A07023
:1046A00007F0E1FB012010BD0120FCE710B5044636
:1046B0001020A080E0802020208110206081202018
:1046C000A081E0811020208220206082142200211D
:1046D0002046FDF76FFE012010BD10B504460020F6
:1046E0002080FDF75BFD142200212046FDF7B4FD7C
:1046F000012010BD001C0140002001409C0800204A
:104700004000002008B501210802FCF716FE012137
:104710004FF4F070FCF71EFE4CF20370ADF8000091
:1047200018208DF8030003208DF8020069465E48CA
:10473000FCF754FB4FF68070ADF8000069465B480B
:10474000FCF74CFB4FF23F00ADF8000069465848BB
:10475000FCF744FB3F20ADF8000069465548FCF7E4
:104760003DFB4FF46050ADF8000069464E48FCF741
:1047700035FB3020ADF8000069464B48FCF72EFBB6
:104780004FF48060ADF8000069464A48FCF726FB0C
:104790004FF48050ADF8000069464648FCF71EFB18
:1047A0000320ADF8000069464048FCF717FB08BD40
:1047B00000B597B0022001900020029002200390E3
:1047C0000020049005900690079004200890002097
:1047D00009900A9010200B9000200C900D900E90E4
:1047E0000F9010904FF48050119000201290139071
:1047F000149001A81590169008A8FBF7D5FF012189
:104800000420FCF739F917B000BD00B59FB00420B3
:10481000ADF8040018208DF8070003208DF806007D
:1048200001A92248FCF7DAFA0120099000200A9039
:1048300001200B9000200C900D900E904FF08050B6
:104840000F9001200290002003900220049000208D
:104850000590069007904FF0805008900620109029
:104860000020119008201290102013900020149026
:1048700015901690179018904FF4805019900020C2
:104880001A904FF480401B9000201C9002A81D90AD
:1048900009A81E9010A8FBF787FF01210620FCF74E
:1048A000EBF81FB000BD00000014014000180140EB
:1048B000001C01400020014010B500BF5021EFF363
:1048C000118081F31188BFF34F8FBFF36F8F00BF4B
:1048D00004464FF40010FBF7F8FE70B14FF40010DF
:1048E000FBF7E8FE4FF40010FBF703FF00207B49C5
:1048F00008607B48006807F003FA00BF84F3118862
:1049000000BF10BD10B58CB004467648046001218C
:10491000002007F0CFF97249086001210846FCF732
:104920000CFD0020029001941020039000200490C0
:10493000059006904FF4807007908000089000204A
:1049400009904FF440500A904FF480400B9001A919
:104950006548FBF755FE012202216348FBF787FEFD
:104960004FF40010FBF7A6FE4FF40010FBF7C1FE5A
:1049700010208DF8000005208DF8010000208DF832
:10498000020001208DF803006846FBF72EFD0CB0F5
:1049900010BD00BF514800680128FBD070472DE9C9
:1049A000F04106460D4614461F464F486C38856751
:1049B000466744E04FF6F070844223DD4A486C3885
:1049C000C06E20F0010048496C39C8664FF6F0709F
:1049D0000867241A01204149086043486C38C06EBA
:1049E00040F0010040496C39C8664FF47A713C4888
:1049F000006807F067F917B33C4805443A486C383B
:104A000085671CE038486C38C06E20F001003649DC
:104A10006C39C86608460467002401202F490860E5
:104A200031486C38C06E40F001002F496C39C866BF
:104A30004FF47A712A48006807F044F901E0002C2D
:104A4000B8DC00BF28486C38C06E20F00100264951
:104A50006C39C866BDE8F08170B505460C46B4F502
:104A6000C87F01DA002070BDFFF793FF2048058062
:104A70001D486C38C06E20F080001B496C39C86638
:104A80000846C06E20F04000C86600232246184940
:104A900014480068FFF783FF0120E4E770B505467E
:104AA0000C46B4F5C87F01DA002070BDFFF771FF36
:104AB0000D486C38C06E20F040000B496C39C86658
:104AC0000846C06E40F08000C86601232246294691
:104AD00004480068FFF763FF0120E6E74800002074
:104AE000440000204C0000206C000240E0FF010068
:104AF000500000200146012011B1012904D102E03B
:104B000020F0010002E001E0012000BF00BF70477B
:104B100070B50446012514B1012C09D107E0FEF758
:104B20007DFB10B925F0010500E0012502E001E060
:104B3000012500BF00BF284670BD2DE9F04FADF53F
:104B4000017D81460C4615461E464FF0040B4FF082
:104B5000000AB9F1000F03D0B9F1010F42D140E0D2
:104B600004F00300E8B1002711E02A466D1C012380
:104B700001A90020FFF7E1FF074607B10BE04FF462
:104B8000007201A9204610F06BF904F50074301E84
:104B9000A6F10106E9D100BF38460DF5017DBDE85B
:104BA000F08F4FF40070A5FB00713A460B46CDE93B
:104BB00000062046FEF71BFD8246BAF1000F07D122
:104BC000FEF799FD824600BFFEF791FB0028FBD15E
:104BD000BAF1000F02D04FF0040B01E04FF0000BD0
:104BE00003E002E04FF0040B00BF00BF5846D4E7DB
:104BF0002DE9F04FADF5017D81460C4616461D4668
:104C00004FF0040B4FF0000A25B904200DF5017D8B
:104C1000BDE8F08FB9F1000F03D0B9F1010F3FD11A
:104C20003DE004F00300D0B1002711E04FF4007222
:104C3000214601A810F014F93246761C012301A97F
:104C40000020FFF7D5FF074607B105E004F5007423
:104C5000281EA5F10105E9D100BF3846D6E74FF47B
:104C60000070A6FB00713A460B46CDE900052046D0
:104C7000FEF7BDFD8246BAF1000F07D1FEF753FEE5
:104C8000824600BFFEF733FB0028FBD1BAF1000FCC
:104C900002D04FF0040B01E04FF0000B03E002E004
:104CA0004FF0040B00BF00BF5846AFE72DE9F047B7
:104CB00005460E4614464FF0040915B1012D21D1C9
:104CC0001FE0CEB1012E0BD0022E02D0032E14D144
:104CD00003E04FF4007020800FE0012020600CE022
:104CE0000D48D0F850C062460023D0E91271384612
:104CF00010F085F8206000E000BF00BF4FF0000911
:104D000003E002E04FF0040900BF00BF4846BDE8E1
:104D1000F08702487047000000080020000021468C
:104D200070B503460C4603E014F8015B03F8015B21
:104D3000151EA2F10102F7D170BD30B5034601E0A6
:104D400003F8011B141EA2F10102F9D130BDF0B528
:104D500003461C460D46002000BF161EA2F10102AC
:104D600007D014F8017B15F801CBA7EB0C06301E19
:104D7000F3D0F0BD024600E0521C107810B110785C
:104D80008842F9D1107870472DE9F0410446002798
:104D90002079F8B1E56A607801232A4604F13001F0
:104DA000FFF726FF08B1012714E000202071206AD8
:104DB000281AA16988420DD2E67809E0A069054465
:104DC000607801232A4604F13001FFF711FF761EB7
:104DD000022EF3D23846BDE8F08170B504460D4688
:104DE0000026E06AA84210D02046FFF7CDFF064615
:104DF0005EB9607801232A4604F13001FFF79DFE79
:104E000010B14FF0FF350126E562304670BD70B538
:104E100004462046FFF7B8FF0546002D59D12078FB
:104E200003284FD1607901284CD16289002104F117
:104E30003000FFF782FF552184F82E12AA2184F852
:104E40002F12522084F83000522131200155612167
:104E500032200155412133200155722184F814126A
:104E600084F81512412184F81612612184F8171272
:104E7000217C84F81812208A010A84F8191220690A
:104E8000010C84F81A122069010E84F81B12217B90
:104E900084F81C12A089010A84F81D12E068010C34
:104EA00084F81E12E068010E84F81F12E069401CAD
:104EB000E0626078012304F13001E26AFFF798FEB6
:104EC00000206071607800221146FFF7EFFE00B10C
:104ED0000125284670BD0246891E5069801E884201
:104EE00001D8002070479378906A01FB0300F9E72E
:104EF0002DE9F05F04460D46022D02D36069A842F9
:104F000002D84FF001098FE04FF0FF3920780128D7
:104F100004D002283CD003287ED157E02F4607EB6F
:104F200057076089B7FBF0F0216A00EB010A514690
:104F30002046FFF752FF00B175E038467F1C6189BB
:104F4000B0FBF1F201FB120104F1300010F8018016
:104F50006089B7FBF0F0216A00EB010A5146204658
:104F6000FFF73BFF00B15EE06089B7FBF0F100FBAB
:104F7000117104F13000405C48EA002805F001009E
:104F800010B14FEA181001E0C8F30B0081464AE067
:104F9000B4F80AA00AEBDA704010B5FBF0F0216A11
:104FA00000EB010B59462046FFF717FF00B13AE02E
:104FB00068006189B0FBF1F201FB120104F13000DD
:104FC0000E183078717840EA01292CE0B4F80AA074
:104FD0004FEAEA700AEB90708010B5FBF0F0216A9E
:104FE00000EB010B59462046FFF7F7FE00B11AE02F
:104FF000A8006189B0FBF1F201FB120104F130005D
:105000000E18F0780006B17840EA0140717840EA65
:1050100001203178084300E002E020F0704902E00E
:105020004FF0010900BF00BF4846BDE8F09F2DE9E1
:10503000F05F04460E461746022E02D36069B04266
:1050400002D84FF00208B3E02078012804D00228EB
:1050500052D0032872D172E0B14609EB5909608938
:10506000B9FBF0F0216A00EB010A51462046FFF738
:10507000B4FE8046B8F1000F00D098E0484609F130
:1050800001096189B0FBF1F201FB120104F130006A
:105090000D1806F0010020B1F9B2287861F31F1055
:1050A00000E038462870012020716089B9FBF0F0DB
:1050B000216A00EB010A51462046FFF78EFE80462A
:1050C000B8F1000F00D072E06089B9FBF0F100FB8D
:1050D000119104F130000D1806F0010010B1C7F372
:1050E000071005E0287800F0F000C7F3032108431B
:1050F0002870012020715AE0B4F80AA00AEBDA7097
:105100004010B6FBF0F0216A00EB010B5946204637
:10511000FFF763FE8046B8F1000F00D047E0700053
:105120006189B0FBF1F201FB120104F130000D18AE
:105130002F70380A68700120207138E034E0B4F82C
:105140000AA04FEAEA700AEB90708010B6FBF0F00C
:10515000216A00EB010B59462046FFF73EFE8046D0
:10516000B8F1000F00D022E0B0006189B0FBF1F28D
:1051700001FB120104F130000D18E8780006A9784F
:1051800040EA0140697840EA01202978084300F0AC
:10519000704007432F70380A6870380CA870380EBA
:1051A000E8700120207102E04FF0020800BF00BF4C
:1051B0004046BDE8F09F2DE9F04104460E46022E20
:1051C00002D36069B04201D8022727E0002721E01E
:1051D00031462046FFF78CFE054605B91DE0012D3E
:1051E00001D1022719E0681C08B9012715E0002247
:1051F00031462046FFF71BFF074607B10DE0206947
:10520000401C30B12069401C2061607940F00100F1
:1052100060712E466069B042DAD800BF3846BDE8FA
:10522000F0812DE9F04704468946B9F1000F06D117
:10523000E76817B16069B84215D8012713E04946FD
:105240002046FFF755FE0646022E02D20120BDE899
:10525000F087701C08B93046F9E76069B04201D99F
:105260003046F4E74F463D4600BF6D1C6069A842DA
:1052700004D80225BD4201D90020E8E7294620468E
:10528000FFF736FE064606B909E0701C08B1012E8C
:1052900001D13046DBE7BD42E7D10020D7E700BFB0
:1052A0006FF0704229462046FFF7C1FE8046B8F1F4
:1052B000000F08D1B9F1000F05D02A464946204613
:1052C000FFF7B5FE8046B8F1000F0BD1E56020690D
:1052D000401C78B12069401E2061607940F00100D7
:1052E000607107E0B8F1010F02D14FF0FF3000E02C
:1052F000012005462846AAE72DE9F04104460E465E
:10530000E680A568012D03D020684069A84202D834
:105310000220BDE8F0812DB920680078032801D172
:105320002068456A45B920680089B04201D802204A
:10533000EFE72068476A24E021684889C11700EB3D
:10534000D16149112268927801FB02F812E02946E6
:105350002068FFF7CDFD0546681C08B90120D8E795
:10536000022D03D320684069A84201D80220D0E76B
:10537000A6EB08064645EAD229462068FFF7ABFDB2
:105380000746E5600FB90220C3E721684889C117C5
:1053900000EBD1614911B6FBF1F13944216121687B
:1053A0004889C11700EBD1614911B6FBF1F201FB4D
:1053B00012612268303202EB411161610020A8E7DE
:1053C0002DE9F04104468846E088461CB0B208B199
:1053D000206910B90420BDE8F08121684889C1170F
:1053E00000EBD1614911B6FBF1F201FB126100291A
:1053F00071D12069401C2061E06828B920680089CB
:10540000B04268D80420E6E721684889C11700EB5C
:10541000D1614911B6FBF1F122689278521E114018
:10542000002958D1E1682068FFF762FD0546012D8B
:1054300001D80220CFE7681C08B90120CBE720681B
:105440004069A84241D8B8F1000F01D10420C2E759
:10545000E1682068FFF7E5FE05460DB90720BAE7C9
:10546000012D01D10220B6E7681C08B90120B2E77E
:105470002068FFF789FC08B10120ACE721684A8960
:1054800001F130000021FFF758FC29462068FFF7A2
:1054900022FD2168C86200270EE001202168087102
:1054A0002068FFF771FC08B1012094E72068C06A0A
:1054B000401C2168C8627F1C20688078B842ECD804
:1054C0002068C06AC01B2168C862E5602946206860
:1054D000FFF701FD2061E68021684889C11700EBD4
:1054E000D1614911B6FBF1F201FB12612268303241
:1054F00002EB4111616100206DE72DE9F0410446A6
:105500000E4600212046FFF7F7FE0546EDB90027BD
:1055100000BF21692068FFF760FC054605B113E074
:1055200060690078E52802D06069007820B9781CAD
:105530000746B04201D107E0002701212046FFF7CE
:105540003FFF0546002DE4D000BF042D00D1072504
:105550002846BDE8F08110B502468C7ECB7E44EA39
:1055600003201378032B05D10C7D4B7D44EA0323E4
:1055700040EA034010BD81760B0AC3760A0C02751F
:105580000B0E437570472DE9F04780460C46A17E0F
:10559000E07E41EA002010B10020BDE8F0872078CD
:1055A00000F03F00401E00EB800101EBC0064FF011
:1055B0000109002524E0F848405D205CF649495D7A
:1055C0002144497840EA0127B9F1000F11D0FF2E9C
:1055D0000BD2384602F0EAFB82463146761C38F898
:1055E000110002F0E3FB824501D00020D5E7B94667
:1055F00005E04FF6FF70874201D00020CDE76D1C1B
:105600000D2DD8D3207800F0400038B1B9F1000F4B
:1056100004D038F8160008B10020BEE70120BCE72E
:10562000F0B504468F7EC87E47EA002008B100200E
:10563000F0BD087800F03F00401E00EB800707EB4C
:10564000C002012600231AE0D348C05C085CD24F98
:10565000FF5C0F447F7840EA07254EB1FF2A01D353
:105660000020E5E72E461046521C24F8105005E0B5
:105670004FF6FF70854201D00020D9E75B1C0D2B4F
:10568000E2D3087800F0400030B1FF2A01D30020B7
:10569000CEE7002024F812000120C9E7F0B5044647
:1056A0001D464D730F27CF7200270F738F76BC46B0
:1056B00081F81BC0571E07EB870C0CEBC7060027B1
:1056C00038463B4600BF4FF6FF77B84203D0374617
:1056D000761C34F81700DFF8C0C21CF803C001F8CC
:1056E0000C000712DFF8B0C21CF803C08C448CF821
:1056F000017008B94FF6FF705F1C3B460D2FE2D3D7
:105700004FF6FF77B84202D034F816700FB942F066
:1057100040020A70F0BD2DE9FF4F83B00746914665
:105720001E460B2238460499FFF7FAFA052E19D9BE
:10573000B04612E039F802BB00250CE0584668F389
:105740005F0080464FEA6B0B08F4803010B193483D
:1057500088EA00086D1C102DF0D3B9F8000000286D
:10576000E8D14646072500BF06F00F0000F1300AD9
:10577000BAF1390F03DD0AF1070000F0FF0A2846ED
:105780006D1E01A901F800A03609002EECD17E2083
:10579000485500240BE0385D812807DB385DFE2882
:1057A00004DC681EA04200D106E0641C641CAC420C
:1057B00002D2385D2028EED100BF00BF082D04D2F0
:1057C00028466D1C01A9095C00E020212046641CCC
:1057D0003954082CF2D307B0BDE8F08F30B501463C
:1057E00000200B2200BF431003EBC01411F8015B33
:1057F0006319D8B2531E1A1EF5D130BD2DE9F047FA
:10580000044600212046FFF777FD074617B13846CA
:10581000BDE8F0874FF0FF09CA464FF6FF702084BD
:1058200000BF21692068FFF7D8FA074607B157E0A3
:1058300065692E780EB9042752E0E87A00F03F0837
:10584000E52E05D008F0080040B1B8F10F0F05D0E3
:105850004FF0FF094FF6FF7020843AE0B8F10F0FC8
:105860001CD1E06978B306F0400030B195F80DA086
:1058700026F04006B146E08820844E450AD1687B78
:10588000504507D12946E069FFF77DFE10B1A9F127
:10589000010000E0FF2000F0FF091AE0B9F1000F5D
:1058A00005D12846FFF79AFF504500D118E0A069BE
:1058B000C07A00F0010038B90B222846A169FFF731
:1058C00046FA08B90CE004E04FF0FF094FF6FF700C
:1058D000208400212046FFF773FD0746002FA0D04B
:1058E00000BF384694E72DE9F05F04468A464FF042
:1058F000FF09CB46042753E021692068FFF76DFAC2
:10590000074607B14FE0666935780DB904274AE0CC
:10591000F07A00F03F08E52D0AD02E2D08D028F0AF
:105920002000082801D1012000E00020504502D0CD
:105930004FF0FF0929E0B8F10F0F1AD105F0400030
:1059400030B196F80DB025F04005A946E0882084D6
:105950004D450AD1707B584507D13146E069FFF7C4
:105960005FFE10B1A9F1010000E0FF2000F0FF0987
:105970000BE0B9F1000F04D13046FFF72FFF584577
:1059800002D04FF6FF7020840DE000212046FFF783
:1059900017FD074627B106E0B0A902082110010053
:1059A00020690028A8D100BF0FB10020206138462F
:1059B000BDE8F09F2DE9FE4F0446D4F81880D4F8D6
:1059C0001C900C2241466846FFF7AAF900BF9DF8DB
:1059D0000B0000F0010020B3002088F80B00E0610C
:1059E00001260CE033464A4669464046FFF793FEDF
:1059F0002046FFF703FF054605B102E0761C642E42
:105A0000F0D300BF642E02D10720BDE8FE8F042D25
:105A100001D02846F9E79DF80B0088F80B00C4F880
:105A20001C909DF80B0000F0020060B1002600E021
:105A3000761C39F816000028FAD106F119000D215C
:105A4000B0FBF1F700E0012739462046FFF755FD8E
:105A5000054645BB781E071E25D0E088C11B2046A1
:105A6000FFF74AFC0546F5B9A069FFF7B7FE824685
:105A700000BF21692068FFF7B0F9054605B111E0C4
:105A8000FAB253466169E069FFF708FE0120216818
:105A9000087100212046FFF793FC054615B9781ED2
:105AA000071EE6D100BFC5B921692068FFF795F947
:105AB000054695B9202200216069FFF73EF90B22C7
:105AC000D4E90501FFF72CF9A069C07A00F01800AD
:105AD00061690873012021680871284695E770B54F
